:020000040800F2
:1000000000000524F53E00089535000897350008E6
:10001000993500089B3500089D3500080000000058
:10002000000000000000000000000000D19D00085A
:100030009F35000800000000719E0008199B000811
:10004000453F0008453F0008453F0008453F000880
:10005000453F0008453F0008453F0008453F000870
:10006000453F0008453F0008453F0008A13500080E
:10007000B1350008C1350008D1350008453F0008FA
:10008000453F0008453F0008453F0008E1350008AE
:10009000F13500080136000811360008453F000818
:1000A000453F0008453F0008453F0008453F000820
:1000B000453F0008453F0008453F0008453F000810
:1000C000453F0008453F0008453F0008453F000800
:1000D000453F000821360008453F0008453F00081D
:1000E000453F0008453F0008000000004536000875
:1000F0005D360008453F0008453F0008453F0008C1
:10010000453F0008453F00086D360008453F0008A0
:10011000453F0008453F00087D3600088D36000841
:10012000453F0008453F00089D360008453F000850
:10013000AD360008453F0008453F0008453F000830
:1001400000000000000000000000000000000000AF
:10015000453F0008453F0008453F0008453F00086F
:10016000453F0008453F0008453F0008453F00085F
:10017000453F0008453F0008453F000800000000DB
:10018000453F0008453F0008BD360008453F0008D0
:10019000453F0008453F0008453F0008453F00082F
:1001A000453F0008453F0008453F000800000000AB
:1001B000453F0008453F0008453F0008453F00080F
:1001C000453F0008453F0008000000000000000017
:1001D0000000000000000000453F00080000000093
:1001E000000000000000000000000000000000000F
:1001F0000000000000000000453F0008453F0008E7
:10020000453F0008453F000800000000453F00084A
:10021000453F0008453F0008453F0008453F0008AE
:10022000453F000800000000453F000800000000B6
:10023000453F0008453F000800000000453F00081A
:10024000453F0008453F0008453F0008453F00087E
:10025000453F0008453F0008453F0008453F00086E
:10026000453F0008453F0008453F0008453F00085E
:10027000453F0008453F0008453F000800000000DA
:10028000453F0008453F0008453F0008453F00083E
:1002900000000000453F0008453F00080000000046
:1002A00000000000453F0008453F0008453F0008AA
:1002B000E1360008453F0008453F000805370008C3
:0C02C00015370008453F0008453F0008C6
:1002D00010B5054C237833B9044B13B10448AFF380
:1002E00000800123237010BD4C0400240000000096
:1002F0002CCA000808B5034B1BB103490348AFF3F0
:10030000008008BD00000000500400242CCA000832
:1003100081F0004102E000BF83F0004330B54FEAB6
:1003200041044FEA430594EA050F08BF90EA020F23
:100330001FBF54EA000C55EA020C7FEA645C7FEAB6
:10034000655C00F0E2804FEA5454D4EB5555B8BFD9
:100350006D420CDD2C4480EA020281EA030382EA4A
:10036000000083EA010180EA020281EA0303362DDC
:1003700088BF30BD11F0004F4FEA01314FF4801CAF
:100380004CEA113102D0404261EB410113F0004FC1
:100390004FEA03334CEA133302D0524263EB430378
:1003A00094EA050F00F0A780A4F10104D5F1200E16
:1003B0000DDB02FA0EFC22FA05F2801841F1000171
:1003C00003FA0EF2801843FA05F359410EE0A5F145
:1003D00020050EF1200E012A03FA0EFC28BF4CF076
:1003E000020C43FA05F3C01851EBE37101F000452C
:1003F00007D54FF0000EDCF1000C7EEB00006EEB39
:100400000101B1F5801F1BD3B1F5001F0CD34908C2
:100410005FEA30004FEA3C0C04F101044FEA445219
:1004200012F5800F80F09A80BCF1004F08BF5FEAA0
:10043000500C50F1000041EB045141EA050130BD80
:100440005FEA4C0C404141EB0101013C28BFB1F592
:10045000801FE9D291F0000F04BF01460020B1FADD
:1004600081F308BF2033A3F10B03B3F120020CDAB0
:100470000C3208DD02F1140CC2F10C0201FA0CF08E
:1004800021FA02F10CE002F11402D8BFC2F1200CF3
:1004900001FA02F120FA0CFCDCBF41EA0C019040A9
:1004A000E41AA2BF01EB0451294330BD6FEA0404F2
:1004B0001F3C1CDA0C340EDC04F11404C4F12002DD
:1004C00020FA04F001FA02F340EA030021FA04F3EF
:1004D00045EA030130BDC4F10C04C4F1200220FA46
:1004E00002F001FA04F340EA0300294630BD21FA84
:1004F00004F0294630BD94F0000F83F4801306BF4A
:1005000081F480110134013D4EE77FEA645C18BF3D
:100510007FEA655C29D094EA050F08BF90EA020FD4
:1005200005D054EA000C04BF1946104630BD91EACC
:10053000030F1EBF0021002030BD5FEA545C05D1CF
:100540004000494128BF41F0004130BD14F580040E
:100550003CBF01F5801130BD01F0004545F0FE4182
:1005600041F470014FF0000030BD7FEA645C1ABFB7
:10057000194610467FEA655C1CBF0B46024650EAEE
:10058000013406BF52EA033591EA030F41F400211A
:1005900030BD00BF90F0000F04BF0021704730B5A0
:1005A0004FF4806404F132044FF000054FF0000175
:1005B00050E700BF90F0000F04BF0021704730B536
:1005C0004FF4806404F1320410F0004548BF40420B
:1005D0004FF000013EE700BF42004FEAE2014FEA60
:1005E00031014FEA02701FBF12F07F4393F07F4F3B
:1005F00081F06051704732F07F4208BF704793F03E
:100600007F4F04BF41F40021704730B54FF4607450
:1006100001F0004521F000411CE700BF50EA010253
:1006200008BF704730B54FF000050AE050EA0102FC
:1006300008BF704730B511F0004502D5404261EB6C
:1006400041014FF4806404F132045FEA915C3FF4AD
:10065000D8AE4FF003025FEADC0C18BF03325FEA4A
:10066000DC0C18BF033202EBDC02C2F1200300FAFB
:1006700003FC20FA02F001FA03FE40EA0E0021FA20
:1006800002F11444BDE600BF70B54FF0FF0C4CF40E
:10069000E06C1CEA11541DBF1CEA135594EA0C0FC0
:1006A00095EA0C0F00F0DEF82C4481EA030621EAFB
:1006B0004C5123EA4C5350EA013518BF52EA033536
:1006C00041F4801143F4801338D0A0FB02CE4FF0E8
:1006D0000005E1FB02E506F00042E0FB03E54FF018
:1006E0000006E1FB03569CF0000F18BF4EF0010E10
:1006F000A4F1FF04B6F5007F64F5407404D25FEA0C
:100700004E0E6D4146EB060642EAC62141EA5551BE
:100710004FEAC52040EA5E504FEACE2EB4F1FD0C00
:1007200088BFBCF5E06F1ED8BEF1004F08BF5FEA7E
:10073000500E50F1000041EB045170BD06F0004630
:1007400046EA010140EA020081EA0301B4EB5C04DD
:10075000C2BFD4EB0C0541EA045170BD41F48011D5
:100760004FF0000E013C00F3AB8014F1360FDEBFFA
:10077000002001F0004170BDC4F10004203C35DAD6
:100780000C341BDC04F11404C4F1200500FA05F359
:1007900020FA04F001FA05F240EA020001F00042FA
:1007A00021F0004110EBD37021FA04F642EB060170
:1007B0005EEA430E08BF20EAD37070BDC4F10C049A
:1007C000C4F1200500FA04F320FA05F001FA04F25E
:1007D00040EA020001F0004110EBD37041F100014A
:1007E0005EEA430E08BF20EAD37070BDC4F1200555
:1007F00000FA05F24EEA020E20FA04F301FA05F2BD
:1008000043EA020321FA04F001F0004121FA04F264
:1008100020EA020000EBD3705EEA430E08BF20EA34
:10082000D37070BD94F0000F0FD101F0004640006E
:1008300041EB010111F4801F08BF013CF7D041EAF0
:10084000060195F0000F18BF704703F000465200F4
:1008500043EB030313F4801F08BF013DF7D043EAC5
:100860000603704794EA0C0F0CEA135518BF95EA7B
:100870000C0F0CD050EA410618BF52EA4306D1D102
:1008800081EA030101F000414FF0000070BD50EA21
:10089000410606BF1046194652EA430619D094EAAB
:1008A0000C0F02D150EA013613D195EA0C0F05D195
:1008B00052EA03361CBF104619460AD181EA0301E9
:1008C00001F0004141F0FE4141F470014FF00000A1
:1008D00070BD41F0FE4141F4780170BD70B54FF03C
:1008E000FF0C4CF4E06C1CEA11541DBF1CEA1355BC
:1008F00094EA0C0F95EA0C0F00F0A7F8A4EB05049E
:1009000081EA030E52EA03354FEA013100F0888094
:100910004FEA03334FF0805545EA131343EA12635D
:100920004FEA022245EA111545EA10654FEA002612
:100930000EF000419D4208BF964244F1FD0404F5CB
:10094000407402D25B084FEA3202B61A65EB030527
:100950005B084FEA32024FF480104FF4002CB6EBE4
:10096000020E75EB030E22BFB61A754640EA0C0064
:100970005B084FEA3202B6EB020E75EB030E22BFA4
:10098000B61A754640EA5C005B084FEA3202B6EBE5
:10099000020E75EB030E22BFB61A754640EA9C00A4
:1009A0005B084FEA3202B6EB020E75EB030E22BF74
:1009B000B61A754640EADC0055EA060E18D04FEA32
:1009C000051545EA16754FEA06164FEAC30343EAD2
:1009D00052734FEAC2025FEA1C1CC0D111F4801F9F
:1009E0000BD141EA00014FF000004FF0004CB6E798
:1009F00011F4801F04BF01430020B4F1FD0C88BF37
:100A0000BCF5E06F3FF6AFAEB5EB030C04BFB6EB41
:100A1000020C5FEA500C50F1000041EB045170BD34
:100A20000EF0004E4EEA113114EB5C04C2BFD4EB61
:100A30000C0541EA045170BD41F480114FF0000EE5
:100A4000013C90E645EA060E8DE60CEA135594EA61
:100A50000C0F08BF95EA0C0F3FF43BAF94EA0C0F64
:100A60000AD150EA01347FF434AF95EA0C0F7FF4D9
:100A700025AF104619462CE795EA0C0F06D152EA2D
:100A800003353FF4FDAE1046194622E750EA410611
:100A900018BF52EA43067FF4C5AE50EA41047FF422
:100AA0000DAF52EA43057FF4EBAE12E74FF0FF3C87
:100AB00006E000BF4FF0010C02E000BF4FF0010C58
:100AC0004DF804CD4FEA410C7FEA6C5C4FEA430CD1
:100AD00018BF7FEA6C5C1BD001B050EA410C0CBF20
:100AE00052EA430C91EA030F02BF90EA020F002082
:100AF000704710F1000F91EA030F58BF994208BFE9
:100B000090422CBFD8176FEAE37040F001007047A5
:100B10004FEA410C7FEA6C5C02D150EA013C07D1FC
:100B20004FEA430C7FEA6C5CD6D152EA033CD3D047
:100B30005DF8040B704700BF8446104662468C4641
:100B40001946634600E000BF01B5FFF7B7FF002874
:100B500048BF10F1000F01BD4DF808EDFFF7F4FF9D
:100B60000CBF012000205DF808FB00BF4DF808ED28
:100B7000FFF7EAFF34BF012000205DF808FB00BF4B
:100B80004DF808EDFFF7E0FF94BF012000205DF86D
:100B900008FB00BF4DF808EDFFF7CEFF94BF012022
:100BA00000205DF808FB00BF4DF808EDFFF7C4FF1B
:100BB00034BF012000205DF808FB00BF4FEA410C64
:100BC0007FEA6C5C02D150EA013C0AD14FEA430C47
:100BD0007FEA6C5C02D152EA033C02D14FF0000084
:100BE00070474FF0010070474FEA4102B2F1E04315
:100BF00024BFB3F5001CDCF1FE5C0DD901F0004C04
:100C00004FEAC0024CEA5070B2F1004F40EB830053
:100C100008BF20F00100704711F0804F21D113F17F
:100C20003872BCBF01F00040704741F480114FEAB8
:100C30005252C2F11802C2F1200C10FA0CF320FA41
:100C400002F018BF40F001004FEAC1234FEAD3235E
:100C500003FA0CFC40EA0C0023FA02F34FEA4303C8
:100C6000CCE77FEA625307D150EA01331EBF4FF051
:100C7000FE4040F44000704701F0004040F0FE406C
:100C800040F40000704700BF80F0004002E000BF69
:100C900081F0004142001FBF5FEA410392EA030F67
:100CA0007FEA226C7FEA236C6AD04FEA1262D2EBB1
:100CB0001363C1BFD218414048404140B8BF5B42B6
:100CC000192B88BF704710F0004F40F4000020F04F
:100CD0007F4018BF404211F0004F41F4000121F065
:100CE0007F4118BF494292EA030F3FD0A2F10102AF
:100CF00041FA03FC10EB0C00C3F1200301FA03F1ED
:100D000000F0004302D5494260EB4000B0F5000F0F
:100D100013D3B0F1807F06D340084FEA310102F1CE
:100D20000102FE2A51D2B1F1004F40EBC25008BF80
:100D300020F0010040EA03007047490040EB00004A
:100D4000013A28BFB0F5000FEDD2B0FA80FCACF14B
:100D5000080CB2EB0C0200FA0CF0AABF00EBC25078
:100D600052421843BCBFD0401843704792F0000F66
:100D700081F4000106BF80F400000132013BB5E7B9
:100D80004FEA41037FEA226C18BF7FEA236C21D02F
:100D900092EA030F04D092F0000F08BF0846704794
:100DA00090EA010F1CBF0020704712F07F4F04D162
:100DB000400028BF40F00040704712F100723CBF75
:100DC00000F50000704700F0004343F0FE4040F49F
:100DD000000070477FEA226216BF08467FEA23635D
:100DE0000146420206BF5FEA412390EA010F40F448
:100DF000800070474FF0000304E000BF10F0004394
:100E000048BF40425FEA000C08BF704743F096437A
:100E100001464FF000001CE050EA010208BF704795
:100E20004FF000030AE000BF50EA010208BF70471C
:100E300011F0004302D5404261EB41015FEA010C31
:100E400002BF84460146002043F0B64308BFA3F129
:100E50008053A3F50003BCFA8CF2083AA3EBC2530B
:100E600010DB01FA02FC634400FA02FCC2F120022A
:100E7000BCF1004F20FA02F243EB020008BF20F061
:100E80000100704702F1200201FA02FCC2F12002C7
:100E900050EA4C0021FA02F243EB020008BF20EABC
:100EA000DC70704753B94AB9002908BF00281CBF3D
:100EB0004FF0FF314FF0FF3001F0DEB8ADF1080C1C
:100EC0006DE904CE00F006F8DDF804E0DDE9022368
:100ED00004B070472DE9F047089D04468E46002B6C
:100EE0004DD18A42944669D9B2FA82F252B101FADE
:100EF00002F3C2F1200120FA01F10CFA02FC41EAEE
:100F0000030E94404FEA1C48210CBEFBF8F61FFA72
:100F10008CF708FB16E341EA034306FB07F199420D
:100F20000AD91CEB030306F1FF3080F01F819942C0
:100F300040F21C81023E63445B1AA4B2B3FBF8F09A
:100F400008FB103344EA034400FB07F7A7420AD921
:100F50001CEB040400F1FF3380F00A81A74240F249
:100F600007816444023840EA0640E41B00261DB1B4
:100F7000D4400023C5E900433146BDE8F0878B42E9
:100F800009D9002D00F0EF800026C5E900013046A8
:100F90003146BDE8F087B3FA83F6002E4AD18B4282
:100FA00002D3824200F2F980841A61EB030301202C
:100FB0009E46002DE0D0C5E9004EDDE702B9FFDE18
:100FC000B2FA82F2002A40F09280A1EB0C014FEAC3
:100FD0001C471FFA8CFE0126200CB1FBF7F307FB20
:100FE000131140EA01410EFB03F0884208D91CEBC3
:100FF000010103F1FF3802D2884200F2CB80434660
:10100000091AA4B2B1FBF7F007FB101144EA01443E
:101010000EFB00FEA64508D91CEB040400F1FF31CD
:1010200002D2A64500F2BB800846A4EB0E0440EABB
:1010300003409CE7C6F12007B34022FA07FC4CEAC4
:10104000030C20FA07F401FA06F31C43F9404FEAB7
:101050001C4900FA06F3B1FBF9F8200C1FFA8CFECC
:1010600009FB181140EA014108FB0EF0884202FA20
:1010700006F20BD91CEB010108F1FF3A80F08880E1
:10108000884240F28580A8F102086144091AA4B29E
:10109000B1FBF9F009FB101144EA014100FB0EFE1F
:1010A0008E4508D91CEB010100F1FF346CD28E454E
:1010B0006AD90238614440EA0840A0FB0294A1EBDF
:1010C0000E01A142C846A64656D353D05DB1B3EB3C
:1010D000080261EB0E0101FA07F722FA06F3F1406C
:1010E0001F43C5E9007100263146BDE8F087C2F113
:1010F0002003D8400CFA02FC21FA03F3914001438B
:101100004FEA1C471FFA8CFEB3FBF7F007FB1036C3
:101110000B0C43EA064300FB0EF69E4204FA02F46F
:1011200008D91CEB030300F1FF382FD29E422DD9C2
:10113000023863449B1B89B2B3FBF7F607FB1633F7
:1011400041EA034106FB0EF38B4208D91CEB010177
:1011500006F1FF3816D28B4214D9023E6144C91AF7
:1011600046EA004638E72E46284605E70646E3E607
:101170001846F8E64B45A9D2B9EB020864EB0C0E11
:101180000138A3E74646EAE7204694E74046D1E720
:10119000D0467BE7023B614432E7304609E76444CE
:1011A000023842E703685A004CBF43F0004323F083
:1011B00000431844704700BF2DE9F84329B34F1E80
:1011C000044615463E464FF0000808EB060101EBC9
:1011D000D171491004EBC1094846FFF7E3FF03460C
:1011E000C80008308F42204409D0AB4209D8FFF72D
:1011F000D9FF0138A8420AD201F10108E5E7AB4264
:1012000005D9884501D04E1EDFE74FF0000948465A
:10121000BDE8F883012807D0022807D0044B002836
:101220000CBF1846002070470248704702487047BC
:10123000ED180008F1180008F518000830B5234B28
:1012400083B004468D1E3BB301A92846AFF300804E
:10125000E8B101992A46FFF7AFFF0146B8B1FFF7A1
:10126000A1FF4B68A064012B2CD0002B01F10400DE
:1012700024DBFFF797FF0023C4E913030368002B67
:1012800011DBFFF78FFF2061002003B030BD00238A
:101290000920236103B030BD0D4B0E49C91AC91096
:1012A00018460191D6E7C3F30360FFF7B3FF0028A8
:1012B000206114BF0020092003B030BD0123C4E920
:1012C0001303DBE7002323610520DEE700000000B5
:1012D000D8CB0008F8CC00080368DA0710B504463C
:1012E00006D49B0700F1480009D500F05BFC236899
:1012F000590709D51A070ED5DB0613D510BD00F026
:1013000049FC23685907F5D404F1D00000F052FCE1
:1013100023681A07F0D404F5A87000F053FC236882
:10132000DB06EBD404F5E870BDE8104000F08EBC9D
:10133000092070470346006800B11844704700BF99
:10134000704700BF70B504460E46316C2046FFF76B
:1013500075FF054688B9326C6261236932462146C1
:10136000012098470828F0D0072806D12846316C7C
:10137000FFF7E6FF301D00F001FC0BF017FA00BF8D
:101380002DE9F0470D1DD0F80C80D0F818900746D5
:1013900014460FCDADF5727D0DF10C0CACE80F00CD
:1013A0000FCDACE80F000FCDACE80F0095E80F00B3
:1013B00002AE4FF0000E8CE80F00C6F800E020E00F
:1013C000336C7B614FF4F07231467AA800F056FE20
:1013D0003B697AAA394650469847889B73642146F0
:1013E000CDE9006905463B463A460120C047044620
:1013F000E0B94FF4F0727AA9304600F03FFE082DB4
:101400001AD1316C3846FFF719FF09345FFA84FAB4
:1014100005460028D4D0B36B73643A46CDE9006921
:101420003B464AF010010120C04700B1092528467B
:101430000DF5727DBDE8F087072DF7D12046316CA0
:10144000FFF77EFF03A800F099FB00BF406C7047D8
:10145000F0B5CB6B0B6401F1040C0E460546BCE8FD
:101460000F00F9B001AC0FC4BCE80F000FC4BCE81A
:101470000F000FC49CE80F004FF0FF3784E80F0007
:10148000009706E02B696A462946984708280446D3
:1014900008D110992846FFF7D1FE0028F2D0092084
:1014A00079B0F0BD6846FFF717FF062CF7D131463B
:1014B0002846FFF747FF00BFC160D96B82611964FE
:1014C000002219465CE700BF70B5C66843690B642B
:1014D000AEB903690A4604460D4601460220984704
:1014E000072805D008280FD129462046FFF72AFFF4
:1014F0003046296CFFF724FF281D00F03FFB012236
:10150000FFF73EFF0BF052F90BF050F9C2681AB129
:10151000CA6B0A64002233E79AE700BF704700BF36
:10152000836801460BB1012018477047012912D08A
:1015300009D873B90F2A0CD800EB820218465368F9
:10154000009A136070470339012994BF01200220DB
:101550007047022070470846704700BF00B585B04D
:101560000A46002303A900911946FFF7DFFF0398FD
:1015700005B05DF804FB00BF012912D009D873B98A
:101580000F2A0CD800EB8200009A126842601846BD
:1015900070470339012994BF0120022070470220BF
:1015A00070470846704700BF10B584B0002303ACF5
:1015B000039200940A461946FFF7DEFF04B010BDFF
:1015C00070B5D36B136402F1040C05460C46BCE8FD
:1015D0000F00ADF50E7D0DF15C0EAEE80F00BCE81E
:1015E0000F00AEE80F00BCE80F00AEE80F009CE86B
:1015F0000F004FF0FF368EE80F00169610E0FFF751
:10160000D3FF214616A8A847034616AA6946082014
:1016100083B9049B9847052806460CD0092809D0B1
:1016200026996846FFF70AFE03466A460C2116A86B
:10163000002BE4D0092616A8FFF74EFE30460DF524
:101640000E7D70BD2DE9F04FCC6C89B01E4654F86C
:10165000043B06940D46174600F00308002E79D08F
:101660001A0C1B0405938DF81D200223D2B204EB43
:1016700082048DF81C302B6DB8F1020F08BFAC6BE3
:1016800013F001030CD005A9384600F079FB18B916
:10169000082009B0BDE8F08F092009B0BDE8F08F3F
:1016A000D4F800A0BAF1000FEDD0019300F00803C8
:1016B0000293022E4AD0B4F800A0B4F80290043489
:1016C000AB6C29F0010B0F2138469B44FFF746FF16
:1016D000834539D82AF001039B44834594BF0020F9
:1016E00001204FEA490303F002030AF0010A43EA2A
:1016F0000A03012B49D0022B32D0002BCCD1B8F1F8
:10170000000F02D0002840F0CD800434D4F800A0AF
:10171000BAF1000FCDD105A9384600F031FB002801
:10172000BAD1019B002BB3D00F213846FFF716FF2B
:101730000E2102463846FFF737FF38466A4A0F2126
:10174000FFF732FF0720A8E70020CAE7D4F804908B
:101750000834B5E71B0205930323ADF81C308AE774
:10176000236823F0004BB8F1000F45D128B1029A4D
:10177000002A5CD0BBF1000F74D0002B00DA0434D7
:101780000BF1010B04EB8B04C0E7B8F1000F19D18A
:10179000B0B163682268991C4FEAD2723FF47CAF03
:1017A00005F158010133049100F09080201DFFF7EE
:1017B000C1FD04AB01462846AFF3008000285BD191
:1017C0000834A3E70D213846D5F82090FFF7C6FE70
:1017D0008145F5D1AB6A9C42F2D12046FFF7E2FC8D
:1017E0000F2102463846FFF7DFFE38462A46002121
:1017F000FFF7DAFE072050E70D213846D5F8209094
:10180000FFF7ACFE814501D02368B6E7AB6A9C4286
:10181000FAD104230022C5E90B23E318C5F828B048
:101820006B632368002B59DB01230193A8E705F1C3
:101830005803CDF80C8004F1040AB04691461E46C8
:101840000EE050460496FFF775FD0022014604ABFA
:10185000284609F101090AF1040AAFF30080E0B952
:10186000D945EED10D213846FFF778FE049BAC62D6
:10187000C5E90803062010E781460D213846FFF729
:101880006DFEB9F1020F286225D12B46049A43F868
:101890002C2F6B62AC620620FFE646462368DDF81B
:1018A0000C806AE72046FFF77DFC04340246AC63F7
:1018B00028461446AFF3008000283FF4EDAE3846CA
:1018C00022460F21FFF770FE0720E6E60D2138467D
:1018D000FFF744FE2862049B6B62DBE70BF101001B
:1018E00004EB80007AE700BF000000000023A9E6B7
:1018F0000123A7E60223A5E62DE9F0430646C3B07F
:1019000015461C46042900F2BF80DFE801F09E570F
:10191000BD2D0300002C40F0B780102A00F2B480E7
:101920000368D80600F1F98020AF384600F098F936
:10193000B46B394600234FF0010C0CFA03F22A4233
:10194000204603F1010303D050F8042B0A6004463B
:10195000042B01F10401F0D13846B46300F076F9AC
:10196000002043B0BDE8F083032C40F08D8094B29A
:1019700004EB1243102B4FEA124500F285800368F6
:101980001F0700F1D28020AF384600F03DF9B26B5E
:1019900007EBC50154B10B46D01A01EBC401E400BA
:1019A0001D5843F8045B8B42FAD122443846B26397
:1019B00000F008F9002043B0BDE8F083012C4FEAA5
:1019C000124895B25CD0052C5ED108EB0509B9F13F
:1019D000200F59D8B8F10F0F79D9A946002D40F042
:1019E0008A80B36B6DB320AF4FF0000907EBC807D7
:1019F000043F03EBC50553F8041B47F8041FAB4233
:101A0000F9D1B9F1000F0FD06F464146102938BF08
:101A1000102107EBC101843903EBC90553F8040B0E
:101A200041F8040FAB42F9D1012C00F08680B8F1E7
:101A30000F0FB56347D9B9F1000F02D0684600F027
:101A4000B9F8002043B0BDE8F083ECB9806B2346C1
:101A50001FFA82FC0124371D04FA03F212EA0C0F6C
:101A6000014604D051F8042B47F8232008460133DF
:101A7000102BF1D115F40055E3D1B063284604E0F2
:101A800008EB0503102B03D9022043B0BDE8F08317
:101A9000B8F10F0FF8D83368DA0706D5304623F0CF
:101AA000030340F8483B00F079F820AF384600F0D7
:101AB00075F8B36B002D97D11D460435B5633846D4
:101AC00000F068F8BDE720A800F06CF8B3E7B9F1C2
:101AD000100F40D9A9F110093368D90708D523F0B0
:101AE0000103304643F0020340F8483B00F05EF843
:101AF000B9F1000F32D033685A0720D4B8F10F0F74
:101B000025D96F463846C8F1100500F057F8002D6A
:101B1000B36B7FF77AAF20AF68E723F01003336031
:101B200006F5E87000F09CF8FEE623F00803036079
:101B300000F5A87000F068F825E720AFBDE7304653
:101B400023F0040340F8D03B00F038F8D6E720A893
:101B500000F02CF8D5E74FF00009BDE7B8F10F0F02
:101B60003FF63FAF20AF384600F020F8B36B002DB2
:101B70007FF43AAF384600F015F862E700F134011F
:101B800091E838009C46A6464CF8045D90E8FF0FAB
:101B9000E54600BD90EC210B704700BF80EC210BA7
:101BA000704700BF90EC200B704700BF80EC200B0B
:101BB000704700BFD0EC200B704700BFC0EC200B7B
:101BC000704700BFF0EC0201F0EC0211F0EC0221D2
:101BD000F0EC0231F0EC0241F0EC0251F0EC026169
:101BE000F0EC0271F0EC0281F0EC0291F0EC02A159
:101BF000F0EC02B1F0EC02C1F0EC02D1F0EC02E149
:101C0000F0EC02F1704700BFE0EC0201E0EC0211E1
:101C1000E0EC0221E0EC0231E0EC0241E0EC0251A8
:101C2000E0EC0261E0EC0271E0EC0281E0EC029198
:101C3000E0EC02A1E0EC02B1E0EC02C1E0EC02D188
:101C4000E0EC02E1E0EC02F1704700BFB0FC018182
:101C5000B0FC0191B0FC01A1B0FC01B1704700BF24
:101C6000A0FC0181A0FC0191A0FC01A1A0FC01B19C
:101C7000704700BFEC4600B52DE900502DE9FF1F6D
:101C80004FF000032DE90C0001A9FFF7E1FBDDF89F
:101C900040E012B0704700BFEC4600B52DE900509F
:101CA0002DE9FF1F4FF000032DE90C0001A9FFF7FC
:101CB0000BFCDDF840E012B0704700BFEC4600B509
:101CC0002DE900502DE9FF1F4FF000032DE90C0016
:101CD00001A9FFF71BFCDDF840E012B0704700BF20
:101CE000EC4600B52DE900502DE9FF1F4FF0000331
:101CF0002DE90C0001ABFFF7DFFBDDF840E012B08F
:101D0000704700BFEC4600B52DE900502DE9FF1FDC
:101D10004FF000032DE90C0001AAFFF751FCDDF89C
:101D200040E012B0704700BF027A03467AB9427AA7
:101D3000A2B14168013A10B44272086803220C1D36
:101D40001A7202025C60000E10BC1A6070470068D4
:101D5000013A1A7202021A60000E7047B0207047F2
:101D600000B585B0002303AA009219460C22FFF7A4
:101D7000DDFB039805B05DF804FB00BFF0E700BF92
:101D80002DE9F043054685B00E464FF00008304679
:101D9000FFF7CAFFB028044600F0BA80070620D536
:101DA00000F0F003802B4DD0902B36D0A02B60D0CC
:101DB000B02B74D0C02B00F08B8000F0F803D02B38
:101DC0000BD100F007020132052342F40022012169
:101DD0002846FFF791FD0028D9D0092005B0BDE8BD
:101DE000F0838300DBB21F1D0DF10C09002319469F
:101DF000CDF800900D222846FFF798FB039BCDF805
:101E0000009060064CBFDF1BFF1800230D2219460F
:101E100028460397FFF7B0FBB9E700F00D030D2B41
:101E2000DBD003AF002300F00F02194600972846CD
:101E3000FFF77CFB002300970D2219462846FFF789
:101E40009BFBA4E73046FFF76FFF24022043B0F569
:101E5000004FC2D004010023A2B219462846FFF762
:101E60004BFD0028B9D114F4004F18BF4FF0010802
:101E70008DE7C24302F007034FF47F621A41010766
:101E800002F47F624FF0000348BF42F480421946DB
:101E90002846FFF731FD00283FF479AF9DE7B128D0
:101EA0003BD0B22800F09380B32841D000F0FC036F
:101EB000B42B92D000F007020132012342F4002239
:101EC00019462846FFF718FD00283FF460AF84E765
:101ED000C6284AD0C72854D000F0F803C02B63D0DE
:101EE000C82868D0C9287FF478AF3046FFF71CFFB8
:101EF000020300F00F0002F47022013002430121BE
:101F000005232846FFF7F8FC00283FF440AF64E7BC
:101F1000B8F1000F18D0002060E73046FFF704FF4B
:101F2000024600283FF459AF10F0F003C8D054E740
:101F30003046FFF7F9FE020300F00F03013302F40D
:101F400070221A430123BBE703AC43460E224146ED
:101F500000942846FFF7EAFA009443460F224146D0
:101F60002846FFF709FB404638E73046FFF7DCFE1E
:101F7000020300F00F03013302F470221A4303231B
:101F80009EE73046FFF7D0FE024600283FF425AF1B
:101F900010F0F0037FF421AF04212846FFF7ACFCDA
:101FA00000283FF4F4AE18E700F00F0201320323DB
:101FB00042F4202284E73046FFF7B6FE00F0F0023C
:101FC00000F00F031032013343EA023297E7002397
:101FD0000DF10C090D221946CDF800902846FFF7A7
:101FE000A5FA3046FFF7A0FE02064FF002040CD51A
:101FF000039B00F07F00A040184403903046FFF799
:1020000093FE030604F10704F2D4039BCDF800907D
:1020100000F07F02A24003F501731A4400230392EB
:1020200019460D222846FFF7A7FAB0E610B5C26C94
:10203000536884B04FF0030C08321C0208461B0E94
:1020400001A9019402928DF80CC08DF80D30FFF7B4
:1020500097FE04B010BD00BF08B5FFF78FFE806C7F
:1020600008BD00BF08B5FFF789FEC06CC379023315
:1020700000EB830008BD00BF704700BF844641EA03
:10208000000313F003036DD1403A41D351F8043BF0
:1020900040F8043B51F8043B40F8043B51F8043B42
:1020A00040F8043B51F8043B40F8043B51F8043B32
:1020B00040F8043B51F8043B40F8043B51F8043B22
:1020C00040F8043B51F8043B40F8043B51F8043B12
:1020D00040F8043B51F8043B40F8043B51F8043B02
:1020E00040F8043B51F8043B40F8043B51F8043BF2
:1020F00040F8043B51F8043B40F8043B51F8043BE2
:1021000040F8043B51F8043B40F8043B403ABDD250
:10211000303211D351F8043B40F8043B51F8043BF2
:1021200040F8043B51F8043B40F8043B51F8043BB1
:1021300040F8043B103AEDD20C3205D351F8043B81
:1021400040F8043B043AF9D2043208D0D2071CBF4D
:1021500011F8013B00F8013B01D30B880380604676
:10216000704700BF082A13D38B078DD010F00303EC
:102170008AD0C3F10403D21ADB071CBF11F8013B5C
:1021800000F8013B80D331F8023B20F8023B7BE7AB
:10219000043AD9D3013A11F8013B00F8013BF9D2D6
:1021A0000B7803704B7843708B7883706046704770
:1021B00070B52DED028B1B049DF8180043EA0063F7
:1021C00043EA022241EA0200002A33DA9FED1E8A26
:1021D000C0F3C7567F3EC0F316000021FEF724FE71
:1021E00006EE900A9FED197AC6EE877AB7EE007A6E
:1021F00077EE877AB8EEC88A68EE277A17EE900AEB
:10220000FEF7EAF904460D463046FEF7D3F941ECF5
:10221000110B9FED0B0B09F0EBFA53EC102B204642
:102220002946FEF731FAFEF7DFFC00EE100ABDEC9E
:10223000028B70BD9FED068ACAE700BFAFF3008036
:102240000000000000000040FFFFFFFFFEFFFF4A0C
:102250000100000030B583B004460D4690F81131FE
:10226000002B00F0A480002304E0E95CE21882F86F
:1022700040100133372BF8DD94F84A30009394F87E
:10228000493094F8482094F847102046FFF790FF13
:1022900084ED2D0A94F84E30009394F84D3094F864
:1022A0004C2094F84B102046FFF782FF84ED2E0A55
:1022B00094F85230009394F8513094F8502094F8E8
:1022C0004F102046FFF774FF84ED2F0A94F8563024
:1022D000009394F8553094F8542094F85310204605
:1022E000FFF766FF84ED300A94F85A30009394F8B3
:1022F000593094F8582094F857102046FFF758FFAB
:1023000084ED310A94F85E30009394F85D3094F8CF
:102310005C2094F85B102046FFF74AFF84ED320AF8
:1023200094F86230009394F8613094F8602094F847
:102330005F102046FFF73CFF84ED330A94F86630C7
:10234000009394F8653094F8642094F86310204664
:10235000FFF72EFF84ED340A94F86A30009394F866
:10236000693094F8682094F867102046FFF720FF42
:1023700084ED350A94F86E30009394F86D3094F83B
:102380006C2094F86B102046FFF712FF84ED360A9C
:10239000D4F8C430C4F8F830D4F8C030C4F8F430FD
:1023A000D4F8C830C4F8FC30002384F8113194F814
:1023B00010313BB3002302E0EA5CE2540133372BD7
:1023C000FADDA37D0093637D227DE17C2046FFF74B
:1023D000EFFE84ED370AA37E0093637E227EE17DCB
:1023E0002046FFF7E5FE84ED380AA37F0093637F64
:1023F000227FE17E2046FFF7DBFE84ED390A0023D1
:1024000084F8103103B030BD70470000012800D0BF
:10241000704708B54FF6FF73994200D008BD054AD2
:102420000549064809F0DEF90323002BF6DB013BE2
:10243000FBE700BF00000024092400086804002412
:1024400008B54FF6FF710120FFF7E0FF08BD00005F
:1024500008B50648036810221A621A6842F0100292
:102460001A606422024907F09FFA08BDA0140024F4
:102470009C09002408B5FFF7EBFF054805F018FF9D
:1024800007F056FB00F002FF07F064FBFEE700BF19
:102490005810002431EE601A30EE600A01238340A8
:1024A000013B07EE903AF8EEE77A60EE277A87EE86
:1024B000817AFDEEC77A17EE900A70472DE9F04F4A
:1024C0002DED048B83B080468946F0EE609AB0EE25
:1024D000419AF0EE618AB0EE428A1020B2EE091AFB
:1024E000FAEE090AFFF7D6FF82461FFA80FB0C209E
:1024F000B3EE0E1AFBEE0E0AB0EE690AFFF7CAFF42
:1025000087B2DFED239A0C209FED221AF0EE690AC4
:10251000B0EE490AFFF7BEFF064684B20C20B1EECA
:10252000041AF0EE690AB0EE680AFFF7B3FF85B24D
:102530000C20B2EE041AFAEE040AB0EE480AFFF7D5
:10254000A9FF4FEA1B2B8DF800B08DF801A03B09C5
:102550008DF80230240A44EA07148DF803408DF800
:1025600004602B098DF80530C0F3072343EA0515F5
:102570008DF806508DF8070008236A464946404604
:1025800000F08EFA03B0BDEC048BBDE8F08F00BF05
:10259000000000000000FA4300B583B0FF238DF86F
:1025A00000308DF801308DF802308DF803308DF851
:1025B00004308DF805308DF80630FC238DF8073097
:1025C00008236A4600F06CFA03B05DF804FB0000D3
:1025D00070B5224B1B68032B02DD204B00221A60D2
:1025E0001E4D29681E4C4C2606FB0143013193ED1C
:1025F000022AD3ED041A93ED031AD3ED000A93EDEA
:10260000010A89B21748FFF759FF296806FB014301
:10261000053193ED022AD3ED041A93ED031AD3ED9D
:10262000000A93ED010A89B20F48FFF747FF2968B6
:1026300006FB0143093193ED022AD3ED041A93ED11
:10264000031AD3ED000A93ED010A89B20748FFF798
:1026500035FF2B6801332B6070BD00BFC004002420
:10266000C4040024D40D0024740E0024140F00248C
:1026700070B500261AE0ACB2611C89B20E48FFF7B3
:102680008BFF611D89B20D48FFF786FF04F1090138
:1026900089B20B48FFF780FF0A2001F095FC013555
:1026A000032DE8DD0A2001F08FFC0136312E01DC1C
:1026B0000025F5E770BD00BFD40D0024740E002482
:1026C000140F002400210AE0064B4C2202FB0133C8
:1026D00000225A601A60DA601A619A6001310B298F
:1026E000F2DD7047C404002408B500F063FB08BDA8
:1026F0002DE9F04105460E46002409E0234800F18B
:102700007801FFF7A7FD3B78FC2B1ED00134E4B223
:10271000B44239D2A0462F192B5DFC2BF3D17B7824
:10272000412BF0D197F83730FD2BECD1174B01221C
:1027300083F811210023372BE0DCE218A95C134A4F
:102740001A4482F878100133F5E705EB08035B784B
:10275000402BDBD1A84498F83F30FD2BD6D10B4B52
:10276000012283F81021002306E0E218A95C074A41
:102770001A4482F8781001333F2BF6DD034800F14C
:102780007801FFF767FDC1E7BDE8F0815408002438
:1027900008B5FFF7ADFF154AD2F8F810144B1960D1
:1027A000D2F8F4105960D2F8FC109960D2F8B81041
:1027B000D960D2F8B4101961D2F8BC105961D2F8BE
:1027C000CC109961D2F8D010D961D2F8D410196226
:1027D000D2F8D8105962D2F8DC109962D2F8E01021
:1027E000D962D2F8E4201A6308BD00BF540800245F
:1027F000E00C002410B50468236843F01003236044
:1028000007F0D2F810BD0000F8B51E46C36E03B144
:10281000F8BD04460F461546036810221A6206F0FA
:10282000B9F83B682C492D4A934218BF8B422DD0F2
:10283000183293422AD01832934227D0183293424A
:1028400024D01832934221D0183293421ED018322D
:1028500093421BD002F55672934217D0183293421E
:1028600014D01832934211D0183293420ED018323D
:1028700093420BD01832934208D01832934205D0BD
:102880001832934202D05F68FFB201E05F68FFB286
:10289000F71BFFB2124B9C4213D0124B9C4202D04A
:1028A000114B9C4212D03A460021284609F0B6FF4F
:1028B000204606F03DF932462946204607F074F8D6
:1028C000A6E739462846FFF70FFFECE722463946D0
:1028D0002846FFF75DFFE6E71000024028000240AF
:1028E0000C14002434150024A0140024002380F8C4
:1028F00084300368DA6912F0080F08D008221A62DF
:102900000368DA695A6A1A6842F010021A6070475E
:10291000F0B58BB00024029403940225049501269F
:10292000059606940794414F02A9384603F0D0F962
:10293000009423462A462946384603F00DFA3246CB
:102940003146384603F023FA029403940495059522
:102950000694079402A9384603F0BAF90094234676
:102960002A462946384603F0F7F9324629463846C2
:1029700003F00DFA029403940495059606940794C7
:102980002B4F02A9384603F0A3F9009423462A46A8
:102990002946384603F0E0F932463146384603F01E
:1029A000F6F902940394049505950694079402A9F8
:1029B000384603F08DF9009423462A4629463846C6
:1029C00003F0CAF932462946384603F0E0F902948A
:1029D00003940495059606940794164F02A9384669
:1029E00003F076F9009423462A462946384603F038
:1029F000B3F932463146384603F0C9F902940394DC
:102A0000049505950694079402A9384603F060F9E9
:102A1000009423462A462946384603F09DF932465B
:102A20002946384603F0B3F90BB0F0BDD40D0024AD
:102A3000740E0024140F002470B5FFF769FF154EC3
:102A4000304603F0D3F9144D284603F0CFF9134C68
:102A5000204603F0CBF900220121304603F010FBA1
:102A600000220121284603F00BFB00220121204611
:102A700003F006FB00221021304603F001FB002288
:102A80001021284603F0FCFA00221021204603F012
:102A9000F7FA70BDD40D0024740E0024140F002426
:102AA00000B58BB00191002102910391049305912F
:102AB000069107910891099101A903F0B1F900B1BC
:102AC00001200BB05DF804FB70B58AB005460E46D8
:102AD000144613466A46402103F0DEF910B1002087
:102AE0000AB070BD23466A464121284603F0D4F956
:102AF0000028F4D1009B33809DF80E00F0E7000021
:102B000000B583B0044A0DF106010448FFF7DCFF6D
:102B100003B05DF804FB00BF640A0024D40D002458
:102B200000B583B0044A0DF106010448FFF7CCFF5D
:102B300003B05DF804FB00BF6C0A0024740E00248F
:102B400000B583B0044A0DF106010448FFF7BCFF4D
:102B500003B05DF804FB00BF740A0024140F0024C6
:102B600011F0010F14D010B504460A4B984206D05C
:102B7000094B9C4206D0094B9C4206D010BDFFF782
:102B8000BFFFF5E7FFF7CCFFF5E7FFF7D9FFF5E764
:102B9000704700BFD40D0024740E0024140F0024CD
:102BA00011F0100F14D010B504460A4B984206D00D
:102BB000094B9C4206D0094B9C4206D010BDFFF742
:102BC0009FFFF5E7FFF7ACFFF5E7FFF7B9FFF5E784
:102BD000704700BFD40D0024740E0024140F00248D
:102BE00038B505460B4CCC220B492046FFF746FA78
:102BF000002384F8C83084F8C930802384F8CA30B0
:102C00007F2384F8CB30D0222146284605F074FE7D
:102C100038BD00BF140C0024E00C002482B0002357
:102C20000AE0D91C184A0A44117903F108026A44DF
:102C300002F8041C0133DBB2032BF2D90138062859
:102C400008D8DFE800F004090D1115191D00019ADC
:102C50000E4B1A6002B07047019A0C4B5A60F9E7AC
:102C6000019A0A4B9A60F5E7019A084BDA60F1E79E
:102C7000019A064B1A61EDE7019A044B5A61E9E7A4
:102C8000019A024B9A61E5E7FC0B00247C0B0024BF
:102C900082B000230AE0D91C1A4A0A44117903F1D0
:102CA00008026A4402F8041C0133DBB2032BF2D998
:102CB0000138072808D8DFE800F004090D111519BC
:102CC0001D21019A104B1A6002B07047019A0E4BF9
:102CD0005A60F9E7019A0C4B9A60F5E7019A0A4BA2
:102CE000DA60F1E7019A084B1A61EDE7019A064BA9
:102CF0005A61E9E7019A044B9A61E5E7019A024BB0
:102D0000DA61E1E7FC0B00247C0A002482B0002396
:102D10000AE0D91C114A0A44117903F108026A44F5
:102D200002F8041C0133DBB2032BF2D9013803286B
:102D300006D8DFE800F002070B0F019A084B1A6073
:102D400002B07047019A064B5A60F9E7019A044BAA
:102D50009A60F5E7019A024BDA60F1E7FC0B002478
:102D6000FC0A002484B008B50DF1080C8CE80F00B3
:102D70000F4B1B79FE2B03D0BDE8084004B0704711
:102D80000B4B5B79EF2BF7D1094B9879030900F0D6
:102D90000F00012B06D0022B07D0002BECD1FFF740
:102DA0003DFFE9E7FFF774FFE6E7FFF7AFFFE3E773
:102DB000FC0B0024F0B583B006460D46002407E066
:102DC0001E4B1A785A709B78142B21D80134E4B228
:102DD000AC4230D2315D194B19709A78501C987002
:102DE0001A4411713222DA705B78ED2BE8D1DE29BA
:102DF000E6D1124F07F1100393E803008DE80300BA
:102E000097E80F00FFF7AEFF00237B70BB70D7E79A
:102E10000A4B00229A7005E0084AD1180020087178
:102E200001339370054B9B78132BF5D9034B00228C
:102E30005A709A70CAE703B0F0BD00BFFC0B0024C3
:102E400000B583B0254BD3F8D82042F00202C3F876
:102E5000D820D3F8D82002F002020092009AD3F8CA
:102E6000D82042F00102C3F8D820D3F8D83003F0BC
:102E700001030193019B002211460B2001F0CAF8C7
:102E80000B2001F0FDF8002205210C2001F0C2F812
:102E90000C2001F0F5F8002211460D2001F0BAF8DF
:102EA0000D2001F0EDF8002205210E2001F0B2F80E
:102EB0000E2001F0E5F8002205213A2001F0AAF8E1
:102EC0003A2001F0DDF8002211463C2001F0A2F882
:102ED0003C2001F0D5F803B05DF804FB0044025833
:102EE00010B51648164B036000238360C36003745B
:102EF00043748374032444610A2282611D21C161E9
:102F0000026244628262C16202634363012282639D
:102F1000C36320210164042242648164C2640365A6
:102F200042658365C36501664366826602F086FD7D
:102F300000B910BD00F04AFAFBE700BFD40D002431
:102F400000A0004010B51748174B036000238360B2
:102F5000C360037443748374032444610A2282614E
:102F60001D21C161026244628262C162026340F655
:102F70005302426301228263C3632021016404225D
:102F800042648164C264036542658365C36501660A
:102F90004366826602F052FD00B910BD00F016FAD9
:102FA000FBE700BF740E002400A4004010B51748D2
:102FB000174B036000238360C360037443748374FE
:102FC000032444610A2282611D21C16102624462BC
:102FD0008262C162026340F2AA624263012282639A
:102FE000C36320210164042242648164C2640365D6
:102FF00042658365C36501664366826602F01EFD15
:1030000000B910BD00F0E2F9FBE700BF140F002487
:1030100000D4004030B5BBB0044600213591369154
:10302000379138913991B82206A809F0F7FB236847
:103030007B4A934208D07B4A934253D07A4A9342C8
:1030400000F09E803BB030BD4FF400420023CDE93C
:1030500006234FF08053219306A804F0E7F980BBC4
:10306000724A136801331360012B2DD0704BD3F8D3
:10307000E02042F00802C3F8E020D3F8E03003F08B
:1030800008030193019B0323359302233693002405
:10309000379438940923399335A9664803F0D6F953
:1030A00022460521132000F0B5FF132000F0E8FFB1
:1030B00022460521152000F0ADFF152000F0E0FFAD
:1030C000C0E700F083F9CBE7594BD3F8EC2042F48A
:1030D0008072C3F8EC20D3F8EC3003F480730093D3
:1030E000009BC3E74FF400420023CDE906234FF0D5
:1030F0008053219306A804F099F980BB4B4A1368CA
:1031000001331360012B2DD0494BD3F8E02042F05E
:103110000202C3F8E020D3F8E03003F00203039387
:10312000039B60233593022336930024379438940D
:103130000923399335A9404803F088F9224605212F
:10314000142000F067FF142000F09AFF22460521AA
:10315000162000F05FFF162000F092FF72E700F0EB
:1031600035F9CBE7324BD3F8EC2042F48072C3F848
:10317000EC20D3F8EC3003F480730293029BC3E796
:103180004FF400420023CDE906234FF080532193F2
:1031900006A804F04BF988BB244A13680133136076
:1031A000012B2ED0224BD3F8E02042F00802C3F8C6
:1031B000E020D3F8E03003F008030593059B4FF4BB
:1031C00040533593022336930024379438940525D1
:1031D000399535A9174803F039F9224629469F2029
:1031E00000F018FF9F2000F04BFF22462946A02048
:1031F00000F010FFA02000F043FF23E700F0E6F806
:10320000CAE70B4BD3F8EC2042F48072C3F8EC20F1
:10321000D3F8EC3003F480730493049BC2E700BF3F
:1032200000A0004000A4004000D40040D00D0024C5
:1032300000440258000C02580004025808B501204E
:1032400006F002FDFBE7000008B5642205490648C8
:10325000FFF7D0FA33210548FFF7C2FC0A2006F039
:10326000F3FCF7E79C090024A01400240C140024AC
:1032700008B5FFF7E1FBFFF7FBF9FFF723FAFFF7CC
:10328000A7F90A2006F0E0FCF9E7000008B50B4AB0
:1032900000210B4806F07AFC0A4B18600A4A00210C
:1032A0000A4806F073FC0A4B18600A4A00210A48D3
:1032B00006F06CFC094B186008BD00BFF4CA00089A
:1032C0003D320008BC0F0024D0CA00084932000873
:1032D000B80F0024ACCA000871320008B40F0024F3
:1032E00030B58DB000240794089409940A940B9487
:1032F0002E4BD3F8E02042F01002C3F8E020D3F8C0
:10330000E02002F010020192019AD3F8E02042F08E
:103310000402C3F8E020D3F8E02002F00402029295
:10332000029AD3F8E02042F08002C3F8E020D3F8FC
:10333000E02002F080020392039AD3F8E02042F0EA
:103340000802C3F8E020D3F8E02002F0080204925B
:10335000049AD3F8E02042F00102C3F8E020D3F849
:10336000E02002F001020592059AD3F8E02042F035
:103370000202C3F8E020D3F8E03003F00203069322
:10338000069B0B4D01224FF46041284603F068F97B
:103390004FF4604307930123089309940A9407A903
:1033A000284603F053F80DB030BD00BF004402586A
:1033B0000008025808B50268034B9A4200D008BDC5
:1033C00000F0F0FDFBE700BF000C004072B6FEE726
:1033D00000B59DB04C22002109A809F01FFA202257
:1033E000002101A809F01AFA022003F03FF9002396
:1033F0000093204B9A6922F440429A619B6903F43E
:1034000040430093009B1B4B9B6913F4005FFAD071
:10341000012209924FF480330A93022312931393EB
:1034200014932821159116920422179218930C23B5
:10343000199300231A931B9309A803F041F9A8B923
:103440003F23019303210291002303930823049354
:103450004023059306934FF480620792089301A8D6
:1034600003F01EFD20B91DB05DF804FBFFF7AEFFB1
:10347000FFF7ACFF0048025808B500F065FDFFF704
:10348000A7FFFFF72DFFFFF7DBFC00F02BFB00F0A1
:103490005DFB00F0F3FA00F0ABF900F0D3F900F0B7
:1034A000FBF900F035FAFFF71BFDFFF74BFDFFF7C7
:1034B0007DFDFEF7DFFF06F03BFBFFF7E7FE06F0C2
:1034C00049FBFEE700B583B00A4BD3F8F42042F085
:1034D0000202C3F8F420D3F8F43003F0020301939E
:1034E000019B00220F216FF0010000F093FD03B05B
:1034F0005DF804FB004402580F2801D901207047F1
:1035000010B58AB0044600220146322000F082FD48
:10351000322000F0B5FD1A4B1C601A4BD3F8E8209E
:1035200042F00802C3F8E820D3F8E83003F00803BB
:103530000093009B01A902A803F042FE079BBBB9C0
:1035400003F01AFE03461048A0FB03239B0C013B2B
:103550000E480F4A026040F2E732C2604360002327
:103560000361836005F04EF830B101200AB010BD50
:1035700003F002FE4300E6E7044804F099FEF5E795
:10358000100000240044025883DE1B43C00F0024B7
:10359000000C0040FEE7FEE7FEE7FEE7FEE77047AF
:1035A00008B5024801F07CFD08BD00BF1C130024D3
:1035B00008B5024801F074FD08BD00BF9413002453
:1035C00008B5024801F06CFD08BD00BF3C110024A5
:1035D00008B5024801F064FD08BD00BFB411002425
:1035E00008B5024802F0A4FD08BD00BFD40D0024B8
:1035F00008B5024802F09CFD08BD00BF740E00240F
:1036000008B5024802F094FD08BD00BFD40D0024A7
:1036100008B5024802F08CFD08BD00BF740E0024FE
:1036200010B5054C204605F083FA3223034A0449BD
:103630002046FFF7E9F810BD0C14002468090024A7
:103640001C13002408B5034804F086FE024804F069
:1036500083FE08BDF01000240C10002408B50248B9
:1036600004F07AFE08BD00BFF010002408B502483F
:1036700004F072FE08BD00BFC00F002408B5024868
:1036800004F06AFE08BD00BF5810002408B50248C7
:1036900004F062FE08BD00BFA410002408B5024873
:1036A00001F0FEFC08BD00BFA412002408B50248CA
:1036B00001F0F6FC08BD00BF2C12002410B5054C2B
:1036C000204605F035FA6423034A04492046FFF7F3
:1036D0009BF810BD34150024000A00243C1100247E
:1036E00010B5054C204605F023FA6423034A04492B
:1036F0002046FFF789F810BDA01400249C0900247F
:103700002C12002408B5024802F012FD08BD00BFCB
:10371000140F002408B5024802F00AFD08BD00BFDE
:10372000140F00240120704708B509F04DF8162346
:1037300003604FF0FF3008BD08B54FF0FF31FFF7D1
:10374000F3FFFEE7224AD2F8883043F47003C2F850
:103750008830204B1B6803F00F03062B06D81D4A48
:10376000136823F00F0343F0070313601A4B1A6822
:1037700042F001021A6000221A611968174A0A40D1
:103780001A60144B1B6813F0080F06D0114A136817
:1037900023F00F0343F0070313600F4B00229A61DD
:1037A000DA611A620E4999620E49D9620E491963AB
:1037B0005A639963DA6319645A64196821F48021A1
:1037C00019601A66094B43F2D2021A60704700BFB3
:1037D00000ED00E000200052004402587FEDF6EAC0
:1037E000000202020000FF018002010100400052BD
:1037F00000B585B000230193029303930F48104A4C
:10380000026040F2DF124260836040F2CF73C36017
:103810008023836104F0F6FE50B9002301930393E3
:1038200001A9064804F0C8FF28B905B05DF804FBFB
:10383000FFF7CCFDF1E7FFF7C9FDF6E758100024CC
:103840000010004000B585B000230193029303935C
:103850000F48104A026040F2DF124260836040F27B
:10386000CF73C3608023836104F0CCFE50B9002382
:103870000193039301A9064804F09EFF28B905B0FF
:103880005DF804FBFFF7A2FDF1E7FFF79FFDF6E708
:10389000A41000240014004000B589B00023049354
:1038A0000593069307930193029303931648174ACF
:1038B000026040F2DF124260836040F2F312C260A5
:1038C00003614361836104F09DFE98B94FF4805316
:1038D000049304A90C4804F0D3FE70B900230193AB
:1038E0000293039301A9084804F066FF40B909B0A8
:1038F0005DF804FBFFF76AFDE8E7FFF767FDEDE71A
:10390000FFF764FDF3E700BFF0100024000401405E
:1039100000B589B0002304930593069307930193A0
:10392000029303931548164A026040F2DF12426088
:10393000836040F2E732C2600361836104F062FE9B
:1039400090B94FF48053049304A90C4804F098FEF6
:1039500068B900230193039301A9084804F02CFFE0
:1039600040B909B05DF804FBFFF730FDE9E7FFF768
:103970002DFDEEE7FFF72AFDF3E700BF0C10002452
:103980000018004000B585B00368374A93420BD059
:10399000364A93421ED0364A934231D0354A93423A
:1039A0004CD005B05DF804FB334BD3F8E82042F06F
:1039B0001002C3F8E820D3F8E83003F010030093B6
:1039C000009B00220521362000F024FB362000F069
:1039D00057FBE6E7284BD3F8E82042F02002C3F873
:1039E000E820D3F8E83003F020030193019B002284
:1039F0000521372000F00EFB372000F041FBD0E717
:103A00001D4BD3F8F02042F00202C3F8F020D3F8A7
:103A1000F03003F002030293029B002205212B20C9
:103A200000F0F8FA2B2000F02BFB002205212C20BF
:103A300000F0F0FA2C2000F023FBB2E70E4BD3F895
:103A4000E82042F04002C3F8E820D3F8E83003F061
:103A500040030393039B002205212B2000F0DAFA98
:103A60002B2000F00DFB9CE70010004000140040EC
:103A700000040140001800400044025808B51748EF
:103A8000174B03604FF4E133436000238360C3604E
:103A900003610C2242618361C361036243628362FA
:103AA00005F0F7FE70B900210C4805F0EBFF60B996
:103AB00000210A4806F00BF850B9084805F0C3FF8A
:103AC00048B908BDFFF782FCEDE7FFF77FFCEFE7A1
:103AD000FFF77CFCF1E7FFF779FCF2E734150024EF
:103AE0000078004008B51748174B03604FF4E133E6
:103AF000436000238360C36003610C2242618361E1
:103B0000C36103624362836205F0C3FE70B90021A2
:103B10000C4805F0B7FF60B900210A4805F0D7FF4F
:103B200050B9084805F08FFF48B908BDFFF74EFCB3
:103B3000EDE7FFF74BFCEFE7FFF748FCF1E7FFF796
:103B400045FCF2E70C1400240010014008B51748AA
:103B5000174B03604FF46123436000238360C3600D
:103B600003610C2242618361C36103624362836229
:103B700005F08FFE70B900210C4805F083FF60B995
:103B800000210A4805F0A3FF50B9084805F05BFF83
:103B900048B908BDFFF71AFCEDE7FFF717FCEFE7A0
:103BA000FFF714FCF1E7FFF711FCF2E7A014002483
:103BB000001C0140F0B5BBB00446002135913691A0
:103BC000379138913991B82206A808F027FE23686A
:103BD000764A934208D0764A934276D0754A934209
:103BE00000F000813BB0F0BD02220023CDE90623A6
:103BF00006A803F01BFC00285ED16F4BD3F8E82029
:103C000042F08042C3F8E820D3F8E82002F0804276
:103C10000092009AD3F8E02042F01002C3F8E020AE
:103C2000D3F8E03003F010030193019B4FF4C0730D
:103C3000359302233693002537953895072339931A
:103C400035A95E4802F002FC5D485E4B03604F23DD
:103C500043608560C5604FF48063036145618561A1
:103C6000C5614FF480330362456200F02BFC30BB2A
:103C7000534BC4F880309C635348544B036050232B
:103C80004360402383600023C3604FF4806202617D
:103C900043618361C3610362436200F013FC88B92E
:103CA000494BE3679C6300220521522000F0B2F9E2
:103CB000522000F0E5F995E7FFF788FB9DE7FFF755
:103CC00085FBD5E7FFF782FBEAE701220023CDE978
:103CD000062306A803F0AAFB00285ED1364BD3F8D2
:103CE000F02042F01002C3F8F020D3F8F02002F0E8
:103CF00010020292029AD3F8E02042F00102C3F8C7
:103D0000E020D3F8E03003F001030393039B4FF46A
:103D1000C0633593022336930025379538950723E2
:103D2000399335A92A4802F091FB2A482A4B0360AF
:103D3000292343608560C5604FF48063036145615A
:103D40008561C5614FF400330362456200F0BAFB40
:103D500030BB204BC4F880309C632048204B03606C
:103D60002A234360402383600023C3604FF48062B2
:103D7000026143618361C3610362436200F0A2FB9D
:103D800088B9164BE3679C6300220521252000F0CB
:103D900041F9252000F074F924E7FFF717FB9DE7B0
:103DA000FFF714FBD5E7FFF711FBEAE700780040C7
:103DB00000100140001C014000440258001002584D
:103DC0003C11002440000240B4110024580002407D
:103DD000000002581C130024100002409413002419
:103DE0002800024001220023CDE9062306A803F0A3
:103DF0001DFB002868D1394BD3F8F02042F0800237
:103E0000C3F8F020D3F8F02002F080020492049A64
:103E1000D3F8E02042F01002C3F8E020D3F8E030FD
:103E200003F010030593059B04233593022736976F
:103E30000025379538953993294E35A9304602F03B
:103E400005FB082335933697379538950B2339931F
:103E500035A9304602F0FAFA2248234B0360762354
:103E600043608560C5604FF480630361456185618F
:103E7000C5614FF440330362456200F023FB30BB61
:103E8000184BC4F880309C631848194B03607723A3
:103E90004360402383600023C3604FF4806202616B
:103EA00043618361C3610362436200F00BFB88B925
:103EB0000E4BE3679C63002205219C2000F0AAF8CA
:103EC0009C2000F0DDF88DE6FFF780FA93E7FFF71E
:103ED0007DFAD5E7FFF77AFAEAE700BF0044025817
:103EE000001002582C12002470040240A412002476
:103EF00040040240DFF834D0FFF724FC0C480D49A1
:103F00000D4A002302E0D458C4500433C4188C4234
:103F1000F9D30A4A0A4C002301E013600432A2429A
:103F2000FBD308F057FCFFF7A7FA70470000052401
:103F3000000000244C04002408CD00084C04002498
:103F4000245F0024FEE7000010B5032000F050F8C5
:103F500002F0ACFE0F498B69C3F303230E4AD35C16
:103F600003F01F03D8408B6903F00F03D35C03F009
:103F70001F0320FA03F3094A1360094B18600F204E
:103F8000FFF7BAFA10B10124204610BD0446FFF72E
:103F900099FAF9E70044025818CB000808000024F9
:103FA00004000024034B1B78034A11680B44136080
:103FB000704700BF0C000024C8150024014B18688E
:103FC000704700BFC815002438B50446FFF7F6FF58
:103FD0000546B4F1FF3F02D0044B1B781C44FFF7A9
:103FE000EDFF401BA042FAD338BD00BF0C000024F7
:103FF0000649CB6823F4E0631B041B0C000200F4A9
:10400000E0600343024A1A43CA60704700ED00E0D3
:104010000000FA0500B5174BDB68C3F30223C3F1B8
:10402000070CBCF1040F28BF4FF0040C03F1040E81
:10403000BEF1060F14D9033B4FF0FF3E0EFA0CFC05
:1040400021EA0C0199400EFA03F322EA0303194313
:10405000002807DB0901C9B2074B19545DF804FBBE
:104060000023E9E700F00F000901C9B2034B19541E
:10407000F4E700BF00ED00E000E400E014ED00E034
:10408000002807DB00F01F02400901239340024A89
:1040900042F82030704700BF00E100E0F0B4876DC7
:1040A0000468664E664DAC4218BFB44242D0183523
:1040B000AC423FD01835AC423CD01835AC4239D078
:1040C0001835AC4236D01835AC4233D01835AC4236
:1040D00030D005F55675AC422CD01835AC4229D0FD
:1040E0001835AC4226D01835AC4223D01835AC4236
:1040F00020D01835AC421DD01835AC421AD0183536
:10410000AC4217D04F4DAC4214D01435AC4211D054
:104110001435AC420ED01435AC420BD01435AC4241
:1041200008D01435AC4205D01435AC4202D0143559
:10413000AC4207D1446E856E6560C46E14B1046FE5
:10414000456F656004683D4E3D4DAC4218BFB442BA
:1041500052D01835AC424FD01835AC424CD018353F
:10416000AC4249D01835AC4246D01835AC4243D0A9
:104170001835AC4240D005F55675AC423CD01835E8
:10418000AC4239D01835AC4236D01835AC4233D0B9
:104190001835AC4230D01835AC422DD01835AC4271
:1041A0002AD01835AC4227D0264E274DAC4218BF36
:1041B000B44211D0254DAC420ED01435AC420BD0D8
:1041C0001435AC4208D01435AC4205D01435AC429D
:1041D00002D01435AC4224D1C46D04F01F05012473
:1041E000AC407C60046863608368402B20D0036827
:1041F00099600368DA6014E0C46D04F01F0C3F247A
:1042000004FA0CF4BC6005682C6824F480242C604B
:10421000046863608368402B05D003689960036875
:10422000DA60F0BC704703689A600368D960F8E709
:1042300003689A600368D960F3E700BF100002408A
:1042400028000240085402581C54025830540258A6
:1042500003682749274A934218BF8B422FD0183250
:1042600093422CD01832934229D01832934226D050
:104270001832934223D01832934220D018329342FE
:104280001DD002F55672934219D01832934216D0BF
:104290001832934213D01832934210D018329342FE
:1042A0000DD0183293420AD01832934207D01832F8
:1042B000934204D023F0FF038365806D704710B4F0
:1042C000D9B210390C4AA2FB0142C2F302120B4CC4
:1042D000A25CC2655F2907D9094A1A400432826587
:1042E000806D5DF8044B7047054A1A408265F7E718
:1042F0001000024028000240ABAAAAAA28CB00085E
:1043000000FCFFFF83699BB9836A012B0AD0022B53
:1043100002D00BB100207047C36A13F0807F2AD10E
:1043200000207047C36AB3F1C07F26D000207047D9
:10433000B3F5005F0AD0836A022B26D9032B26D15E
:10434000C36A13F0807F24D100207047836A032B57
:1043500003D8DFE803F01404140A00207047C36A8E
:1043600013F0807F0DD100207047C36AB3F1C07F86
:1043700009D00020704701207047012070470120BC
:1043800070470120704701207047012070470020CE
:10439000704701207047000003682249224A934277
:1043A00018BF8B4228D01432934225D01432934246
:1043B00022D0143293421FD0143293421CD01432B4
:1043C000934219D01432934216D0DAB2103A1749F8
:1043D000A1FB0212120916491944A8291FD9154B2D
:1043E00013449B000366144B436602F01F02012333
:1043F00003FA02F282667047DBB2083B0F4AA2FB67
:1044000003230F4A02EB1312920002660D4A426622
:10441000C3F30413012202FA03F3836670470832E0
:10442000DDE700BF085402581C540258ABAAAAAAE0
:10443000F0FBFDBF0082001080080240CDCCCCCC48
:10444000009600168058025801794A1E072A2CD877
:1044500030B40368154D164CA34218BFAB4218D0B8
:104460001434A34215D01434A34212D01434A342FE
:104470000FD01434A3420CD01434A34209D0143406
:10448000A34206D00B4B0B449B00C3660A4B036749
:1044900005E00A4B0B449B00C366094B03670123ED
:1044A00003FA02F2426730BC704770470854025862
:1044B0001C5402583F820010400902403F960016EB
:1044C0004059025870B50446FFF778FD002C00F003
:1044D000B381054623685349534A934218BF8B4220
:1044E0000CBF0122002250D030318B424DD0183108
:1044F0008B424AD018318B4247D018318B4244D07E
:1045000018318B4241D018318B423ED001F55671A3
:104510008B423AD018318B4237D018318B4234D08D
:1045200018318B4231D018318B422ED018318B424A
:104530002BD018318B4228D018318B4225D03B49E3
:104540003B4A934218BF8B4200F02E81394A934276
:1045500000F02A811432934200F0268114329342F3
:1045600000F022811432934200F01E8114329342F3
:1045700000F01A811432934200F0168140236365E3
:10458000032384F8353001204AE0022184F83510F5
:10459000002184F834107ABB274A93422CD0183279
:1045A000934229D01832934226D01832934223D016
:1045B0001832934220D0183293421DD002F5567221
:1045C000934219D01832934216D01832934213D026
:1045D0001832934210D0183293420DD018329342C1
:1045E0000AD01832934207D01832934204D01A6886
:1045F00022F001021A6003E01A6822F001021A6038
:1046000023681A6812F0010F18D0FFF7D7FC431B7C
:10461000052BF5D920236365032384F83530012069
:1046200070BD00BF1000024028000240085402582C
:104630001C54025830540258400002401A687F4807
:104640001040A168E2680A4321690A4361690A438C
:10465000A1690A43E1690A43216A0A430243616A84
:10466000042900F096806168A1F12905A1F13F00BD
:10467000032888BF052D0AD9A1F14700012806D9D2
:10468000A1F14F00032802D97439032901D842F45B
:1046900080121A602668756925F00705636A1D4354
:1046A000042B08D1A36A1D43E36A23B12046FFF718
:1046B00029FE002872D175612046FFF7C9FDE36D20
:1046C00003F01F023F239340836023685C495D4AE7
:1046D000934218BF8B4242D0183293423FD01832D7
:1046E00093423CD01832934239D01832934236D09C
:1046F0001832934233D01832934230D002F55672BA
:1047000093422CD01832934229D01832934226D0AB
:104710001832934223D01832934220D01832934259
:104720001DD0183293421AD01832934217D0464AFD
:10473000934214D01432934211D0143293420ED0CB
:10474000143293420BD01432934208D01432934265
:1047500005D01432934202D01432934213D1204632
:10476000FFF71AFEA368802B59D0236E22791A60B6
:10477000636EA26E5A606368013B072B52D9002317
:10478000E3662367636700206065012384F83530A2
:1047900046E7E16A206B01430A4364E7402363650F
:1047A000012084F835003BE7022284F835200022FE
:1047B00084F834201A6825491140A268402A2CD078
:1047C000802A27D00022E06842EAD002206942EA2B
:1047D000D002606942EAD002A06942EAD002E069F0
:1047E00042EAD002206A42EA10120A431A602268A2
:1047F000174B1344174AA2FB03231B099B00E365D5
:104800002046FFF725FDE26D02F01F0101228A40DC
:1048100042605AE74FF48042D5E71022D3E70023E5
:104820006360A2E72046FFF70FFEE36E00221A60E6
:10483000236F626F5A60A6E70120F1E63F8010FE09
:104840001000024028000240085402580F00FEFFEA
:10485000F8ABFDA7CDCCCCCC002800F03E8170B5E4
:10486000044690F83400012800F03981012084F8D2
:10487000340094F83500C0B2012807D04FF400632B
:104880006365002384F83430012070BD022084F871
:104890003500002060652068924E934DA84218BFF5
:1048A000B0422FD01835A8422CD01835A84229D0B4
:1048B0001835A84226D01835A84223D01835A8426A
:1048C00020D01835A8421DD005F55675A84219D03C
:1048D0001835A84216D01835A84213D01835A8426A
:1048E00010D01835A8420DD01835A8420AD0183576
:1048F000A84207D01835A84204D0056825F0010564
:10490000056003E0056825F0010505602046FFF716
:10491000C5FB23687349744A934218BF8B4238D051
:104920001832934235D01832934232D01832934223
:104930002FD0183293422CD01832934229D01832FB
:10494000934226D002F55672934222D018329342F7
:104950001FD0183293421CD01832934219D018320B
:10496000934216D01832934213D01832934210D08B
:10497000183293420DD01A6822F00E0242F00A0259
:104980001A60236C93B12268136843F00403136028
:104990000CE01A6822F01E0242F016021A60236C24
:1049A00023B12268136843F00803136023684D495C
:1049B0004D4A934218BF8B4242D0183293423FD0A7
:1049C000183293423CD01832934239D01832934275
:1049D00036D01832934233D01832934230D002F599
:1049E000567293422CD01832934229D018329342F7
:1049F00026D01832934223D01832934220D0183256
:104A000093421DD0183293421AD01832934217D0D5
:104A1000364A934214D01432934211D01432934246
:104A20000ED0143293420BD01432934208D0143279
:104A3000934205D01432934202D0143293420ED1E5
:104A4000236E1A6812F4803F03D01A6842F4807211
:104A50001A60E36E1BB11A6842F480721A60236810
:104A60002049214A934218BF8B4230D018329342DA
:104A70002DD0183293422AD01832934227D01832C0
:104A8000934224D01832934221D0183293421ED040
:104A900002F5567293421AD01832934217D0183248
:104AA000934214D01832934211D0183293420ED050
:104AB000183293420BD01832934208D018329342E6
:104AC00005D01A6842F001021A600020DDE61A687B
:104AD00042F001021A600020D7E601207047022050
:104AE000D3E600BF100002402800024008540258DC
:104AF00070B50446FFF762FA002C00F0918105467C
:104B000094F83530DBB2022B06D080236365002396
:104B100084F83430012070BD23688C498C4A93425C
:104B200018BF8B4230D0183293422DD018329342A6
:104B30002AD01832934227D01832934224D0183208
:104B4000934221D0183293421ED002F556729342FE
:104B50001AD01832934217D01832934214D0183218
:104B6000934211D0183293420ED0183293420BD098
:104B70001832934208D01832934205D01A6822F0B6
:104B80000E021A60266809E01A6822F01E021A60F6
:104B90002268536923F080035361266823686B49B8
:104BA0006B4A934218BF8B4242D0183293423FD097
:104BB000183293423CD01832934239D01832934283
:104BC00036D01832934233D01832934230D002F5A7
:104BD000567293422CD01832934229D01832934205
:104BE00026D01832934223D01832934220D0183264
:104BF00093421DD0183293421AD01832934217D0E4
:104C0000544A934214D01432934211D01432934236
:104C10000ED0143293420BD01432934208D0143287
:104C2000934205D01432934202D01432934204D1FD
:104C3000226E136823F48073136023684349444A47
:104C4000934218BF8B422FD0183293422CD0183287
:104C5000934229D01832934226D01832934223D05F
:104C60001832934220D0183293421DD002F556726A
:104C7000934219D01832934216D01832934213D06F
:104C80001832934210D0183293420DD0183293420A
:104C90000AD01832934207D01832934204D01A68CF
:104CA00022F001021A6003E01A6822F001021A6081
:104CB000336813F0010F0ED0FFF780F9431B052B6B
:104CC000F6D920236365032384F83530002384F864
:104CD000343001201FE723681C491D4A934218BF46
:104CE0008B4239D01832934236D01832934233D0A7
:104CF0001832934230D0183293422DD0183293425A
:104D00002AD01832934227D002F55672934223D00C
:104D10001832934220D0183293421DD01832934259
:104D20001AD01832934217D01832934214D0183246
:104D3000934211D0183293420ED0A16DE36D03F06F
:104D40001F02012393404B600DE000BF10000240A2
:104D50002800024008540258A16DE36D03F01F02C1
:104D60003F2393408B6023682E492F4A934218BFFC
:104D70008B4242D0183293423FD0183293423CD0FB
:104D80001832934239D01832934236D018329342B7
:104D900033D01832934230D002F5567293422CD061
:104DA0001832934229D01832934226D018329342B7
:104DB00023D01832934220D0183293421DD018329B
:104DC00093421AD01832934217D0184A934214D003
:104DD0001432934211D0143293420ED014329342C3
:104DE0000BD01432934208D01432934205D01432BF
:104DF000934202D0143293420BD1636EA26E5A607A
:104E0000E36E33B11A6822F480721A60236F626F06
:104E10005A60012384F83530002084F834007AE6A3
:104E2000012078E610000240280002400854025891
:104E3000002800F0298108B5024690F83530DBB231
:104E4000022B03D080234365012008BD03689048EE
:104E500090498B4218BF83420CBF0121002166D0CC
:104E60003030834263D01830834260D018308342A0
:104E70005DD0183083425AD01830834257D0183052
:104E8000834254D000F55670834250D0183083428C
:104E90004DD0183083424AD01830834247D0183062
:104EA000834244D01830834241D0183083423ED0F0
:104EB000183083423BD0196821F00E011960136845
:104EC000A0F5956073498B4218BF83426AD072493E
:104ED0008B4267D018318B4264D018318B4261D03D
:104EE00018318B425ED018318B425BD018318B4227
:104EF00058D001F556718B4254D018318B4251D0A5
:104F000018318B424ED018318B424BD018318B4226
:104F100048D018318B4245D018318B4242D01831DD
:104F20008B423FD0196821F0010119603EE0042056
:104F300082F8350081BB584A93422DD018329342F3
:104F40002AD01832934227D01832934224D01832F4
:104F5000934221D0183293421ED002F556729342EA
:104F60001AD01832934217D01832934214D0183204
:104F7000934211D0183293420ED0183293420BD084
:104F80001832934208D01832934205D01A6822F0A2
:104F900001021A60002058E71A6822F001021A6024
:104FA000002052E7196821F00101196013683848A0
:104FB00038498B4218BF834242D018318B423FD0D0
:104FC00018318B423CD018318B4239D018318B428A
:104FD00036D018318B4233D018318B4230D001F5A6
:104FE00056718B422CD018318B4229D018318B420C
:104FF00026D018318B4223D018318B4220D0183163
:105000008B421DD018318B421AD018318B4217D0E9
:1050100022498B4214D014318B4211D014318B426F
:105020000ED014318B420BD014318B4208D0143186
:105030008B4205D014318B4202D014318B4217D1F0
:10504000116E0B6823F480730B60906DD36D03F0C9
:105050001F0101238B404360536E916E5960D36EE4
:1050600033B1196821F480711960136F516F596061
:10507000012382F83530002382F83430136D2BB1D0
:10508000104698470020E0E6012070470020DCE64B
:10509000100002402800024040000240085402581C
:1050A000F0B583B00446002301937D4B1D687D4B12
:1050B000A3FB0535AD0A876D3E68D7F800C00368CD
:1050C00079497A48834218BF8B420CBF01200020E7
:1050D00061D0774A93425ED0183293425BD0183247
:1050E000934258D01832934255D01832934252D03E
:1050F000183293424FD002F5567293424BD0183279
:10510000934248D01832934245D01832934242D04D
:10511000183293423FD0183293423CD01832934217
:1051200039D01832934236D06249634A934218BF4D
:105130008B4212D0614A93420FD0143293420CD06A
:105140001432934209D01432934206D0143293425F
:1051500003D01432934240F061821A68E16D01F08D
:105160001F010420884010EA0C0F00F0A78212F003
:10517000040F00F0A382786012F4004F00F05A820E
:1051800012F4803F40F05082A36C002B00F0468266
:105190002046984742E2E26D02F01F0108228A4051
:1051A000324241D070BB424A93422BD018329342D4
:1051B00028D01832934225D01832934222D0183288
:1051C00093421FD0183293421CD002F5567293427C
:1051D00018D01832934215D01832934212D0183298
:1051E00093420FD0183293420CD01832934209D018
:1051F0001832934206D01832934203D01A68C2F391
:10520000C00202E01A68C2F380026AB11A6822F092
:1052100004021A60E36D03F01F0208239340BB6091
:10522000636D43F001036365E26D02F01F0226FA2D
:1052300002F313F0010F47D023681B481B498B4230
:1052400018BF83423CD018318B4239D018318B4281
:1052500036D018318B4233D018318B4230D01831D0
:105260008B422DD018318B422AD001F556718B42DA
:1052700026D018318B4223D018318B4220D01831E0
:105280008B421DD018318B421AD018318B4217D067
:1052900018318B4214D018318B4211D01B6813E0A7
:1052A00004000024B5814E1B10000240280002407B
:1052B00040000240085402581C540258305402580E
:1052C0005B6913F0800F3BD1E36D03F01F030422F1
:1052D00002FA03F3334240D02268964896498A4244
:1052E00018BF824235D018318A4232D018318A42F2
:1052F0002FD018318A422CD018318A4229D0183147
:105300008A4226D018318A4223D001F556718A424A
:105310001FD018318A421CD018318A4219D0183156
:105320008A4216D018318A4213D018318A4210D0DE
:1053300018318A420DD018318A420AD013680CE025
:10534000012303FA02F2BA60636D43F0020363655E
:10535000BAE7126812F0020F3DD1E36D03F01F03AC
:10536000102202FA03F333425FD022687148724977
:105370008A4218BF824234D018318A4231D0183163
:105380008A422ED018318A422BD018318A4228D036
:1053900018318A4225D018318A4222D001F556713F
:1053A0008A421ED018318A421BD018318A4218D046
:1053B00018318A4215D018318A4212D018318A42E7
:1053C0000FD018318A420CD018318A4209D01268A5
:1053D000C2F3800208E0BB60636D43F004036365C1
:1053E000BBE71268C2F3C002FAB1BB6023681A6857
:1053F00012F4802F0DD01B6813F4002F04D1236CFE
:105400009BB12046984710E0A36C73B120469847A3
:105410000BE01A6812F4807F03D11A6822F00802A8
:105420001A60236C0BB120469847E36D03F01F030D
:10543000202202FA03F3334200F0928022683D48B2
:105440003D498A4218BF82422ED018318A422BD061
:1054500018318A4228D018318A4225D018318A4220
:1054600022D018318A421FD018318A421CD001F54F
:1054700056718A4218D018318A4215D018318A42A2
:1054800012D018318A420FD018318A420CD018310C
:105490008A4209D018318A4206D018318A4203D094
:1054A0001268C2F3400202E01268C2F30012002A3E
:1054B00056D0BB6094F83530DBB2042B0ED0236895
:1054C0001A6812F4802F39D01B6813F4002F2CD1E6
:1054D000636C002B44D02046984741E02268136853
:1054E00023F0160313602268536923F0800353618D
:1054F000236CB3B12268136823F008031360E36DD3
:1055000003F01F023F239340BB60012384F8353032
:10551000002384F83430236D002B7FD02046984739
:105520007CE0A36C002BE5D1E9E7E36BC3B1204637
:10553000984715E010000240280002401A6812F453
:10554000807F09D11A6822F010021A60012384F8C2
:105550003530002384F83430E36B0BB12046984794
:10556000636D002B5AD0636D13F0010F52D00423EA
:1055700084F8353023689649964A934218BF8B4287
:105580002FD0183293422CD01832934229D018329F
:10559000934226D01832934223D01832934220D01F
:1055A000183293421DD002F55672934219D0183228
:1055B000934216D01832934213D01832934210D02F
:1055C000183293420DD0183293420AD018329342C7
:1055D00007D01832934204D01A6822F001021A60F0
:1055E00003E01A6822F001021A60019B0133019363
:1055F000AB4204D823681B6813F0010FF5D1236870
:105600001B6813F0010F0BD0032384F835300023FF
:1056100084F83430E36C0BB12046984703B0F0BDFA
:10562000012384F83530F2E7236C002BF6D02046B6
:105630009847F3E712F0200F3AD123686449654A8E
:10564000934218BF8B422FD0183293422CD018327D
:10565000934229D01832934226D01832934223D055
:105660001832934220D0183293421DD002F5567260
:10567000934219D01832934216D01832934213D065
:105680001832934210D0183293420DD01832934200
:105690000AD01832934207D01832934204D01A68C5
:1056A00022F004021A6003E01A6822F008021A606D
:1056B000236C002BB2D020469847AFE702208840E9
:1056C00010EA0C0F60D012F0020F5DD0786012F477
:1056D000004F0ED012F4803F05D1636C002B9DD09B
:1056E000204698479AE7E36B002B97D020469847CF
:1056F00094E712F0200F40D123683549354A934290
:1057000018BF8B422FD0183293422CD018329342BC
:1057100029D01832934226D01832934223D018321F
:10572000934220D0183293421DD002F55672934214
:1057300019D01832934216D01832934213D018322F
:10574000934210D0183293420DD0183293420AD0AF
:105750001832934207D01832934204D01A6822F0CC
:105760000A021A6003E01A6822F014021A60012388
:1057700084F83530002384F83430E36B002B3FF499
:105780004DAF2046984749E7082000FA01F111EA99
:105790000C0F3FF443AF12F0080F3FF43FAF1A680D
:1057A00022F00E021A60E36D03F01F03012202FAD9
:1057B00003F37B60626584F83520002384F834307D
:1057C000E36C002B3FF42AAF2046984726E700BF42
:1057D0001000024028000240406D704730B4446B16
:1057E0000368D3F884106F4A114041EA8401C3F87A
:1057F00084100368D3F8841021F47F01856B41EA9B
:105800000541C3F88410836B23440468D4F88810DE
:10581000114041EA8301C4F888100468D4F8881064
:1058200021F4FE01C56B41EA0541C4F88810C16B43
:1058300003EB41030468D4F8A010114041EA83014E
:10584000C4F8A0100468D4F8A01021F4FE01056C7F
:1058500041EA0541C4F8A010016C446C04FB01331B
:105860000468D4F8B010114041EA8301C4F8B010C4
:105870000468D4F8B01021F4FE01856C41EA0541BA
:10588000C4F8B010816CC46C04FB01330468D4F814
:10589000AC10114041EA8301C4F8AC10016D446DB5
:1058A00004FB01330468D4F8F010114041EA83018D
:1058B000C4F8F0100468D4F8F01021F47C11856D60
:1058C00041EA0541C4F8F010816D03EB410304681F
:1058D000D4F8C0100A4042EA8303C4F8C03002681A
:1058E000D2F8C03023F47C13C16D43EA0143C2F8FF
:1058F000C0300268D2F8C03023F07C53016E43EA16
:105900000163C2F8C030436B274A1A449200C26652
:10591000836B02EB83030367C16B03EBC103436734
:10592000016C446C04FB01F103EB81038367816C20
:10593000C46C04FB01F103EB8103C367016D446D8B
:1059400004FB01F103EB8103C0F88030816D03EBB0
:10595000C103C0F88430816EC46D01FB04FC03EB0D
:105960008C03C0F88830046E04FB01F103EB810363
:10597000C0F890300D498B420DD9D0F89C3043F0DF
:105980002003C0F89C30032380F89830012007E002
:10599000002342F8043BD0F890309342F8D800201E
:1059A00030BC70470300FFFF002B0010FCD3004009
:1059B00070B54C68FCB90D698C6825430C6845EAE4
:1059C00084450E6ACC6944EA06648E6934434E69A4
:1059D0003443CE6844EA0644D0F88460806E00FB0D
:1059E00003F306EB830E46F82350CEF804400EF185
:1059F000080E002019E00C698D6825430C682543CA
:105A000045F08045DDE702EB000C9CF803409CF874
:105A100002301B0443EA04639CF8014043EA042378
:105A2000145C23434EF8043B0430CB68024CE35C27
:105A30008342E8D870BD00BF30CB000830B595B0C8
:105A400004464C22A04901A8FCF718FB002C00F0EA
:105A5000388123689D4A934220D094F898300BB344
:105A60002268936923F010039361FEF7A7FA0546B5
:105A700023689A6912F0080F1AD0FEF79FFA431BA9
:105A80000A2BF5D9D4F89C3043F00103C4F89C30BC
:105A9000032384F89830012015B030BD03F58073DE
:105AA0006360DAE784F899302046FDF7B3FAD7E768
:105AB0009A6942F001029A61FEF780FA054623686E
:105AC0009A6912F0010F0FD1FEF778FA401B0A28ED
:105AD000F5D9D4F89C3043F00103C4F89C3003237B
