:020000040800F2
:1000000000000524A5130008B90B0008BB0B00086D
:10001000BD0B0008BF0B0008C10B0008000000006A
:10002000000000000000000000000000E165000882
:10003000C30B00080000000081660008256300086B
:10004000F5130008F5130008F5130008F513000870
:10005000F5130008F5130008F5130008F513000860
:10006000F5130008F5130008F5130008C50B000888
:10007000D50B0008E50B0008F50B0008F513000888
:10008000F5130008F5130008F5130008F513000830
:10009000F5130008F5130008F5130008F513000820
:1000A000F5130008F5130008F5130008F513000810
:1000B000F5130008F5130008F5130008F513000800
:1000C000F5130008F5130008F5130008F5130008F0
:1000D000F5130008050C0008F5130008F5130008D7
:1000E000F5130008F513000800000000290C0008B3
:1000F000410C0008F5130008F5130008F51300087B
:10010000F5130008F5130008510C0008F51300085A
:10011000F5130008F5130008610C0008710C0008C5
:10012000F5130008F5130008F5130008F51300088F
:10013000F5130008F5130008F5130008F51300087F
:1001400000000000000000000000000000000000AF
:10015000F5130008F5130008F5130008F51300085F
:10016000F5130008F5130008F5130008F51300084F
:10017000F5130008F5130008F5130008000000004F
:10018000F5130008F5130008F5130008F51300082F
:10019000F5130008F5130008F5130008F51300081F
:1001A000F5130008F5130008F5130008000000001F
:1001B000F5130008F5130008F5130008F5130008FF
:1001C000F5130008F513000800000000000000000F
:1001D0000000000000000000F5130008000000000F
:1001E000000000000000000000000000000000000F
:1001F0000000000000000000F5130008F5130008DF
:10020000F5130008F513000800000000F5130008BE
:10021000F5130008F5130008F5130008F51300089E
:10022000F513000800000000F513000800000000AE
:10023000F5130008F513000800000000F51300088E
:10024000F5130008F5130008F5130008F51300086E
:10025000F5130008F5130008F5130008F51300085E
:10026000F5130008F5130008F5130008F51300084E
:10027000F5130008F5130008F5130008000000004E
:10028000F5130008F5130008F5130008F51300082E
:1002900000000000F5130008F5130008000000003E
:1002A00000000000F5130008F5130008F51300081E
:1002B000810C0008F5130008F5130008F513000879
:0C02C000F5130008F5130008F513000802
:1002D00010B5054C237833B9044B13B10448AFF380
:1002E00000800123237010BD44040024000000009E
:1002F000C081000808B5034B1BB103490348AFF3A5
:10030000008008BD0000000048040024C0810008EF
:1003100053B94AB9002908BF00281CBF4FF0FF316C
:100320004FF0FF3000F074B9ADF1080C6DE904CE68
:1003300000F006F8DDF804E0DDE9022304B07047C0
:100340002DE9F047089D04468E46002B4DD18A4288
:10035000944669D9B2FA82F252B101FA02F3C2F1BB
:10036000200120FA01F10CFA02FC41EA030E94404C
:100370004FEA1C48210CBEFBF8F61FFA8CF708FB6D
:1003800016E341EA034306FB07F199420AD91CEB45
:10039000030306F1FF3080F01F81994240F21C8177
:1003A000023E63445B1AA4B2B3FBF8F008FB1033BF
:1003B00044EA034400FB07F7A7420AD91CEB0404F4
:1003C00000F1FF3380F00A81A74240F207816444C4
:1003D000023840EA0640E41B00261DB1D440002349
:1003E000C5E900433146BDE8F0878B4209D9002DAD
:1003F00000F0EF800026C5E9000130463146BDE837
:10040000F087B3FA83F6002E4AD18B4202D38242A0
:1004100000F2F980841A61EB030301209E46002D4F
:10042000E0D0C5E9004EDDE702B9FFDEB2FA82F2A4
:10043000002A40F09280A1EB0C014FEA1C471FFA02
:100440008CFE0126200CB1FBF7F307FB131140EAE9
:1004500001410EFB03F0884208D91CEB010103F1B6
:10046000FF3802D2884200F2CB804346091AA4B278
:10047000B1FBF7F007FB101144EA01440EFB00FE4C
:10048000A64508D91CEB040400F1FF3102D2A645B1
:1004900000F2BB800846A4EB0E0440EA03409CE750
:1004A000C6F12007B34022FA07FC4CEA030C20FAFD
:1004B00007F401FA06F31C43F9404FEA1C4900FA1D
:1004C00006F3B1FBF9F8200C1FFA8CFE09FB18119A
:1004D00040EA014108FB0EF0884202FA06F20BD90D
:1004E0001CEB010108F1FF3A80F08880884240F25D
:1004F0008580A8F102086144091AA4B2B1FBF9F0A1
:1005000009FB101144EA014100FB0EFE8E4508D99B
:100510001CEB010100F1FF346CD28E456AD9023820
:10052000614440EA0840A0FB0294A1EB0E01A14205
:10053000C846A64656D353D05DB1B3EB080261EB73
:100540000E0101FA07F722FA06F3F1401F43C5E94D
:10055000007100263146BDE8F087C2F12003D84083
:100560000CFA02FC21FA03F3914001434FEA1C47C5
:100570001FFA8CFEB3FBF7F007FB10360B0C43EAB7
:10058000064300FB0EF69E4204FA02F408D91CEB67
:10059000030300F1FF382FD29E422DD90238634465
:1005A0009B1B89B2B3FBF7F607FB163341EA034105
:1005B00006FB0EF38B4208D91CEB010106F1FF3854
:1005C00016D28B4214D9023E6144C91A46EA00464B
:1005D00038E72E46284605E70646E3E61846F8E6DD
:1005E0004B45A9D2B9EB020864EB0C0E0138A3E726
:1005F0004646EAE7204694E74046D1E7D0467BE707
:10060000023B614432E7304609E76444023842E77E
:10061000704700BF844641EA000313F003036DD125
:10062000403A41D351F8043B40F8043B51F8043BB5
:1006300040F8043B51F8043B40F8043B51F8043BBC
:1006400040F8043B51F8043B40F8043B51F8043BAC
:1006500040F8043B51F8043B40F8043B51F8043B9C
:1006600040F8043B51F8043B40F8043B51F8043B8C
:1006700040F8043B51F8043B40F8043B51F8043B7C
:1006800040F8043B51F8043B40F8043B51F8043B6C
:1006900040F8043B51F8043B40F8043B51F8043B5C
:1006A00040F8043B403ABDD2303211D351F8043BFC
:1006B00040F8043B51F8043B40F8043B51F8043B3C
:1006C00040F8043B51F8043B40F8043B103AEDD2AB
:1006D0000C3205D351F8043B40F8043B043AF9D2FC
:1006E000043208D0D2071CBF11F8013B00F8013BCF
:1006F00001D30B8803806046704700BF082A13D3DC
:100700008B078DD010F003038AD0C3F10403D21AF3
:10071000DB071CBF11F8013B00F8013B80D331F827
:10072000023B20F8023B7BE7043AD9D3013A11F8A7
:10073000013B00F8013BF9D20B7803704B78437012
:100740008B78837060467047074BD3ED007AB7EE25
:10075000007A77EE877AC3ED007A002301E0013357
:10076000DBB28B42FBD370479C04002410B50468B5
:10077000236843F01003236005F01CFD10BD00004A
:10078000F8B515461E460368DA6912F0100F00D15D
:10079000F8BD04460F4610221A6204F001FD3B68C2
:1007A0002549264A934218BF8B422DD018329342D6
:1007B0002AD01832934227D01832934224D01832CC
:1007C000934221D0183293421ED0183293421BD04C
:1007D00002F55672934217D01832934214D0183251
:1007E000934211D0183293420ED0183293420BD05C
:1007F0001832934208D01832934205D018329342EF
:1008000002D05F68FFB201E05F68FFB2F71BFFB282
:100810000B4B9C420AD03A460021284607F00EFCBA
:1008200032462946204605F0C5FCB1E73946284640
:10083000FFF78AFFEFE700BF1000024028000240E8
:10084000F4080024002380F884300368DA6912F089
:10085000080F08D008221A620368DA695A6A1A680F
:1008600042F010021A60704708B58446094B0A4AE4
:1008700092E8030083E8030000221A715A71802273
:100880009A717F22DA7108221946604604F03AFC18
:1008900008BD00BF940400249C04002400B583B06C
:1008A000174BD3F8D82042F00102C3F8D820D3F870
:1008B000D83003F001030193019B002205210B2096
:1008C00000F0ECFD0B2000F01FFE002205210C20A3
:1008D00000F0E4FD0C2000F017FE002205210D20A1
:1008E00000F0DCFD0D2000F00FFE002205210E209F
:1008F00000F0D4FD0E2000F007FE03B05DF804FB0D
:100900000044025808B5012005F0A4FDFBE708B536
:10091000052005F09FFDFBE708B5022205490648C2
:10092000FFF724FF01210448FFF79EFF052005F093
:1009300091FDF7E760040024F408002408B50B4A91
:1009400000210B4805F028FD0A4B18600A4A0021D7
:100950000A4805F021FD0A4B18600A4A00210A489E
:1009600005F01AFD094B186008BD00BF3C82000865
:100970000509000894050024F48100080F09000807
:100980008C0500241882000819090008900500242D
:1009900084B0134BD3F8E02042F01002C3F8E020FB
:1009A000D3F8E02002F010020192019AD3F8E0207F
:1009B00042F08002C3F8E020D3F8E02002F0800289
:1009C0000292029AD3F8E02042F00102C3F8E0203C
:1009D000D3F8E03003F001030393039B04B07047A6
:1009E0000044025808B50268034B9A4200D008BD83
:1009F00000F030FDFBE700BF000C004072B6FEE7E0
:100A000000B59DB04C22002109A807F017FB202259
:100A1000002101A807F012FB022002F02DFA0023AA
:100A20000093214B9A6922F440429A619B6903F436
:100A300040430093009B1C4B9B6913F4005FFAD06A
:100A40000223099301210C9140220D92129300225E
:100A50001392042014902220159016911793189346
:100A60000C2319931A924FF440631B9309A802F0C8
:100A70002DFAA8B93F230193032102910023039388
:100A8000082304934023059306934FF48062079252
:100A9000089301A802F00AFE20B91DB05DF804FB1E
:100AA000FFF7ACFFFFF7AAFF0048025808B500F0B7
:100AB000A3FCFFF7A5FFFFF76BFFFFF7EFFE00F0CA
:100AC000B7FA00F0E9FA00F07FFA00F037F900F029
:100AD0005FF900F087F900F0C1F905F02FFCFFF78E
:100AE0002DFF05F03DFCFEE700B583B00A4BD3F8BF
:100AF000F42042F00202C3F8F420D3F8F43003F0FB
:100B000002030193019B00220F216FF0010000F00E
:100B1000C5FC03B05DF804FB004402580F2801D95E
:100B20000120704710B58AB00446002201463220E9
:100B300000F0B4FC322000F0E7FC1A4B1C601A4BAA
:100B4000D3F8E82042F00802C3F8E820D3F8E830F0
:100B500003F008030093009B01A902A802F036FFEE
:100B6000079BBBB902F00EFF03461048A0FB03230E
:100B70009B0C013B0E480F4A026040F2E732C26014
:100B8000436000230361836004F042F930B1012027
:100B90000AB010BD02F0F6FE4300E6E7044803F099
:100BA0008DFFF5E70C0000240044025883DE1B4350
:100BB00098050024000C0040FEE7FEE7FEE7FEE794
:100BC000FEE7704708B5024801F0AEFC08BD00BF63
:100BD0000408002408B5024801F0A6FC08BD00BFC7
:100BE0007C08002408B5024801F09EFC08BD00BF47
:100BF0001407002408B5024801F096FC08BD00BFA8
:100C00008C07002410B5054C204604F097FB022306
:100C1000034A04492046FFF7B3FD10BDF408002441
:100C2000600400240408002408B5034803F09AFF78
:100C3000024803F097FF08BDC8060024E40500241D
:100C400008B5024803F08EFF08BD00BFC8060024A7
:100C500008B5024803F086FF08BD00BF98050024D0
:100C600008B5024803F07EFF08BD00BF300600242F
:100C700008B5024803F076FF08BD00BF7C060024DB
:100C800008B5024804F05AFB08BD00BF88090024DB
:100C9000224AD2F8883043F47003C2F88830204BDF
:100CA0001B6803F00F03062B06D81D4A136823F0B8
:100CB0000F0343F0070313601A4B1A6842F0010256
:100CC0001A6000221A611968174A0A401A60144B08
:100CD0001B6813F0080F06D0114A136823F00F03A6
:100CE00043F0070313600F4B00229A61DA611A6226
:100CF0000E4999620E49D9620E4919635A63996384
:100D0000DA6319645A64196821F4802119601A663B
:100D1000094B43F2D2021A60704700BF00ED00E0B9
:100D200000200052004402587FEDF6EA0002020261
:100D30000000FF01800201010040005200B585B0B3
:100D400000230193029303930F48104A026040F27C
:100D500025224260836040F2CF73C36080238361A9
:100D600004F056F850B900230193039301A90648F3
:100D700004F028F928B905B05DF804FBFFF73EFE42
:100D8000F1E7FFF73BFEF6E73006002400100040D5
:100D900000B585B000230193029303930F48104AD6
:100DA000026040F225224260836040F2CF73C3604C
:100DB0008023836104F02CF850B90023019303933E
:100DC00001A9064804F0FEF828B905B05DF804FB57
:100DD000FFF714FEF1E7FFF711FEF6E77C060024AB
:100DE0000014004000B589B00023049305930693D6
:100DF00007930193029303931648174A026040F247
:100E000025224260836040F2F312C26003614361B5
:100E1000836103F0FDFF98B94FF48053049304A954
:100E20000C4804F033F870B9002301930293039344
:100E300001A9084804F0C6F840B909B05DF804FB00
:100E4000FFF7DCFDE8E7FFF7D9FDEDE7FFF7D6FD9B
:100E5000F3E700BFC80600240004014000B589B0D4
:100E6000002304930593069307930193029303933E
:100E70001548164A026040F225224260836040F223
:100E8000E732C2600361836103F0C2FF90B94FF49F
:100E90008053049304A90C4803F0F8FF68B90023B9
:100EA0000193039301A9084804F08CF840B909B0F4
:100EB0005DF804FBFFF7A2FDE9E7FFF79FFDEEE712
:100EC000FFF79CFDF3E700BFE40500240018004095
:100ED00000B585B00368374A93420BD0364A934237
:100EE0001ED0364A934231D0354A93424CD005B099
:100EF0005DF804FB334BD3F8E82042F01002C3F84E
:100F0000E820D3F8E83003F010030093009B0022A0
:100F10000521362000F0C2FA362000F0F5FAE6E7A7
:100F2000284BD3F8E82042F02002C3F8E820D3F899
:100F3000E83003F020030193019B002205213720B4
:100F400000F0ACFA372000F0DFFAD0E71D4BD3F801
:100F5000F02042F00202C3F8F020D3F8F03003F0A2
:100F600002030293029B002205212B2000F096FA37
:100F70002B2000F0C9FA002205212C2000F08EFA67
:100F80002C2000F0C1FAB2E70E4BD3F8E82042F073
:100F90004002C3F8E820D3F8E83003F0400303939D
:100FA000039B002205212B2000F078FA2B2000F073
:100FB000ABFA9CE700100040001400400004014020
:100FC000001800400044025808B51748174B03604A
:100FD0004FF4E133436000238360C36003610C225C
:100FE00042618361C36103624362836205F057F823
:100FF00070B900210C4805F04BF960B900210A488E
:1010000005F06BF950B9084805F023F948B908BD57
:10101000FFF7F4FCEDE7FFF7F1FCEFE7FFF7EEFC7D
:10102000F1E7FFF7EBFCF2E71C0A00240078004030
:1010300008B51748174B03604FF4E13343600023B2
:101040008360C36003610C2242618361C3610362F8
:101050004362836205F023F870B900210C4805F063
:1010600017F960B900210A4805F037F950B9084866
:1010700005F0EFF848B908BDFFF7C0FCEDE7FFF752
:10108000BDFCEFE7FFF7BAFCF1E7FFF7B7FCF2E7CB
:10109000F40800240010014008B51748174B0360FE
:1010A0004FF4E133436000238360C36003610C228B
:1010B00042618361C36103624362836204F0EFFFB4
:1010C00070B900210C4805F0E3F860B900210A4826
:1010D00005F003F950B9084805F0BBF848B908BD58
:1010E000FFF78CFCEDE7FFF789FCEFE7FFF786FCE5
:1010F000F1E7FFF783FCF2E788090024001C0140B8
:10110000F0B5BBB004460021359136913791389146
:101110003991B82206A806F091FF2368934A9342BA
:1011200008D0934A934238D0924A934200F0A48068
:101130003BB0F0BD02220023CDE9062306A802F051
:101140007BFD38BB8C4BD3F8E82042F08042C3F8DB
:10115000E820D3F8E82002F080420092009AD3F809
:10116000E02042F01002C3F8E020D3F8E03003F0B2
:1011700010030193019B4FF4C07335930223369300
:101180000023379338930723399335A97B4801F01F
:1011900069FDCDE7FFF732FCD4E701220023CDE95A
:1011A000062306A802F048FD00285CD1724BD3F854
:1011B000F02042F01002C3F8F020D3F8F02002F043
:1011C00010020292029AD3F8E02042F00102C3F822
:1011D000E020D3F8E03003F001030393039B4FF4C6
:1011E000C06335930223369300253795389507233E
:1011F000399335A9624801F035FD6248624B0360BE
:10120000292343608560C5604FF4806303614561B5
:101210008561C5610562456200F098FB30BB594BA2
:10122000C4F880309C635948594B03602A234360BB
:10123000402383600023C3604FF4806202614361F6
:101240008361C3610362436200F080FB88B94F4B46
:10125000E3679C6300220521252000F01FF925206B
:1012600000F052F964E7FFF7C9FB9FE7FFF7C6FB01
:10127000D5E7FFF7C3FBEAE701220023CDE9062308
:1012800006A802F0D9FC002866D13B4BD3F8F02029
:1012900042F08002C3F8F020D3F8F02002F0800280
:1012A0000492049AD3F8E02042F01002C3F8E02040
:1012B000D3F8E03003F010030593059B0423359326
:1012C0000227369700253795389539932B4E35A947
:1012D000304601F0C7FC082335933697379538958B
:1012E0000B23399335A9304601F0BCFC29482A4B21
:1012F0000360762343608560C5604FF480630361BB
:1013000045618561C5610562456200F01FFB30BB28
:10131000204BC4F880309C632048214B0360772326
:101320004360402383600023C3604FF48062026106
:1013300043618361C3610362436200F007FB88B9C4
:10134000164BE3679C63002205219C2000F0A6F861
:101350009C2000F0D9F8EBE6FFF750FB95E7FFF78C
:101360004DFBD5E7FFF74AFBEAE700BF00780040F6
:1013700000100140001C01400044025800100258B7
:101380000000025804080024100002407C080024D9
:101390002800024014070024400002408C0700246B
:1013A00058000240DFF834D0FFF772FC0C480D49BA
:1013B0000D4A002302E0D458C4500433C4188C42B0
:1013C000F9D30A4A0A4C002301E013600432A24216
:1013D000FBD306F00FFEFFF769FB70470000052402
:1013E0000000002444040024D082000844040024A7
:1013F00008540024FEE7000010B5032000F03CF87C
:1014000002F05AF80F498B69C3F303230E4AD35CE9
:1014100003F01F03D8408B6903F00F03D35C03F084
:101420001F0320FA03F3094A1360094B18600F20C9
:10143000FFF774FB10B10124204610BD0446FFF7EE
:1014400053FBF9E7004402586082000804000024BE
:1014500000000024034B1B78034A11680B441360FF
:10146000704700BF08000024B00A0024014B186830
:10147000704700BFB00A00240649CB6823F4E0633C
:101480001B041B0C000200F4E0600343024A1A43F1
:10149000CA60704700ED00E00000FA0500B5174B88
:1014A000DB68C3F30223C3F1070CBCF1040F28BFB0
:1014B0004FF0040C03F1040EBEF1060F14D9033BE8
:1014C0004FF0FF3E0EFA0CFC21EA0C0199400EFA97
:1014D00003F322EA03031943002807DB0901C9B219
:1014E000074B19545DF804FB0023E9E700F00F00F7
:1014F0000901C9B2034B1954F4E700BF00ED00E045
:1015000000E400E014ED00E0002807DB00F01F021B
:10151000400901239340024A42F82030704700BF3F
:1015200000E100E0F0B4876D0468664E664DAC42A1
:1015300018BFB44242D01835AC423FD01835AC4247
:101540003CD01835AC4239D01835AC4236D01835BD
:10155000AC4233D01835AC4230D005F55675AC42AC
:101560002CD01835AC4229D01835AC4226D01835CD
:10157000AC4223D01835AC4220D01835AC421DD037
:101580001835AC421AD01835AC4217D04F4DAC428A
:1015900014D01435AC4211D01435AC420ED01435F1
:1015A000AC420BD01435AC4208D01435AC4205D057
:1015B0001435AC4202D01435AC4207D1446E856E6E
:1015C0006560C46E14B1046F456F656004683D4E7C
:1015D0003D4DAC4218BFB44252D01835AC424FD04A
:1015E0001835AC424CD01835AC4249D01835AC4215
:1015F00046D01835AC4243D01835AC4240D005F542
:101600005675AC423CD01835AC4239D01835AC4296
:1016100036D01835AC4233D01835AC4230D01835FE
:10162000AC422DD01835AC422AD01835AC4227D068
:10163000264E274DAC4218BFB44211D0254DAC42C6
:101640000ED01435AC420BD01435AC4208D0143552
:10165000AC4205D01435AC4202D01435AC4224D192
:10166000C46D04F01F050124AC407C600468636015
:101670008368402B20D0036899600368DA6014E027
:10168000C46D04F01F0C3F2404FA0CF4BC60056820
:101690002C6824F480242C60046863608368402BE9
:1016A00005D0036899600368DA60F0BC704703688E
:1016B0009A600368D960F8E703689A600368D960A4
:1016C000F3E700BF1000024028000240085402580F
:1016D0001C5402583054025803682749274A934241
:1016E00018BF8B422FD0183293422CD0183293421D
:1016F00029D01832934226D01832934223D0183280
:10170000934220D0183293421DD002F55672934274
:1017100019D01832934216D01832934213D018328F
:10172000934210D0183293420DD0183293420AD00F
:101730001832934207D01832934204D023F0FF03AB
:101740008365806D704710B4D9B210390C4AA2FB82
:101750000142C2F302120B4CA25CC2655F2907D999
:10176000094A1A4004328265806D5DF8044B704767
:10177000054A1A408265F7E710000240280002403F
:10178000ABAAAAAA7082000800FCFFFF83699BB97C
:10179000836A012B0AD0022B02D00BB100207047C4
:1017A000C36A13F0807F2AD100207047C36AB3F167
:1017B000C07F26D000207047B3F5005F0AD0836A4F
:1017C000022B26D9032B26D1C36A13F0807F24D1A4
:1017D00000207047836A032B03D8DFE803F014046A
:1017E000140A00207047C36A13F0807F0DD10020D7
:1017F0007047C36AB3F1C07F09D000207047012051
:101800007047012070470120704701207047012078
:10181000704701207047002070470120704700008A
:1018200003682249224A934218BF8B4228D01432BF
:10183000934225D01432934222D0143293421FD0C7
:10184000143293421CD01432934219D01432934272
:1018500016D0DAB2103A1749A1FB02121209164942
:101860001944A8291FD9154B13449B000366144B38
:10187000436602F01F02012303FA02F282667047F8
:10188000DBB2083B0F4AA2FB03230F4A02EB131201
:10189000920002660D4A4266C3F30413012202FA63
:1018A00003F3836670470832DDE700BF085402582F
:1018B0001C540258ABAAAAAAF0FBFDBF008200107C
:1018C00080080240CDCCCCCC00960016805802583F
:1018D00001794A1E072A2CD830B40368154D164CDE
:1018E000A34218BFAB4218D01434A34215D014340D
:1018F000A34212D01434A3420FD01434A3420CD00C
:101900001434A34209D01434A34206D00B4B0B4429
:101910009B00C3660A4B036705E00A4B0B449B0020
:10192000C366094B0367012303FA02F2426730BC26
:1019300070477047085402581C5402583F820010E8
:10194000400902403F9600164059025870B50446BF
:10195000FFF78CFD002C00F0B38105462368534946
:10196000534A934218BF8B420CBF0122002250D031
:1019700030318B424DD018318B424AD018318B42D6
:1019800047D018318B4244D018318B4241D01831A6
:101990008B423ED001F556718B423AD018318B42C2
:1019A00037D018318B4234D018318B4231D01831B6
:1019B0008B422ED018318B422BD018318B4228D03D
:1019C00018318B4225D03B493B4A934218BF8B428A
:1019D00000F02E81394A934200F02A81143293425A
:1019E00000F026811432934200F022811432934297
:1019F00000F01E811432934200F01A811432934297
:101A000000F0168140236365032384F835300120FC
:101A10004AE0022184F83510002184F834107ABBA2
:101A2000274A93422CD01832934229D0183293423D
:101A300026D01832934223D01832934220D0183245
:101A400093421DD002F55672934219D01832934238
:101A500016D01832934213D01832934210D0183255
:101A600093420DD0183293420AD01832934207D0D5
:101A70001832934204D01A6822F001021A6003E07F
:101A80001A6822F001021A6023681A6812F0010F26
:101A900018D0FFF7EBFC431B052BF5D9202363651A
:101AA000032384F83530012070BD00BF10000240D0
:101AB00028000240085402581C540258305402585E
:101AC000400002401A687F481040A168E2680A435B
:101AD00021690A4361690A43A1690A43E1690A432A
:101AE000216A0A430243616A042900F09680616812
:101AF000A1F12905A1F13F00032888BF052D0AD9CE
:101B0000A1F14700012806D9A1F14F00032802D90D
:101B10007439032901D842F480121A602668756965
:101B200025F00705636A1D43042B08D1A36A1D43F2
:101B3000E36A23B12046FFF729FE002872D17561C0
:101B40002046FFF7C9FDE36D03F01F023F239340DA
:101B5000836023685C495D4A934218BF8B4242D040
:101B6000183293423FD0183293423CD018329342FD
:101B700039D01832934236D01832934233D01832CB
:101B8000934230D002F5567293422CD018329342D1
:101B900029D01832934226D01832934223D01832DB
:101BA000934220D0183293421DD0183293421AD05B
:101BB0001832934217D0464A934214D014329342BB
:101BC00011D0143293420ED0143293420BD01432FF
:101BD000934208D01432934205D01432934202D07B
:101BE0001432934213D12046FFF71AFEA368802BCC
:101BF00059D0236E22791A60636EA26E5A606368B0
:101C0000013B072B52D90023E3662367636700205B
:101C10006065012384F8353046E7E16A206B0143B3
:101C20000A4364E740236365012084F835003BE7FD
:101C3000022284F83520002284F834201A682549CD
:101C40001140A268402A2CD0802A27D00022E068C8
:101C500042EAD002206942EAD002606942EAD00238
:101C6000A06942EAD002E06942EAD002206A42EA70
:101C700010120A431A602268174B1344174AA2FB3A
:101C800003231B099B00E3652046FFF725FDE26D5A
:101C900002F01F0101228A4042605AE74FF480425D
:101CA000D5E71022D3E700236360A2E72046FFF7C1
:101CB0000FFEE36E00221A60236F626F5A60A6E780
:101CC0000120F1E63F8010FE100002402800024093
:101CD000085402580F00FEFFF8ABFDA7CDCCCCCCCA
:101CE000002800F03E8170B5044690F834000128C9
:101CF00000F03981012084F8340094F83500C0B236
:101D0000012807D04FF400636365002384F8343062
:101D1000012070BD022084F8350000206065206835
:101D2000924E934DA84218BFB0422FD01835A8420A
:101D30002CD01835A84229D01835A84226D01835FD
:101D4000A84223D01835A84220D01835A8421DD06B
:101D500005F55675A84219D01835A84216D0183581
:101D6000A84213D01835A84210D01835A8420DD07B
:101D70001835A8420AD01835A84207D01835A8420D
:101D800004D0056825F00105056003E0056825F02D
:101D9000010505602046FFF7C5FB23687349744AB7
:101DA000934218BF8B4238D01832934235D0183244
:101DB000934232D0183293422FD0183293422CD013
:101DC0001832934229D01832934226D002F5567227
:101DD000934222D0183293421FD0183293421CD023
:101DE0001832934219D01832934216D018329342C7
:101DF00013D01832934210D0183293420DD01A6883
:101E000022F00E0242F00A021A60236C93B122689B
:101E1000136843F0040313600CE01A6822F01E02FA
:101E200042F016021A60236C23B12268136843F053
:101E30000803136023684D494D4A934218BF8B42F3
:101E400042D0183293423FD0183293423CD01832DD
:101E5000934239D01832934236D01832934233D05D
:101E60001832934230D002F5567293422CD0183279
:101E7000934229D01832934226D01832934223D06D
:101E80001832934220D0183293421DD01832934218
:101E90001AD01832934217D0364A934214D01432D3
:101EA000934211D0143293420ED0143293420BD08D
:101EB0001432934208D01432934205D01432934224
:101EC00002D0143293420ED1236E1A6812F4803F6E
:101ED00003D01A6842F480721A60E36E1BB11A686C
:101EE00042F480721A6023682049214A934218BF45
:101EF0008B4230D0183293422DD0183293422AD0E0
:101F00001832934227D01832934224D01832934289
:101F100021D0183293421ED002F5567293421AD045
:101F20001832934217D01832934214D01832934289
:101F300011D0183293420ED0183293420BD018327F
:101F4000934208D01832934205D01A6842F0010239
:101F50001A600020DDE61A6842F001021A600020D3
:101F6000D7E6012070470220D3E600BF10000240F0
:101F7000280002400854025870B50446FFF776FA6C
:101F8000002C00F09181054694F83530DBB2022B2D
:101F900006D080236365002384F83430012070BDAF
:101FA00023688C498C4A934218BF8B4230D0183238
:101FB00093422DD0183293422AD01832934227D020
:101FC0001832934224D01832934221D018329342CF
:101FD0001ED002F5567293421AD01832934217D08F
:101FE0001832934214D01832934211D018329342CF
:101FF0000ED0183293420BD01832934208D01832C8
:10200000934205D01A6822F00E021A60266809E091
:102010001A6822F01E021A602268536923F08003B6
:102020005361266823686B496B4A934218BF8B4201
:1020300042D0183293423FD0183293423CD01832EB
:10204000934239D01832934236D01832934233D06B
:102050001832934230D002F5567293422CD0183287
:10206000934229D01832934226D01832934223D07B
:102070001832934220D0183293421DD01832934226
:102080001AD01832934217D0544A934214D01432C3
:10209000934211D0143293420ED0143293420BD09B
:1020A0001432934208D01432934205D01432934232
:1020B00002D01432934204D1226E136823F4807349
:1020C000136023684349444A934218BF8B422FD080
:1020D000183293422CD01832934229D018329342AE
:1020E00026D01832934223D01832934220D018328F
:1020F00093421DD002F55672934219D01832934282
:1021000016D01832934213D01832934210D018329E
:1021100093420DD0183293420AD01832934207D01E
:102120001832934204D01A6822F001021A6003E0C8
:102130001A6822F001021A60336813F0010F0ED002
:10214000FFF794F9431B052BF6D92023636503237E
:1021500084F83530002384F8343001201FE72368E9
:102160001C491D4A934218BF8B4239D01832934202
:1021700036D01832934233D01832934230D01832CE
:1021800093422DD0183293422AD01832934227D04E
:1021900002F55672934223D01832934220D018325F
:1021A00093421DD0183293421AD01832934217D05E
:1021B0001832934214D01832934211D018329342FD
:1021C0000ED0A16DE36D03F01F02012393404B601D
:1021D0000DE000BF100002402800024008540258E1
:1021E000A16DE36D03F01F023F2393408B602368D2
:1021F0002E492F4A934218BF8B4242D01832934245
:102200003FD0183293423CD01832934239D0183222
:10221000934236D01832934233D01832934230D0A2
:1022200002F5567293422CD01832934229D01832BC
:10223000934226D01832934223D01832934220D0B2
:10224000183293421DD0183293421AD0183293425A
:1022500017D0184A934214D01432934211D014323A
:1022600093420ED0143293420BD01432934208D0D2
:102270001432934205D01432934202D01432934266
:102280000BD1636EA26E5A60E36E33B11A6822F40A
:1022900080721A60236F626F5A60012384F83530B0
:1022A000002084F834007AE6012078E6100002402D
:1022B0002800024008540258002800F0298108B57F
:1022C000024690F83530DBB2022B03D08023436501
:1022D000012008BD0368904890498B4218BF834293
:1022E0000CBF0121002166D03030834263D018300A
:1022F000834260D0183083425DD0183083425AD078
:102300001830834257D01830834254D000F55670AD
:10231000834250D0183083424DD0183083424AD087
:102320001830834247D01830834244D0183083425B
:1023300041D0183083423ED0183083423BD01968D8
:1023400021F00E0119601368A0F5956073498B4266
:1023500018BF83426AD072498B4267D018318B42D2
:1023600064D018318B4261D018318B425ED0183165
:102370008B425BD018318B4258D001F556718B429D
:1023800054D018318B4251D018318B424ED0183175
:102390008B424BD018318B4248D018318B4245D0FC
:1023A00018318B4242D018318B423FD0196821F04E
:1023B000010119603EE0042082F8350081BB584AD3
:1023C00093422DD0183293422AD01832934227D00C
:1023D0001832934224D01832934221D018329342BB
:1023E0001ED002F5567293421AD01832934217D07B
:1023F0001832934214D01832934211D018329342BB
:102400000ED0183293420BD01832934208D01832B3
:10241000934205D01A6822F001021A60002058E7A2
:102420001A6822F001021A60002052E7196821F0B0
:10243000010119601368384838498B4218BF83423C
:1024400042D018318B423FD018318B423CD01831EA
:102450008B4239D018318B4236D018318B4233D071
:1024600018318B4230D001F556718B422CD0183187
:102470008B4229D018318B4226D018318B4223D081
:1024800018318B4220D018318B421DD018318B422D
:102490001AD018318B4217D022498B4214D01431F4
:1024A0008B4211D014318B420ED014318B420BD0A1
:1024B00014318B4208D014318B4205D014318B4239
:1024C00002D014318B4217D1116E0B6823F4807344
:1024D0000B60906DD36D03F01F0101238B404360AF
:1024E000536E916E5960D36E33B1196821F48071C7
:1024F0001960136F516F5960012382F83530002342
:1025000082F83430136D2BB1104698470020E0E676
:10251000012070470020DCE6100002402800024045
:102520004000024008540258F0B583B0044600232E
:1025300001937D4B1D687D4BA3FB0535AD0A876D6F
:102540003E68D7F800C0036879497A48834218BFCB
:102550008B420CBF0120002061D0774A93425ED0AD
:10256000183293425BD01832934258D018329342BB
:1025700055D01832934252D0183293424FD002F5C0
:10258000567293424BD01832934248D0183293423D
:1025900045D01832934242D0183293423FD018327D
:1025A00093423CD01832934239D01832934236D0FD
:1025B0006249634A934218BF8B4212D0614A9342E8
:1025C0000FD0143293420CD01432934209D01432FB
:1025D000934206D01432934203D01432934240F017
:1025E00061821A68E16D01F01F010420884010EA41
:1025F0000C0F00F0A78212F0040F00F0A3827860A5
:1026000012F4004F00F05A8212F4803F40F05082E2
:10261000A36C002B00F046822046984742E2E26D10
:1026200002F01F0108228A40324241D070BB424A68
:1026300093422BD01832934228D01832934225D09F
:102640001832934222D0183293421FD0183293424C
:102650001CD002F55672934218D01832934215D00E
:102660001832934212D0183293420FD0183293424C
:102670000CD01832934209D01832934206D0183247
:10268000934203D01A68C2F3C00202E01A68C2F390
:1026900080026AB11A6822F004021A60E36D03F046
:1026A0001F0208239340BB60636D43F00103636521
:1026B000E26D02F01F0226FA02F313F0010F47D079
:1026C00023681B481B498B4218BF83423CD01831FA
:1026D0008B4239D018318B4236D018318B4233D0EF
:1026E00018318B4230D018318B422DD018318B42AB
:1026F0002AD001F556718B4226D018318B4223D057
:1027000018318B4220D018318B421DD018318B42AA
:102710001AD018318B4217D018318B4214D018318F
:102720008B4211D01B6813E000000024B5814E1BC2
:1027300010000240280002404000024008540258A5
:102740001C540258305402585B6913F0800F3BD17F
:10275000E36D03F01F03042202FA03F3334240D077
:102760002268964896498A4218BF824235D018316D
:102770008A4232D018318A422FD018318A422CD066
:1027800018318A4229D018318A4226D018318A421B
:1027900023D001F556718A421FD018318A421CD0CD
:1027A00018318A4219D018318A4216D018318A421B
:1027B00013D018318A4210D018318A420DD0183106
:1027C0008A420AD013680CE0012303FA02F2BA60CD
:1027D000636D43F002036365BAE7126812F0020FFB
:1027E0003DD1E36D03F01F03102202FA03F33342DD
:1027F0005FD02268714872498A4218BF824234D041
:1028000018318A4231D018318A422ED018318A428A
:102810002BD018318A4228D018318A4225D018315D
:102820008A4222D001F556718A421ED018318A425E
:102830001BD018318A4218D018318A4215D018316D
:102840008A4212D018318A420FD018318A420CD0F5
:1028500018318A4209D01268C2F3800208E0BB60D6
:10286000636D43F004036365BBE71268C2F3C00203
:10287000FAB1BB6023681A6812F4802F0DD01B6870
:1028800013F4002F04D1236C9BB12046984710E02D
:10289000A36C73B1204698470BE01A6812F4807F4E
:1028A00003D11A6822F008021A60236C0BB120468B
:1028B0009847E36D03F01F03202202FA03F333422B
:1028C00000F0928022683D483D498A4218BF82420A
:1028D0002ED018318A422BD018318A4228D0183194
:1028E0008A4225D018318A4222D018318A421FD01C
:1028F00018318A421CD001F556718A4218D018311D
:102900008A4215D018318A4212D018318A420FD02B
:1029100018318A420CD018318A4209D018318A42C3
:1029200006D018318A4203D01268C2F3400202E096
:102930001268C2F30012002A56D0BB6094F83530FA
:10294000DBB2042B0ED023681A6812F4802F39D022
:102950001B6813F4002F2CD1636C002B44D020464D
:10296000984741E02268136823F016031360226839
:10297000536923F080035361236CB3B12268136859
:1029800023F008031360E36D03F01F023F2393401D
:10299000BB60012384F83530002384F83430236D84
:1029A000002B7FD0204698477CE0A36C002BE5D11C
:1029B000E9E7E36BC3B12046984715E010000240F9
:1029C000280002401A6812F4807F09D11A6822F0A8
:1029D00010021A60012384F83530002384F8343063
:1029E000E36B0BB120469847636D002B5AD0636DA3
:1029F00013F0010F52D0042384F835302368964930
:102A0000964A934218BF8B422FD0183293422CD053
:102A10001832934229D01832934226D0183293426A
:102A200023D01832934220D0183293421DD002F5A1
:102A30005672934219D01832934216D018329342EC
:102A400013D01832934210D0183293420DD018325E
:102A500093420AD01832934207D01832934204D0DE
:102A60001A6822F001021A6003E01A6822F00102DB
:102A70001A60019B01330193AB4204D823681B68A1
:102A800013F0010FF5D123681B6813F0010F0BD071
:102A9000032384F83530002384F83430E36C0BB121
:102AA0002046984703B0F0BD012384F83530F2E7A3
:102AB000236C002BF6D020469847F3E712F0200F46
:102AC0003AD123686449654A934218BF8B422FD09C
:102AD000183293422CD01832934229D018329342A4
:102AE00026D01832934223D01832934220D0183285
:102AF00093421DD002F55672934219D01832934278
:102B000016D01832934213D01832934210D0183294
:102B100093420DD0183293420AD01832934207D014
:102B20001832934204D01A6822F004021A6003E0BB
:102B30001A6822F008021A60236C002BB2D02046DB
:102B40009847AFE70220884010EA0C0F60D012F0DF
:102B5000020F5DD0786012F4004F0ED012F4803F67
:102B600005D1636C002B9DD0204698479AE7E36B14
:102B7000002B97D02046984794E712F0200F40D1C1
:102B800023683549354A934218BF8B422FD01832FB
:102B900093422CD01832934229D01832934226D037
:102BA0001832934223D01832934220D018329342E5
:102BB0001DD002F55672934219D01832934216D0A6
:102BC0001832934213D01832934210D018329342E5
:102BD0000DD0183293420AD01832934207D01832DF
:102BE000934204D01A6822F00A021A6003E01A68BD
:102BF00022F014021A60012384F83530002384F88F
:102C00003430E36B002B3FF44DAF2046984749E743
:102C1000082000FA01F111EA0C0F3FF443AF12F063
:102C2000080F3FF43FAF1A6822F00E021A60E36DFE
:102C300003F01F03012202FA03F37B60626584F84C
:102C40003520002384F83430E36C002B3FF42AAFA6
:102C50002046984726E700BF1000024028000240A7
:102C6000406D7047F0B583B000236BE085685E006F
:102C70000324B44025EA0405CC68B4402C438460A6
:102C8000446824EA0C0C4C68C4F300149C4044EAE9
:102C90000C04446068E0DD08083550F8256003F056
:102CA00007044FEA840C0F2404FA0CF426EA040EFD
:102CB0000C6904FA0CF444EA0E0440F825406BE079
:102CC000092400E0002404FA0EF42C430CF1020C59
:102CD000664D45F82C404FF0B0442568D44325EAB2
:102CE00002064F6817F4801F01D042EA05064FF034
:102CF000B0452E606D6804EA05064F6817F4001FA2
:102D000001D042EA05064FF0B0456E60D5F8845018
:102D100004EA05064F6817F4003F01D042EA0506B1
:102D20004FF0B045C5F88460D5F880502C404E680F
:102D300016F4803F01D042EA05044FF0B042C2F8D9
:102D4000804001330A6832FA03F400F08C804FF0BF
:102D5000010C0CFA03FC1CEA0202F2D04C6804F0ED
:102D60000304013C012C81D94C6804F00304032CBA
:102D70000CD0C4685D004FF0030C0CFA05FC24EA8B
:102D80000C0C8C68AC4044EA0C04C4604C6804F041
:102D90000304022C3FF47FAF04684FEA430E4FF068
:102DA000030C0CFA0EFC24EA0C0C4C6804F003042F
:102DB00004FA0EF444EA0C0404604C6814F4403F36
:102DC000BFD02B4CD4F8F45045F00205C4F8F450B1
:102DD000D4F8F44004F002040194019C4FEA930CEF
:102DE0000CF10205214C54F8255003F003044FEA7E
:102DF000840E0F2404FA0EF425EA04051D4CA042AB
:102E00003FF460AF04F58064A0421ED004F58064F6
:102E1000A0421CD004F58064A0421AD004F580645E
:102E2000A04218D004F58064A04216D004F5806456
:102E3000A04214D004F58064A04212D004F50064CE
:102E4000A0423FF43DAF0A243DE701243BE70224C2
:102E500039E7032437E7042435E7052433E706245C
:102E600031E707242FE703B0F0BD00BF000400588E
:102E70000044025800000258134BDB6813F0040FA3
:102E800007D1114BDB6803F0070383421AD00120FE
:102E9000704710B50C4AD36823F007031843D0607D
:102EA000FEF7E4FA0446084B5B6813F4005F07D1B1
:102EB000FEF7DCFA001BB0F57A7FF4D9012000E0C0
:102EC000002010BD0020704700480258002800F084
:102ED000D78238B50446036813F0010F25D0A04A05
:102EE000136903F03803926A102B15D0182B0FD0FA
:102EF0006368B3F5803F3FD0002B53D1984B1A68DD
:102F000022F480321A601A6822F480221A6038E0B3
:102F100002F00302022AEBD1914B1B6813F4003F2D
:102F200003D06368002B00F0AD82236813F0020F1A
:102F300000F088808A4A1369926A13F038035AD0E5
:102F4000182B55D0E368002B00F0A98084490A684B
:102F500022F0190213430B60FEF788FA0546804BF6
:102F60001B6813F0040F40F09180FEF77FFA401BBE
:102F70000228F4D903208CE2794A136843F48033A1
:102F8000136063682BB3FEF771FA0546744B1B6838
:102F900013F4003FC9D1FEF769FA401B6428F5D944
:102FA000032076E2B3F5A02F09D06D4B1A6822F406
:102FB00080321A601A6822F480221A60E1E7684BB6
:102FC0001A6842F480221A601A6842F480321A6049
:102FD000D7E7FEF74BFA0546614B1B6813F4003F39
:102FE000A3D0FEF743FA401B6428F5D9032050E232
:102FF00012F0030FA6D15A4B1B6813F0040F03D035
:10300000E368002B00F04082554A136823F019034F
:10301000E1680B431360FEF729FA0546504B1B6825
:1030200013F0040F06D1FEF721FA401B0228F5D950
:1030300003202EE24A4A536823F0FE43216943EA03
:1030400001635360236813F0100F51D0444A136991
:1030500003F03803926A082B39D0182B33D0E36978
:10306000002B69D03E4A136843F080031360FEF7DB
:10307000FDF905463A4B1B6813F4807F53D1FEF7E8
:10308000F5F9401B0228F5D9032002E2344A5368BF
:1030900023F0FE43216943EA01635360D2E7304ADB
:1030A000136823F001031360FEF7E0F905462C4B8B
:1030B0001B6813F0040FC5D0FEF7D8F9401B022897
:1030C000F5D90320E5E102F00302012AC7D1244B20
:1030D0001B6813F4807F03D0E369802B40F0D68116
:1030E0001F4AD36823F07C53216A43EA0163D3600B
:1030F000236813F0080F49D06369002B32D0184AB7
:10310000536F43F001035367FEF7B0F90546144BC4
:103110005B6F13F0020F39D1FEF7A8F9401B0228AC
:10312000F5D90320B5E10E4AD36823F07C53216A18
:1031300043EA0163D360DBE7094A136823F08003A5
:103140001360FEF793F90546054B1B6813F4807F67
:10315000CED0FEF78BF9401B0228F5D9032098E169
:10316000004402589D4A536F23F001035367FEF752
:103170007DF90546994B5B6F13F0020F06D0FEF701
:1031800075F9401B0228F5D9032082E1236813F06A
:10319000200F29D0A3699BB1904A136843F4805350
:1031A0001360FEF763F905468C4B1B6813F4005F50
:1031B0001AD1FEF75BF9401B0228F5D9032068E11C
:1031C000864A136823F480531360FEF74FF90546CF
:1031D000824B1B6813F4005F06D0FEF747F9401BD3
:1031E0000228F5D9032054E1236813F0040F21D1FC
:1031F000636A002B00F04C81784A126902F03802B1
:10320000182A00F0F380022B75D0744A136823F05B
:1032100080731360FEF72AF90446704B1B6813F0A5
:10322000007F00F0D880FEF721F9001B0228F4D9B6
:1032300003202EE16A4A136843F480731360FEF79B
:1032400015F90546664B1B6813F4807F06D1FEF71F
:103250000DF9401B6428F5D903201AE1A368012B5E
:103260000AD00BBB5D4B1A6F22F001021A671A6F6E
:1032700022F004021A6704E0584A136F43F0010376
:103280001367A36833B3FEF7F1F80546534B1B6F82
:1032900013F0020FACD1FEF7E9F8401B41F288337E
:1032A0009842F3D90320F4E0052B09D04B4B1A6F59
:1032B00022F001021A671A6F22F004021A67E0E78F
:1032C000464B1A6F42F004021A671A6F42F001026D
:1032D0001A67D6E7FEF7CAF80546404B1B6F13F096
:1032E000020F85D0FEF7C2F8401B41F288339842A6
:1032F000F3D90320CDE0394A136823F080731360BB
:10330000FEF7B4F80546354B1B6813F0007F06D076
:10331000FEF7ACF8401B0228F5D90320B9E02F4B8B
:10332000996A304A0A40A16AE06A41EA00110A43F8
:103330009A62226B013AC2F30802616B01394902B9
:1033400089B20A43A16B0139090401F4FE010A4361
:10335000E16B0139090601F0FE410A431A63DA6A9A
:1033600022F00102DA62596B1F4A0A40A16C42EA5C
:10337000C1025A63DA6A22F00C02216C0A43DA6253
:10338000DA6A22F00202616C0A43DA62DA6A42F413
:103390008032DA62DA6A42F40032DA62DA6A42F4DD
:1033A0008022DA62DA6A42F00102DA621A6842F0D6
:1033B00080721A60FEF75AF80446084B1B6813F037
:1033C000007F06D1FEF752F8001B0228F5D9032032
:1033D0005FE000205DE000205BE000BF0044025899
:1033E000004802580CFCFFFF0700FFFF30498A6AC3
:1033F000086B012B4ED002F00303A16A8B424BD124
:10340000C2F30512E36A9A4248D1C0F30802236B63
:10341000013B9A4244D1C0F34622636B013B9A427E
:1034200040D1C0F30642A36B013B9A423CD1C0F3AA
:103430000660E36B013B984238D11D4B5B6BC3F3D5
:10344000CC03A26C9A4201D1002022E0184AD36A30
:1034500023F00103D362FEF709F80546FEF706F8EC
:10346000A842FBD0124A516B124B0B40A16C43EAAD
:10347000C1035363D36A43F00103D362002008E021
:1034800001207047012004E0012002E0012000E05B
:10349000002038BD0120FCE70120FAE70120F8E711
:1034A0000120F6E70120F4E70120F2E70120F0E730
:1034B000004402580700FFFF744B1B6903F03803F8
:1034C000102B00F0DE80182B10D00BB17048704725
:1034D0006E4B1B6813F0200F00F0D5806B4B186803
:1034E000C0F3C1006B4B23FA00F0704710B4674A79
:1034F000916A01F00301946AC4F30510D36A03F0E2
:10350000010C536BC3F3CC030CFB03F307EE903AAF
:10351000F8EE677A14F47C7F00F09380012965D07F
:10352000022900F09180E1B107EE100AF8EE476A37
:103530009FED596A86EE267A544B1B6BC3F3080342
:1035400006EE903AF8EE666A9FED546A67EE867A68
:1035500076EEA77AF7EE006A77EEA67A27EE277A5C
:1035600060E0136813F0200F23D011461268C2F3F5
:10357000C102484BD34007EE103AF8EE476A07EE17
:10358000100AB8EE476A86EE867A0B6BC3F308031F
:1035900006EE903AF8EE666A9FED406A67EE867A2C
:1035A00076EEA77AF7EE006A77EEA67A27EE277A0C
:1035B00038E007EE100AF8EE476A9FED396A86EEAA
:1035C000267A324B1B6BC3F3080306EE903AF8EEF3
:1035D000666A9FED326A67EE867A76EEA77AF7EE34
:1035E000006A77EEA67A27EE277A1BE007EE100A2C
:1035F000F8EE476A9FED286A86EE267A234B1B6B0E
:10360000C3F3080306EE903AF8EE666A9FED236A6C
:1036100067EE867A76EEA77AF7EE006A77EEA67AFC
:1036200027EE277A194B1B6BC3F34623013307EEB2
:10363000903AF8EE677AC7EE276AFCEEE67A17EE64
:10364000900A5DF8044B704707EE100AF8EE476ADF
:103650009FED146A86EE267A0C4B1B6BC3F30803AE
:1036600006EE903AF8EE666A9FED0C6A67EE867A8F
:1036700076EEA77AF7EE006A77EEA67A27EE277A3B
:10368000D0E7094870470348704700BF004402581C
:1036900000093D000090D0030024744A0000003966
:1036A0000024744C20BCBE4B40787D01002800F003
:1036B000328170B50D4604469B4B1B6803F00F0327
:1036C0008B420BD2984A136823F00F030B4313600D
:1036D000136803F00F038B4240F01F81236813F03F
:1036E000040F0CD02269914B9B6903F070039A423E
:1036F00005D98E498B6923F070031A438A612368C8
:1037000013F0080F0CD06269884BDB6903F070037B
:103710009A4205D98549CB6923F070031A43CA61DF
:10372000236813F0100F0CD0A269804BDB6903F4FF
:10373000E0639A4205D97D49CB6923F4E0631A43DB
:10374000CA61236813F0200F0CD0E269774B1B6A23
:1037500003F070039A4205D974490B6A23F0700391
:103760001A430A62236813F0020F0CD0E2686F4B11
:103770009B6903F00F039A4205D96C498B6923F0CA
:103780000F031A438A61236813F0010F41D0674A7F
:10379000936923F47063A1680B4393616368022B00
:1037A0000AD0032B27D0012B2CD0604A126812F0CC
:1037B000040F06D10120ADE0126812F4003F00F0C2
:1037C000AE805A490A6922F0070213430B61FDF7E4
:1037D0004DFE0646554B1B6903F038036268B3EB98
:1037E000C20F16D0FDF742FE801B41F2883398428B
:1037F000F0D903208EE04D4A126812F0007FE0D12C
:10380000012087E0494A126812F4807FD9D1012053
:1038100080E0236813F0020F0CD0E268434B9B69F1
:1038200003F00F039A4205D240498B6923F00F033E
:103830001A438A613C4B1B6803F00F03AB420AD961
:10384000394A136823F00F032B431360136803F006
:103850000F03AB4265D1236813F0040F0CD022692B
:10386000324B9B6903F070039A4205D22F498B6952
:1038700023F070031A438A61236813F0080F0CD0F9
:1038800062692A4BDB6903F070039A4205D227492B
:10389000CB6923F070031A43CA61236813F0100F39
:1038A0000CD0A269214BDB6903F4E0639A4205D294
:1038B0001E49CB6923F4E0631A43CA61236813F0FD
:1038C000200F0CD0E269194B1B6A03F070039A4277
:1038D00005D216490B6A23F070031A430A62FFF7F8
:1038E000EBFD12498B69C3F30323114AD35C03F048
:1038F0001F03D8408B6903F00F03D35C03F01F0351
:1039000020FA03F30B4A13600B4B18600B4B18683B
:10391000FDF704F970BD012070470120FAE701208E
:10392000F8E70120F6E700BF0020005200440258EB
:103930006082000804000024000000240C00002421
:1039400008B5FFF7B9FD0B4A9369C3F303230A498E
:10395000CB5C03F01F0320FA03F3926902F00F021D
:10396000885C00F01F0023FA00F0044A1060044A4B
:10397000136008BD0044025860820008040000245F
:103980000000002408B5FFF7DBFF054BDB69C3F33C
:103990000213044AD35C03F01F03D84008BD00BFE4
:1039A000004402586082000808B5FFF7C9FF054BC4
:1039B000DB69C3F30223044AD35C03F01F03D8403E
:1039C00008BD00BF00440258608200083F23036026
:1039D000114B1A6902F0070242609A6902F47062A0
:1039E00082609A6902F00F02C2609A6902F0700266
:1039F0000261DA6902F070024261DA6902F4E0629F
:103A000082611B6A03F07003C361044B1B6803F0FF
:103A10000F030B60704700BF0044025800200052A3
:103A2000404B9B6A03F00303032B79D070B5054626
:103A30000E463C4A136823F080631360FDF716FDC1
:103A40000446384B1B6813F0006F06D0FDF70EFDDF
:103A5000031B022BF5D9032070BD324B9A6A22F466
:103A60007C32296842EA01329A626A68013AC2F3FA
:103A70000802A9680139490289B20A43E968013993
:103A8000090401F4FE010A4329690139090601F01C
:103A9000FE410A439A63DA6A22F0C00269690A4366
:103AA000DA62DA6A22F02002A9690A43DA62DA6A83
:103AB00022F01002DA62D96B1B4A0A40E96942EA35
:103AC000C102DA63DA6A42F01002DA62C6B91A4653
:103AD000DB6A43F40023D362124A136843F0806325
:103AE0001360FDF7C3FC04460E4B1B6813F0006F18
:103AF00014D1FDF7BBFC001B0228F5D90320ABE76E
:103B0000012E05D0074AD36A43F40013D362E3E7DA
:103B1000044AD36A43F48013D362DDE700209BE7B5
:103B200001207047004402580700FFFF404B9B6A8A
:103B300003F00303032B79D070B505460E463C4ACB
:103B4000136823F080531360FDF790FC0446384B54
:103B50001B6813F0005F06D0FDF788FC031B022BE7
:103B6000F5D9032070BD324B9A6A22F07C72296825
:103B700042EA01529A626A68013AC2F30802A968ED
:103B80000139490289B20A43E9680139090401F49B
:103B9000FE010A4329690139090601F0FE410A4381
:103BA0001A64DA6A22F4406269690A43DA62DA6AFC
:103BB00022F40072A9690A43DA62DA6A22F4807296
:103BC000DA62596C1B4A0A40E96942EAC1025A6446
:103BD000DA6A42F48072DA62C6B91A46DB6A43F4E2
:103BE0008003D362124A136843F080531360FDF7D9
:103BF0003DFC04460E4B1B6813F0005F14D1FDF72B
:103C000035FC001B0228F5D90320ABE7012E05D0B7
:103C1000074AD36A43F08073D362E3E7044AD36A66
:103C200043F40003D362DDE700209BE701207047E7
:103C3000004402580700FFFFF8B50446036813F07C
:103C4000006F30D0436EB3F5001F26D00ED8EBB115
:103C5000B3F5801F07D102210830FFF7E1FE0546CA
:103C600045B12E4621E0012635461EE0B3F5401F42
:103C700009D100259F4A136D23F44013616E0B4355
:103C80001365002611E0012635460EE0994AD36AF5
:103C900043F40033D3620025ECE702212830FFF71C
:103CA00045FF0546DCE700263546236813F4807F90
:103CB00027D0A36D042B20D8DFE803F003111808E8
:103CC00008008C4AD36A43F40033D362C5B9894AE9
:103CD000136D23F00703A16D0B43136511E0002161
:103CE00004F10800FFF79CFE0546EFE7002104F110
:103CF0002800FFF71BFF0546E8E70126354600E0F0
:103D00002E46236813F4806F22D0D4F8A430B3F584
:103D1000800F3FD00DD8BBB3B3F5001F06D10021F3
:103D200004F10800FFF77CFE054608E00126354651
:103D30000EE0B3F5000F02D0B3F5200F1ED185BB06
:103D40006C4A936D23F46003D4F8A4100B4393657D
:103D5000236813F4006F39D0D4F8A830B3F1007F92
:103D60005AD023D8002B51D0B3F1807F1BD1002132
:103D700004F10800FFF754FE05461DE0B3F5C00F3F
:103D8000DDD001263546E3E75A4AD36A43F40033CF
:103D9000D362D4E7002104F12800FFF7C7FE0546EF
:103DA000CDE72E46D4E7012635460FE0B3F1806F0C
:103DB00002D0B3F1A06F23D1002D34D14D4A936DC1
:103DC00023F0E063D4F8A8100B439365236813F045
:103DD000007F31D0E36C202B42D029D833B1102B97
:103DE00023D1444AD36A43F40033D362002D3ED139
:103DF000404AD36C23F03003E16C0B43D3641BE0E7
:103E0000B3F1407FD8D001263546DFE7394AD36A7F
:103E100043F40033D362CFE7002104F12800FFF719
:103E200085FE0546C8E72E46D0E70126354603E065
:103E3000302BDBD001263546236813F4805F3BD05E
:103E4000E36DB3F5005F2FD016D83BB3B3F5805FB9
:103E50000FD1002104F10800FFF7E2FD054611E053
:103E6000022104F10800FFF7DBFD0546BEE72E4600
:103E7000E2E7012635461FE0B3F5405F02D0B3F517
:103E8000804F08D1BDB91B4A136D23F4E043E16DA7
:103E90000B43136510E0012635460DE0154AD36A41
:103EA00043F40033D362EDE7002104F12800FFF76B
:103EB0003DFE0546E6E72E46236813F4005F29D051
:103EC000236EB3F5003F44D019D843B1B3F5803F1A
:103ED00012D1012104F10800FFF7A2FD0546002DD3
:103EE0003ED1044A136D23F4E023216E0B43136586
:103EF00010E000BF00440258012635460AE0B3F541
:103F0000802FECD0B3F5A02FE9D0B3F5403FE6D039
:103F100001263546236813F4804F31D0D4F8AC30F5
:103F2000B3F1005F45D020D843B1B3F1805F19D120
:103F3000012104F10800FFF773FD0546002D3FD174
:103F40008F4A936D23F0E043D4F8AC100B43936594
:103F500016E0012104F12800FFF7E8FD0546BEE761
:103F60002E46D7E7012635460AE0B3F1804FE5D06B
:103F7000B3F1A04FE2D0B3F1405FDFD00126354668
:103F8000236813F4004F09D0E36EB3F1805F19D0BA
:103F9000B3F1005F24D0D3B101263546236813F076
:103FA000807F33D0A36C032B5BD8DFE803F027229C
:103FB0005327012104F12800FFF7B8FD0546BDE7AE
:103FC0002E46DDE76E4AD36A43F40033D36275B9F7
:103FD0006B4A136D23F04053E16E0B431365DDE72D
:103FE000012104F10800FFF71BFD0546EFE72E460F
:103FF000D4E7634AD36A43F40033D362A5BB604A73
:10400000D36C23F00303A16C0B43D364236813F434
:10401000800F2BD1236813F0010F00F0A380A36F52
:10402000282B00F29D80DFE803F08B9B9B9B9B9BE2
:104030009B9B859B9B9B9B9B9B9B949B9B9B9B9BED
:104040009B9B8B9B9B9B9B9B9B9B8B9B9B9B9B9BE0
:104050009B9B8B00022104F10800FFF7E1FC054661
:10406000CCE701263546D1E72E46CFE7454A13680F
:1040700043F480731360FDF7F9F90746414B1B6861
:1040800013F4807F05D1FDF7F1F9C01B6428F5D941
:104090000325002D4AD13A4B1B6FD4F8B020534072
:1040A00013F4407F0CD0364B1A6F22F44072196F14
:1040B00041F480311967196F21F4803119671A674B
:1040C000D4F8B030B3F5807F15D08DBBD4F8B030C4
:1040D00003F44072B2F5407F1ED0294A136923F4DD
:1040E0007C53136126490B6FD4F8B020C2F30B0246
:1040F00013430B678EE7FDF7B9F90746204B1B6F9B
:1041000013F0020FE1D1FDF7B1F9C01B41F2883382
:104110009842F3D90325D8E71948026922F47C5262
:10412000194901EA131313430361DBE72E4671E7D4
:104130002E466FE7012104F10800FFF771FC0546E8
:10414000E5B90F4A536D23F03803A16F0B43536554
:1041500008E0012104F12800FFF7E8FC0546EFE73D
:1041600001263546236813F0020F1DD0636F052B1F
:104170002ED8DFE803F0110B261111112E46F1E7BE
:104180000044025800480258CFFFFF00012104F10B
:104190000800FFF745FC0546EDB9A94A536D23F029
:1041A0000703616F0B435365236813F0040F23D09B
:1041B000D4F89030052B45D8DFE803F0150F3D15F6
:1041C0001515012104F12800FFF7B0FC0546E3E7CF
:1041D00001263546E8E72E46E6E7012104F108000E
:1041E000FFF71EFC054685BB954A936D23F0070338
:1041F000D4F890100B439365236813F0200F34D04C
:10420000D4F88C30B3F1005F4ED023D843B1B3F172
:10421000805F1CD1002104F10800FFF701FC054676
:10422000002D48D1864A536D23F0E043D4F88C101A
:104230000B43536519E0012104F12800FFF776FCD8
:104240000546D0E701263546D6E72E46D4E70126B7
:1042500035460AE0B3F1804FE2D0B3F1A04FDFD092
:10426000B3F1405FDCD001263546236813F0400FE0
:1042700031D0D4F89830B3F5006F4DD020D843B189
:10428000B3F5806F19D1002104F10800FFF7C8FBD6
:104290000546002D47D16A4A936D23F4E053D4F8C4
:1042A00098100B43936516E0022104F12800FFF7F4
:1042B0003DFC0546B4E72E46D7E7012635460AE021
:1042C000B3F5805FE5D0B3F5A05FE2D0B3F5406F02
:1042D000DFD001263546236813F0800F33D0D4F8A1
:1042E0009C30B3F5804F00F0A18021D843B1B3F5E5
:1042F000005F1AD1002104F10800FFF791FB054689
:10430000002D40F09A804E4A936D23F46043D4F818
:104310009C100B43936516E0022104F12800FFF77F
:1043200005FC0546B5E72E46D5E7012635460AE0E9
:10433000B3F5004FE4D0B3F5204FE1D0B3F5C04F53
:10434000DED001263546236813F0080F0CD0D4F8D0
:104350008030B3F5805F75D0394A536D23F44053F4
:10436000D4F880100B435365236813F0100F0CD062
:10437000D4F89430B3F5807F6DD0314A936D23F437
:104380004073D4F894100B439365236813F4002F03
:104390000BD0D4F8A030B3F5803F75D0B3F5003F13
:1043A00068D0002B60D001263546236813F4802F97
:1043B0000CD0D4F88430B3F5001F7DD0B3F5401F86
:1043C00070D0B3F5801F68D001263546236813F4FA
:1043D000803F08D0236D002B77D0B3F5803F00F0ED
:1043E000828001263546236813F0005F40F0848008
:1043F000236813F4003F00F08C80E36FB3F5807FF7
:1044000000F0DF8040F28280B3F5007F03D0B3F587
:10441000407F40F0D480002D40F0D980084A536D91
:1044200023F44073E16F0B43536572E0022104F102
:104430002800FFF77BFB054662E72E4683E700BFB7
:1044400000440258022104F12800FFF76FFB002806
:1044500082D0012680E7022104F12800FFF766FBE5
:1044600000288AD0012688E7002104F10800FFF720
:10447000D7FA05467DB9724A936D23F44033D4F8D8
:10448000A0100B43936590E7022104F12800FFF789
:104490004DFB0546EEE72E4687E7694AD36A43F4AB
:1044A0000033D3627DB9664A536D23F44013D4F8C8
:1044B00084100B43536589E7012104F12800FFF7BD
:1044C00035FB0546EEE72E4680E75D4AD36A43F4A6
:1044D0000033D36275B95A4AD36C23F48033216D0B
:1044E0000B43D3647FE7022104F10800FFF798FA39
:1044F0000546EFE72E4676E7022104F12800FFF794
:1045000015FB00283FF474AF012671E7002B82D021
:104510000126236813F4801F06D0494A136D23F047
:104520000043216F0B431365236813F4001F06D06B
:10453000434A136D23F08073A16E0B431365236808
:1045400013F0804F09D03E4B1A6922F400421A61E1
:104550001A69D4F8B4100A431A612368002B06DAEA
:10456000374AD36C23F04053616D0B43D364236807
:1045700013F4000F07D0324A536D23F44003D4F8EC
:1045800088100B435365636813F0010F21D16368F2
:1045900013F0020F26D1636813F0040F2BD1636868
:1045A00013F0080F30D1636813F0100F35D1636832
:1045B00013F0200F3AD106B101263046F8BD01268E
:1045C000A7E71F4AD36A43F40033D36223E72E469A
:1045D0009FE7002104F10800FFF722FA0028D6D057
:1045E0000646D4E7012104F10800FFF719FA002874
:1045F000D1D00646CFE7022104F10800FFF710FAF8
:104600000028CCD00646CAE7002104F12800FFF7B5
:104610008DFA0028C7D00646C5E7012104F128001D
:10462000FFF784FA0028C2D00646C0E7022104F151
:104630002800FFF77BFA0028BDD00646BBE700BF85
:104640000044025808B5FFF77BF9054B1B6AC3F31A
:104650000213044AD35C03F01F03D84008BD00BF17
:10466000004402586082000810B5774A916A946A43
:10467000C4F3053ED36AC3F3001CD36BC3F3CC036E
:104680000CFB03F314F47C3F00F0D88001F003012D
:1046900007EE903AF8EE677A012965D0022900F01A
:1046A000B080E1B107EE10EAB8EE477A9FED676A95
:1046B000C6EE076A644B9B6BC3F3080307EE103A20
:1046C000B8EE477A9FED626A67EE867A77EE277AD0
:1046D000B7EE007A77EE877A66EEA76A60E0136835
:1046E00013F0200F23D011461268C2F3C102594BB8
:1046F000D34007EE103AB8EE477A06EE90EAB8EEED
:10470000666AC7EE066A8B6BC3F3080307EE103ABE
:10471000B8EE477A9FED4E6A67EE867A77EE277A93
:10472000B7EE007A77EE877A66EEA76A38E007EE92
:1047300010EAB8EE477A9FED486AC6EE076A424B28
:104740009B6BC3F3080307EE103AB8EE477A9FED70
:10475000406A67EE867A77EE277AB7EE007A77EED0
:10476000877A66EEA76A1BE007EE10EAB8EE477A92
:104770009FED366AC6EE076A334B9B6BC3F30803A3
:1047800007EE103AB8EE477A9FED316A67EE867A07
:1047900077EE277AB7EE007A77EE877A66EEA76A29
:1047A000294A936BC3F3462307EE103AB8EE477AD3
:1047B000B7EE006A37EE067AC6EE877AFCEEE77A45
:1047C000C0ED007A936BC3F3064307EE103AB8EEE0
:1047D000477A37EE067AC6EE877AFCEEE77AC0EDC6
:1047E000017A936BC3F3066307EE903AF8EE677AAB
:1047F00077EE867A86EEA77ABCEEC77A80ED027AEB
:1048000010BD07EE10EAB8EE477A9FED146AC6EEC7
:10481000076A0D4B9B6BC3F3080307EE103AB8EE23
:10482000477A9FED0B6A67EE867A77EE277AB7EEC6
:10483000007A77EE877A66EEA76AB1E70023036015
:1048400043608360DCE700BF004402580024744AE0
:10485000000000390090D0030024744C20BCBE4BF3
:1048600010B5774A916A946AC4F3055ED36AC3F3BC
:10487000002C536CC3F3CC030CFB03F314F07C7FCC
:1048800000F0D88001F0030107EE903AF8EE677A65
:10489000012965D0022900F0B080E1B107EE10EAED
:1048A000B8EE477A9FED676AC6EE076A644B1B6CE9
:1048B000C3F3080307EE103AB8EE477A9FED626A39
:1048C00067EE867A77EE277AB7EE007A77EE877A08
:1048D00066EEA76A60E0136813F0200F23D011463C
:1048E0001268C2F3C102594BD34007EE103AB8EE3A
:1048F000477A06EE90EAB8EE666AC7EE066A0B6C77
:10490000C3F3080307EE103AB8EE477A9FED4E6AFC
:1049100067EE867A77EE277AB7EE007A77EE877AB7
:1049200066EEA76A38E007EE10EAB8EE477A9FED28
:10493000486AC6EE076A424B1B6CC3F3080307EED6
:10494000103AB8EE477A9FED406A67EE867A77EEC6
:10495000277AB7EE007A77EE877A66EEA76A1BE0D1
:1049600007EE10EAB8EE477A9FED366AC6EE076AA0
:10497000334B1B6CC3F3080307EE103AB8EE477ACB
:104980009FED316A67EE867A77EE277AB7EE007A86
:1049900077EE877A66EEA76A294A136CC3F346233B
:1049A00007EE103AB8EE477AB7EE006A37EE067AAD
:1049B000C6EE877AFCEEE77AC0ED007A136CC3F39B
:1049C000064307EE103AB8EE477A37EE067AC6EE9F
:1049D000877AFCEEE77AC0ED017A136CC3F30663C5
:1049E00007EE903AF8EE677A77EE867A86EEA77A47
:1049F000BCEEC77A80ED027A10BD07EE10EAB8EE81
:104A0000477A9FED146AC6EE076A0D4B1B6CC3F321
:104A1000080307EE103AB8EE477A9FED0B6A67EE8F
:104A2000867A77EE277AB7EE007A77EE877A66EEA7
:104A3000A76AB1E70023036043608360DCE700BF3F
:104A4000004402580024744A000000390090D0034A
:104A50000024744C20BCBE4B10B4036A046A24F0DA
:104A600001040462846924F0F00C4CEA021223F081
:104A70000A030B43826103625DF8044B704710B474
:104A8000036A046A24F010040462846924F4704CFC
:104A90004CEA023223F0A00343EA0113826103626D
:104AA0005DF8044B704700008268034B13400B43D2
:104AB00043F00703836070478FFFCFFF90F83D30CE
:104AC000DBB2012B42D1022380F83D300268D3686B
:104AD00043F00103D36003681E4AB3F1804F18BF4F
:104AE000934225D0A2F57C42934221D002F5806208
:104AF00093421DD002F58062934219D002F57842AC
:104B0000934215D0A2F56C42934211D002F5943233
:104B100093420DD0A2F5C042934209D002F58062C3
:104B2000934205D01A6842F001021A6000207047D3
:104B30009968094A0A40062A18BFB2F5803F07D093
:104B40001A6842F001021A60002070470120704785
:104B500000207047000001400700010070477047C7
:104B60007047704770B504460368DE681D6915F02C
:104B7000020F10D016F0020F0DD06FF002021A6172
:104B80000123037703689B6913F0030F64D0FFF7D9
:104B9000E6FF0023237715F0040F12D016F0040F60
:104BA0000FD023686FF004021A6102232377236871
:104BB0009B6913F4407F55D02046FFF7D0FF0023B8
:104BC000237715F0080F12D016F0080F0FD02368C6
:104BD0006FF008021A61042323772368DB6913F05E
:104BE000030F46D02046FFF7BAFF0023237715F0C6
:104BF000100F12D016F0100F0FD023686FF01002B4
:104C00001A61082323772368DB6913F4407F37D0C8
:104C10002046FFF7A4FF0023237715F0010F02D0F1
:104C200016F0010F33D115F4025F02D016F0800F99
:104C300035D115F4807F02D016F0800F37D115F0F2
:104C4000400F02D016F0400F39D115F0200F02D0DE
:104C500016F0200F3BD170BDFFF780FF2046FFF715
:104C60007FFF96E72046FFF779FF2046FFF778FFA2
:104C7000A5E72046FFF772FF2046FFF771FFB4E774
:104C80002046FFF76BFF2046FFF76AFFC3E7236864
:104C90006FF001021A612046FBF7A4FEC3E7236808
:104CA0006FF402521A61204600F0E5F9C1E723686B
:104CB0006FF480721A61204600F0DEF9BFE72368C6
:104CC0006FF040021A612046FFF74BFFBDE72368F3
:104CD0006FF020021A61204600F0CCF9BBE700001B
:104CE00030B50368424A904214BF4FF0000E4FF0B7
:104CF000010EB0F1804F14BF72464EF00102AAB906
:104D00003C4CA04214BF002401243B4DA8420DD0CE
:104D100064B904F1804404F58234A04214BF002435
:104D2000012405F50065A84200D01CB123F07003F2
:104D30004C68234362BB2F4A904214BF00220122D9
:104D40002D4CA04224D01ABB02F1804202F58232DF
:104D5000904214BF0022012204F50064A04217D043
:104D6000B2B9264A904214BF0022012204F59A34B7
:104D7000A0420DD062B9224A904214BF0022012203
:104D800004F50064A04203D012B91E4A904204D137
:104D900023F4407CCB6843EA0C0323F080034A6988
:104DA000134303608A68C2620A688262164A9042AC
:104DB00014BF73464EF0010363B9104B984214BF01
:104DC0000023012302F57052904203D013B90F4B18
:104DD000984201D10B69036301234361036913F016
:104DE000010F03D0036923F00103036130BD00BF4D
:104DF0000000014000080040000400400044014061
:104E000000E0004000E40040000401400048014090
:104E100060B310B5044690F83D3013B3022384F814
:104E20003D30214651F8040BFFF75AFF012384F867
:104E3000483084F83E3084F83F3084F8403084F8BD
:104E4000413084F8423084F8433084F8443084F8A8
:104E5000453084F8463084F8473084F83D300020EF
:104E600010BD80F83C30FCF733F8D7E701207047DD
:104E700010B4846824F47F4C42EA03220A4342EAD5
:104E80000C0282605DF8044B7047000090F83C30E3
:104E9000012B00F08F8010B50446012380F83C30D0
:104EA000022380F83D3002689068434B03409360D2
:104EB0000B68702B55D031D8502B6CD00CD9602B8F
:104EC0002AD1CA6849682068FFF7D9FD60212068A7
:104ED000FFF7EAFD002035E0402B0AD1CA68496897
:104EE0002068FFF7B9FD40212068FFF7DDFD0020B5
:104EF00028E05BD8202B07D003D9302B04D0012029
:104F000020E00BB1102B05D119462068FFF7CCFD2E
:104F1000002017E0012015E0012013E0B3F5005F49
:104F20002CD00BD9254A9342EED012D9244A934271
:104F3000EAD010329342E7D0012003E0B3F5805F5E
:104F400036D10020012384F83D30002384F83C3022
:104F500010BDB3F5801FD7D0B3F1101FD4D00120FE
:104F6000F0E7CB684A6889682068FFF781FF22680C
:104F7000936843F0770393600020E3E7CB684A68C7
:104F800089682068FFF774FF2268936843F48043C0
:104F900093600020D6E7CA6849682068FFF75CFD87
:104FA00050212068FFF780FD0020CBE70120C9E7F2
:104FB0000120C7E7022070478800CEFF20001000C4
:104FC0003000100090F83C30012B4DD070B401231C
:104FD00080F83C30022380F83D3003685A689C68B2
:104FE000224E234DAB4218BFB34203D122F47002CC
:104FF0004D682A4322F070020D682A435A60036804
:105000001A4AB3F1804F18BF93421FD0A2F57C42D9
:1050100093421BD002F58062934217D002F5806262
:10502000934213D002F5784293420FD0A2F56C421E
:1050300093420BD002F59432934207D0A2F5C042BE
:10504000934203D002F58062934204D124F080049D
:105050008A6814439C60012380F83D30002380F867
:105060003C30184670BC7047022070470000014079
:1050700000040140704770477047026852E8003FE3
:1050800023F0C00342E800310029F6D1026802F1A2
:10509000080353E8003F23F40003083242E80031DC
:1050A0000029F3D12023C0F888307047026852E805
:1050B000003F23F4907342E800310029F6D10268E2
:1050C00002F1080353E8001F0D4B0B40083242E881
:1050D00000310029F3D1C36E012B06D02023C0F884
:1050E0008C300023C36643677047026852E8003F74
:1050F00023F0100342E800310029F6D1EEE700BFAB
:10510000FEFFFFEF1346D0F88820202A3DD110B5CE
:105110000446002B18BF002939D00165A0F854308F
:10512000A0F856300022C0F890202122C0F8882034
:10513000C26FCAB11749D163C26F17491164C26FF8
:105140001649D164C26F0021116502682832016DD1
:10515000C06FFCF7C5FD38B11023C4F89030202390
:10516000C4F8883001200FE0236840221A622268C8
:1051700002F1080353E8003F43F08003083242E89D
:1051800000310029F3D1002010BD0220704701201A
:10519000FAE700BF55520008C1520008CF5200087C
:1051A00038B50446D0F88820D0F88C5003689B6846
:1051B00013F0800F01D0212A08D023689B6813F0D8
:1051C000400F44D0222D20D0002041E0226802F17F
:1051D000080353E8003F23F08003083242E800311F
:1051E0000029F3D1E06F10B1FCF7C6FE18B92046D4
:1051F000FFF743FFE1E7E06FFDF732FD2028F6D12E
:105200001023C4F89030032022E0226802F1080342
:1052100053E8003F23F04003083242E80031002900
:10522000F3D1D4F8800010B1FCF7A6FE20B92046D7
:10523000FFF73CFF00200BE0D4F88000FDF710FDE5
:105240002028F4D11023C4F89030032000E000207F
:1052500038BD704708B50346806BDB69B3F5807FC6
:1052600018D00023A0F85630026802F1080353E872
:10527000003F23F08003083242E800310029F3D1D7
:10528000026852E8003F43F0400342E80031002941
:10529000F6D108BDFFF7DDFFFBE708B5026852E86D
:1052A000003F23F0400342E800310029F6D12023DB
:1052B000C0F8883000238367FFF7CBFF08BD704735
:1052C00008B5806BFFF7FBFF08BD7047704738B526
:1052D000846BD4F88820D4F88C5023689B6813F032
:1052E000800F01D0212A10D023689B6813F0400F53
:1052F00001D0222D10D0D4F8903043F01003C4F820
:1053000090302046FBF79EFA38BD0023A4F85630B3
:105310002046FFF7B2FEE7E70023A4F85E30204600
:10532000FFF7C4FEE7E708B5806B0023A0F85E3006
:10533000A0F85630FBF786FA08BD704770B50446F2
:105340000168CB6908688D6840F60F021A4008D1E1
:1053500013F0200F05D010F0200F34D115F0805F2E
:1053600031D12AB18B4A2A4033D18B4E304230D1D1
:10537000E26E012A00F0C68013F4801F03D015F4FA
:10538000800F40F09B8113F0800F07D010F0800F4A
:1053900040F09B8115F4000F40F0978113F0400F0F
:1053A00003D010F0400F40F0978113F4000F03D0AA
:1053B00010F0804F40F0948113F0807F02D00028DD
:1053C000C0F2928170BD636F002BFBD020469847DE
:1053D000F8E713F0010F09D010F4807F06D0012602
:1053E0000E62D4F890103143C4F8901013F0020FFD
:1053F0000BD015F0010F08D0216802260E62D4F8F8
:10540000901041F00401C4F8901013F0040F0BD079
:1054100015F0010F08D0216804260E62D4F8901010
:1054200041F00201C4F8901013F0080F0BD010F0F7
:10543000200F00D13AB1226808211162D4F89020DF
:105440000A43C4F8902013F4006F0CD010F0806F62
:1054500009D022684FF400611162D4F8902042F024
:105460002002C4F89020D4F89020002AAAD013F08B
:10547000200F09D010F0200F02D115F0805F03D06B
:10548000636F0BB120469847D4F8902023689B683F
:1054900013F0400F02D112F0280F2CD02046FFF756
:1054A00005FE23689B6813F0400F20D0226802F1AC
:1054B000080353E8003F23F04003083242E800317C
:1054C0000029F3D1D4F880306BB1344A1A65D4F88E
:1054D0008000FCF7F1FE00283FF474AFD4F88000A0
:1054E000036D98476EE72046FBF7ACF96AE7204664
:1054F000FBF7A8F966E72046FBF7A4F90023C4F8F8
:1055000090305FE713F0100F3FF436AF10F0100F3C
:105510003FF432AF10230B6223689B6813F0400FF7
:1055200000F09280D4F8802013681D481D498B42FA
:1055300018BF834238D018318B4235D018318B4296
:1055400032D018318B422FD018318B422CD01831E9
:105550008B4229D018318B4226D001F556718B42EF
:1055600022D018318B421FD018318B421CD01831F9
:105570008B4219D018318B4216D018318B4213D080
:1055800018318B4210D018318B420DD05B689BB222
:105590000CE000BF010000102001000427530008A8
:1055A00010000240280002405B689BB2002B3FF4D1
:1055B00009AFB4F85C1099427FF604AFA4F85E30EE
:1055C000D369B3F5807F32D0226852E8003F23F4DC
:1055D000807342E800310029F6D1226802F1080305
:1055E00053E8003F23F00103083242E8003100296C
:1055F000F3D1226802F1080353E8003F23F040038F
:10560000083242E800310029F3D12023C4F88C305D
:105610000023E366226852E8003F23F0100342E8CB
:1056200000310029F6D1D4F88000FCF7A5FC022354
:105630002367B4F85C10B4F85E309BB2C91A89B223
:105640002046FFF77AFEBDE6B4F85C10B4F85E3091
:105650009BB2C91A89B2B4F85E309BB2002B3FF4FA
:10566000B1AE00293FF4AEAE226852E8003F23F409
:10567000907342E800300028F6D1226802F1080356
:1056800053E8000F1A4B0340083242E8003000286C
:10569000F3D12023C4F88C300023E36663672268CB
:1056A00052E8003F23F0100342E800300028F6D112
:1056B000022323672046FFF740FE83E64FF4801362
:1056C0000B62204600F0C2FD7CE6A36F002B3FF486
:1056D00079AE2046984775E62046FFF7DEFD71E675
:1056E000204600F0B5FD6DE6204600F0B0FD69E60D
:1056F000FEFFFFEF08B5806B01230367C36E012B2C
:1057000002D0FFF7E3FD08BDB0F85C104908FFF7D1
:1057100014FEF8E708B50346806BDB69B3F5807FBC
:1057200029D00023A0F85E30026852E8003F23F43D
:10573000807342E800310029F6D1026802F10803C3
:1057400053E8003F23F00103083242E8003100290A
:10575000F3D1026802F1080353E8003F23F040034D
:10576000083242E800310029F3D12023C0F88C3000
:10577000C36E012B07D000230367C36E012B0CD02F
:10578000FFF7A3FD08BD026852E8003F23F01003B5
:1057900042E800310029F6D1EDE7B0F85C10FFF7E0
:1057A000CCFDEFE770B586B00446016883680269F6
:1057B000134342691343C26913430868904A024085
:1057C00013430B602268536823F44053E1680B4392
:1057D0005360A16922688B4B9A4201D0236A194316
:1057E0009068894B03400B4393602268D36A23F08F
:1057F0000F03616A0B43D3622268844B9A4229D01B
:10580000834B9A4200F09480824B9A4200F0AA8027
:10581000814B9A4200F0C080804B9A4200F0D680C3
:105820007F4B9A4200F008817E4B9A4200F02D8116
:105830007D4B9A4200F040817C4B9A4200F05381AC
:105840007B4B9A4200F078816E4B9A4200F09D812A
:10585000802333E0774B5B6D03F03803282B65D84A
:10586000DFE813F029006400640064006400640051
:1058700064006400AB0164006400640064006400C0
:10588000640064002B006400640064006400640031
:10589000640064005E0064006400640064006400EE
:1058A00064006400600064006400640064006400DC
:1058B000640064006200012300E0082351498A4229
:1058C00000F09481E069B0F5004F00F00A82202BCF
:1058D00000F26282202B00F2AC82DFE813F0790242
:1058E0007F02AA02AA028202AA02AA02AA028702CE
:1058F000AA02AA02AA02AA02AA02AA02AA028C0266
:10590000AA02AA02AA02AA02AA02AA02AA02AA0237
:10591000AA02AA02AA02AA02AA02AA02AA02980239
:105920001023CBE72023C9E74023C7E78023C5E73F
:10593000404B5B6D03F00703052B11D8DFE813F034
:1059400006003F0108000A000C000E000023B5E726
:105950000823B3E71023B1E72023AFE74023ADE7E7
:105960008023ABE7334B5B6D03F00703052B11D8A6
:10597000DFE813F00600270108000A000C000E0003
:1059800000239BE7082399E7102397E7202395E757
:10599000402393E7802391E7264B5B6D03F00703D9
:1059A000052B11D8DFE813F006000F0108000A00EC
:1059B0000C000E00002381E708237FE710237DE71A
:1059C00020237BE7402379E7802377E7194B5B6D42
:1059D00003F00703052B11D8DFE813F00600F700EA
:1059E00008000A000C000E00002367E7082365E7A3
:1059F000102363E7202361E740235FE780235DE70F
:105A0000F369FFCF000C0058FFF4FF1100100140B4
:105A10000044004000480040004C0040005000405E
:105A20000014014000780040007C00400018014054
:105A3000001C014000440258694B5B6D03F03803C1
:105A4000282B20D8DFE803F0151F1F1F1F1F1F1F63
:105A5000C31F1F1F1F1F1F1F171F1F1F1F1F1F1FBA
:105A6000191F1F1F1F1F1F1F1B1F1F1F1F1F1F1F50
:105A70001D00012322E7082320E710231EE720232F
:105A80001CE740231AE7802318E7554B5B6D03F0B2
:105A90000703052B0ED8DFE803F0039C0507090B6D
:105AA00000230BE7082309E7102307E7202305E776
:105AB000402303E7802301E7494B5B6D03F00703B5
:105AC000052B0ED8DFE803F003870507090B002339
:105AD000F4E60823F2E61023F0E62023EEE6402366
