:020000040800F2
:10000000000005243D540008CD480008CF480008F2
:10001000D1480008D3480008D54800080000000077
:10002000000000000000000000000000F1B7000820
:10003000D74800080000000091B800083DB500084E
:100040008D5400088D5400088D5400088D5400080C
:100050008D5400088D5400088D5400088D540008FC
:100060008D5400088D5400088D540008D9480008AC
:10007000E9480008F9480008094900088D540008BB
:100080008D5400088D5400088D540008194900084B
:100090002949000839490008494900088D540008D9
:1000A0008D5400088D5400088D5400088D540008AC
:1000B000594900088D540008694900088D5400080A
:1000C0008D5400088D5400088D5400088D5400088C
:1000D0008D540008794900088D5400088D5400089B
:1000E0008D5400088D540008000000008D54000855
:1000F0008D5400088D5400088D5400088D5400085C
:100100008D5400088D5400088D5400088D5400084B
:100110008D5400089D490008C14900088D5400080D
:100120008D5400088D5400088D540008D1490008F2
:10013000E14900088D5400088D5400088D540008D2
:1001400000000000000000000000000000000000AF
:100150008D5400088D540008F14900088D540008A2
:100160008D5400088D5400088D5400088D540008EB
:100170008D5400088D5400088D54000800000000C4
:100180008D5400088D540008014A00088D54000861
:100190008D5400088D5400088D5400088D540008BB
:1001A0008D5400088D5400088D5400080000000094
:1001B0008D5400088D5400088D5400088D5400089B
:1001C0008D5400088D54000800000000000000005D
:1001D00000000000000000008D5400080000000036
:1001E000000000000000000000000000000000000F
:1001F00000000000000000008D5400088D5400082D
:100200008D5400088D540008000000008D54000833
:100210008D5400088D5400088D5400088D5400083A
:100220008D540008000000008D54000800000000FC
:100230008D5400088D540008000000008D54000803
:100240008D5400088D5400088D5400088D5400080A
:100250008D5400088D5400088D5400088D540008FA
:100260008D5400088D5400088D5400088D540008EA
:100270008D5400088D5400088D54000800000000C3
:100280008D5400088D5400088D5400088D540008CA
:10029000000000008D5400088D540008000000008C
:1002A000000000008D5400088D5400088D54000893
:1002B000254A00088D5400088D540008494A00085A
:0C02C000594A00088D5400088D540008B5
:1002D00010B5054C237833B9044B13B10448AFF380
:1002E00000800123237010BD60080024000000007E
:1002F00094E8000808B5034B1BB103490348AFF36A
:10030000008008BD000000006408002494E8000894
:1003100081F0004102E000BF83F0004330B54FEAB6
:1003200041044FEA430594EA050F08BF90EA020F23
:100330001FBF54EA000C55EA020C7FEA645C7FEAB6
:10034000655C00F0E2804FEA5454D4EB5555B8BFD9
:100350006D420CDD2C4480EA020281EA030382EA4A
:10036000000083EA010180EA020281EA0303362DDC
:1003700088BF30BD11F0004F4FEA01314FF4801CAF
:100380004CEA113102D0404261EB410113F0004FC1
:100390004FEA03334CEA133302D0524263EB430378
:1003A00094EA050F00F0A780A4F10104D5F1200E16
:1003B0000DDB02FA0EFC22FA05F2801841F1000171
:1003C00003FA0EF2801843FA05F359410EE0A5F145
:1003D00020050EF1200E012A03FA0EFC28BF4CF076
:1003E000020C43FA05F3C01851EBE37101F000452C
:1003F00007D54FF0000EDCF1000C7EEB00006EEB39
:100400000101B1F5801F1BD3B1F5001F0CD34908C2
:100410005FEA30004FEA3C0C04F101044FEA445219
:1004200012F5800F80F09A80BCF1004F08BF5FEAA0
:10043000500C50F1000041EB045141EA050130BD80
:100440005FEA4C0C404141EB0101013C28BFB1F592
:10045000801FE9D291F0000F04BF01460020B1FADD
:1004600081F308BF2033A3F10B03B3F120020CDAB0
:100470000C3208DD02F1140CC2F10C0201FA0CF08E
:1004800021FA02F10CE002F11402D8BFC2F1200CF3
:1004900001FA02F120FA0CFCDCBF41EA0C019040A9
:1004A000E41AA2BF01EB0451294330BD6FEA0404F2
:1004B0001F3C1CDA0C340EDC04F11404C4F12002DD
:1004C00020FA04F001FA02F340EA030021FA04F3EF
:1004D00045EA030130BDC4F10C04C4F1200220FA46
:1004E00002F001FA04F340EA0300294630BD21FA84
:1004F00004F0294630BD94F0000F83F4801306BF4A
:1005000081F480110134013D4EE77FEA645C18BF3D
:100510007FEA655C29D094EA050F08BF90EA020FD4
:1005200005D054EA000C04BF1946104630BD91EACC
:10053000030F1EBF0021002030BD5FEA545C05D1CF
:100540004000494128BF41F0004130BD14F580040E
:100550003CBF01F5801130BD01F0004545F0FE4182
:1005600041F470014FF0000030BD7FEA645C1ABFB7
:10057000194610467FEA655C1CBF0B46024650EAEE
:10058000013406BF52EA033591EA030F41F400211A
:1005900030BD00BF90F0000F04BF0021704730B5A0
:1005A0004FF4806404F132044FF000054FF0000175
:1005B00050E700BF90F0000F04BF0021704730B536
:1005C0004FF4806404F1320410F0004548BF40420B
:1005D0004FF000013EE700BF42004FEAE2014FEA60
:1005E00031014FEA02701FBF12F07F4393F07F4F3B
:1005F00081F06051704732F07F4208BF704793F03E
:100600007F4F04BF41F40021704730B54FF4607450
:1006100001F0004521F000411CE700BF50EA010253
:1006200008BF704730B54FF000050AE050EA0102FC
:1006300008BF704730B511F0004502D5404261EB6C
:1006400041014FF4806404F132045FEA915C3FF4AD
:10065000D8AE4FF003025FEADC0C18BF03325FEA4A
:10066000DC0C18BF033202EBDC02C2F1200300FAFB
:1006700003FC20FA02F001FA03FE40EA0E0021FA20
:1006800002F11444BDE600BF70B54FF0FF0C4CF40E
:10069000E06C1CEA11541DBF1CEA135594EA0C0FC0
:1006A00095EA0C0F00F0DEF82C4481EA030621EAFB
:1006B0004C5123EA4C5350EA013518BF52EA033536
:1006C00041F4801143F4801338D0A0FB02CE4FF0E8
:1006D0000005E1FB02E506F00042E0FB03E54FF018
:1006E0000006E1FB03569CF0000F18BF4EF0010E10
:1006F000A4F1FF04B6F5007F64F5407404D25FEA0C
:100700004E0E6D4146EB060642EAC62141EA5551BE
:100710004FEAC52040EA5E504FEACE2EB4F1FD0C00
:1007200088BFBCF5E06F1ED8BEF1004F08BF5FEA7E
:10073000500E50F1000041EB045170BD06F0004630
:1007400046EA010140EA020081EA0301B4EB5C04DD
:10075000C2BFD4EB0C0541EA045170BD41F48011D5
:100760004FF0000E013C00F3AB8014F1360FDEBFFA
:10077000002001F0004170BDC4F10004203C35DAD6
:100780000C341BDC04F11404C4F1200500FA05F359
:1007900020FA04F001FA05F240EA020001F00042FA
:1007A00021F0004110EBD37021FA04F642EB060170
:1007B0005EEA430E08BF20EAD37070BDC4F10C049A
:1007C000C4F1200500FA04F320FA05F001FA04F25E
:1007D00040EA020001F0004110EBD37041F100014A
:1007E0005EEA430E08BF20EAD37070BDC4F1200555
:1007F00000FA05F24EEA020E20FA04F301FA05F2BD
:1008000043EA020321FA04F001F0004121FA04F264
:1008100020EA020000EBD3705EEA430E08BF20EA34
:10082000D37070BD94F0000F0FD101F0004640006E
:1008300041EB010111F4801F08BF013CF7D041EAF0
:10084000060195F0000F18BF704703F000465200F4
:1008500043EB030313F4801F08BF013DF7D043EAC5
:100860000603704794EA0C0F0CEA135518BF95EA7B
:100870000C0F0CD050EA410618BF52EA4306D1D102
:1008800081EA030101F000414FF0000070BD50EA21
:10089000410606BF1046194652EA430619D094EAAB
:1008A0000C0F02D150EA013613D195EA0C0F05D195
:1008B00052EA03361CBF104619460AD181EA0301E9
:1008C00001F0004141F0FE4141F470014FF00000A1
:1008D00070BD41F0FE4141F4780170BD70B54FF03C
:1008E000FF0C4CF4E06C1CEA11541DBF1CEA1355BC
:1008F00094EA0C0F95EA0C0F00F0A7F8A4EB05049E
:1009000081EA030E52EA03354FEA013100F0888094
:100910004FEA03334FF0805545EA131343EA12635D
:100920004FEA022245EA111545EA10654FEA002612
:100930000EF000419D4208BF964244F1FD0404F5CB
:10094000407402D25B084FEA3202B61A65EB030527
:100950005B084FEA32024FF480104FF4002CB6EBE4
:10096000020E75EB030E22BFB61A754640EA0C0064
:100970005B084FEA3202B6EB020E75EB030E22BFA4
:10098000B61A754640EA5C005B084FEA3202B6EBE5
:10099000020E75EB030E22BFB61A754640EA9C00A4
:1009A0005B084FEA3202B6EB020E75EB030E22BF74
:1009B000B61A754640EADC0055EA060E18D04FEA32
:1009C000051545EA16754FEA06164FEAC30343EAD2
:1009D00052734FEAC2025FEA1C1CC0D111F4801F9F
:1009E0000BD141EA00014FF000004FF0004CB6E798
:1009F00011F4801F04BF01430020B4F1FD0C88BF37
:100A0000BCF5E06F3FF6AFAEB5EB030C04BFB6EB41
:100A1000020C5FEA500C50F1000041EB045170BD34
:100A20000EF0004E4EEA113114EB5C04C2BFD4EB61
:100A30000C0541EA045170BD41F480114FF0000EE5
:100A4000013C90E645EA060E8DE60CEA135594EA61
:100A50000C0F08BF95EA0C0F3FF43BAF94EA0C0F64
:100A60000AD150EA01347FF434AF95EA0C0F7FF4D9
:100A700025AF104619462CE795EA0C0F06D152EA2D
:100A800003353FF4FDAE1046194622E750EA410611
:100A900018BF52EA43067FF4C5AE50EA41047FF422
:100AA0000DAF52EA43057FF4EBAE12E74FF0FF3C87
:100AB00006E000BF4FF0010C02E000BF4FF0010C58
:100AC0004DF804CD4FEA410C7FEA6C5C4FEA430CD1
:100AD00018BF7FEA6C5C1BD001B050EA410C0CBF20
:100AE00052EA430C91EA030F02BF90EA020F002082
:100AF000704710F1000F91EA030F58BF994208BFE9
:100B000090422CBFD8176FEAE37040F001007047A5
:100B10004FEA410C7FEA6C5C02D150EA013C07D1FC
:100B20004FEA430C7FEA6C5CD6D152EA033CD3D047
:100B30005DF8040B704700BF8446104662468C4641
:100B40001946634600E000BF01B5FFF7B7FF002874
:100B500048BF10F1000F01BD4DF808EDFFF7F4FF9D
:100B60000CBF012000205DF808FB00BF4DF808ED28
:100B7000FFF7EAFF34BF012000205DF808FB00BF4B
:100B80004DF808EDFFF7E0FF94BF012000205DF86D
:100B900008FB00BF4DF808EDFFF7CEFF94BF012022
:100BA00000205DF808FB00BF4DF808EDFFF7C4FF1B
:100BB00034BF012000205DF808FB00BF4FEA410C64
:100BC0007FEA6C5C02D150EA013C0AD14FEA430C47
:100BD0007FEA6C5C02D152EA033C02D14FF0000084
:100BE00070474FF0010070474FEA4102B2F1E04315
:100BF00024BFB3F5001CDCF1FE5C0DD901F0004C04
:100C00004FEAC0024CEA5070B2F1004F40EB830053
:100C100008BF20F00100704711F0804F21D113F17F
:100C20003872BCBF01F00040704741F480114FEAB8
:100C30005252C2F11802C2F1200C10FA0CF320FA41
:100C400002F018BF40F001004FEAC1234FEAD3235E
:100C500003FA0CFC40EA0C0023FA02F34FEA4303C8
:100C6000CCE77FEA625307D150EA01331EBF4FF051
:100C7000FE4040F44000704701F0004040F0FE406C
:100C800040F40000704700BF80F0004002E000BF69
:100C900081F0004142001FBF5FEA410392EA030F67
:100CA0007FEA226C7FEA236C6AD04FEA1262D2EBB1
:100CB0001363C1BFD218414048404140B8BF5B42B6
:100CC000192B88BF704710F0004F40F4000020F04F
:100CD0007F4018BF404211F0004F41F4000121F065
:100CE0007F4118BF494292EA030F3FD0A2F10102AF
:100CF00041FA03FC10EB0C00C3F1200301FA03F1ED
:100D000000F0004302D5494260EB4000B0F5000F0F
:100D100013D3B0F1807F06D340084FEA310102F1CE
:100D20000102FE2A51D2B1F1004F40EBC25008BF80
:100D300020F0010040EA03007047490040EB00004A
:100D4000013A28BFB0F5000FEDD2B0FA80FCACF14B
:100D5000080CB2EB0C0200FA0CF0AABF00EBC25078
:100D600052421843BCBFD0401843704792F0000F66
:100D700081F4000106BF80F400000132013BB5E7B9
:100D80004FEA41037FEA226C18BF7FEA236C21D02F
:100D900092EA030F04D092F0000F08BF0846704794
:100DA00090EA010F1CBF0020704712F07F4F04D162
:100DB000400028BF40F00040704712F100723CBF75
:100DC00000F50000704700F0004343F0FE4040F49F
:100DD000000070477FEA226216BF08467FEA23635D
:100DE0000146420206BF5FEA412390EA010F40F448
:100DF000800070474FF0000304E000BF10F0004394
:100E000048BF40425FEA000C08BF704743F096437A
:100E100001464FF000001CE050EA010208BF704795
:100E20004FF000030AE000BF50EA010208BF70471C
:100E300011F0004302D5404261EB41015FEA010C31
:100E400002BF84460146002043F0B64308BFA3F129
:100E50008053A3F50003BCFA8CF2083AA3EBC2530B
:100E600010DB01FA02FC634400FA02FCC2F120022A
:100E7000BCF1004F20FA02F243EB020008BF20F061
:100E80000100704702F1200201FA02FCC2F12002C7
:100E900050EA4C0021FA02F243EB020008BF20EABC
:100EA000DC70704753B94AB9002908BF00281CBF3D
:100EB0004FF0FF314FF0FF3001F0DEB8ADF1080C1C
:100EC0006DE904CE00F006F8DDF804E0DDE9022368
:100ED00004B070472DE9F047089D04468E46002B6C
:100EE0004DD18A42944669D9B2FA82F252B101FADE
:100EF00002F3C2F1200120FA01F10CFA02FC41EAEE
:100F0000030E94404FEA1C48210CBEFBF8F61FFA72
:100F10008CF708FB16E341EA034306FB07F199420D
:100F20000AD91CEB030306F1FF3080F01F819942C0
:100F300040F21C81023E63445B1AA4B2B3FBF8F09A
:100F400008FB103344EA034400FB07F7A7420AD921
:100F50001CEB040400F1FF3380F00A81A74240F249
:100F600007816444023840EA0640E41B00261DB1B4
:100F7000D4400023C5E900433146BDE8F0878B42E9
:100F800009D9002D00F0EF800026C5E900013046A8
:100F90003146BDE8F087B3FA83F6002E4AD18B4282
:100FA00002D3824200F2F980841A61EB030301202C
:100FB0009E46002DE0D0C5E9004EDDE702B9FFDE18
:100FC000B2FA82F2002A40F09280A1EB0C014FEAC3
:100FD0001C471FFA8CFE0126200CB1FBF7F307FB20
:100FE000131140EA01410EFB03F0884208D91CEBC3
:100FF000010103F1FF3802D2884200F2CB80434660
:10100000091AA4B2B1FBF7F007FB101144EA01443E
:101010000EFB00FEA64508D91CEB040400F1FF31CD
:1010200002D2A64500F2BB800846A4EB0E0440EABB
:1010300003409CE7C6F12007B34022FA07FC4CEAC4
:10104000030C20FA07F401FA06F31C43F9404FEAB7
:101050001C4900FA06F3B1FBF9F8200C1FFA8CFECC
:1010600009FB181140EA014108FB0EF0884202FA20
:1010700006F20BD91CEB010108F1FF3A80F08880E1
:10108000884240F28580A8F102086144091AA4B29E
:10109000B1FBF9F009FB101144EA014100FB0EFE1F
:1010A0008E4508D91CEB010100F1FF346CD28E454E
:1010B0006AD90238614440EA0840A0FB0294A1EBDF
:1010C0000E01A142C846A64656D353D05DB1B3EB3C
:1010D000080261EB0E0101FA07F722FA06F3F1406C
:1010E0001F43C5E9007100263146BDE8F087C2F113
:1010F0002003D8400CFA02FC21FA03F3914001438B
:101100004FEA1C471FFA8CFEB3FBF7F007FB1036C3
:101110000B0C43EA064300FB0EF69E4204FA02F46F
:1011200008D91CEB030300F1FF382FD29E422DD9C2
:10113000023863449B1B89B2B3FBF7F607FB1633F7
:1011400041EA034106FB0EF38B4208D91CEB010177
:1011500006F1FF3816D28B4214D9023E6144C91AF7
:1011600046EA004638E72E46284605E70646E3E607
:101170001846F8E64B45A9D2B9EB020864EB0C0E11
:101180000138A3E74646EAE7204694E74046D1E720
:10119000D0467BE7023B614432E7304609E76444CE
:1011A000023842E703685A004CBF43F0004323F083
:1011B00000431844704700BF2DE9F84329B34F1E80
:1011C000044615463E464FF0000808EB060101EBC9
:1011D000D171491004EBC1094846FFF7E3FF03460C
:1011E000C80008308F42204409D0AB4209D8FFF72D
:1011F000D9FF0138A8420AD201F10108E5E7AB4264
:1012000005D9884501D04E1EDFE74FF0000948465A
:10121000BDE8F883012807D0022807D0044B002836
:101220000CBF1846002070470248704702487047BC
:10123000ED180008F1180008F518000830B5234B28
:1012400083B004468D1E3BB301A92846AFF300804E
:10125000E8B101992A46FFF7AFFF0146B8B1FFF7A1
:10126000A1FF4B68A064012B2CD0002B01F10400DE
:1012700024DBFFF797FF0023C4E913030368002B67
:1012800011DBFFF78FFF2061002003B030BD00238A
:101290000920236103B030BD0D4B0E49C91AC91096
:1012A00018460191D6E7C3F30360FFF7B3FF0028A8
:1012B000206114BF0020092003B030BD0123C4E920
:1012C0001303DBE7002323610520DEE700000000B5
:1012D00060EA000818EC00080368DA0710B5044655
:1012E00006D49B0700F1480009D500F05BFC236899
:1012F000590709D51A070ED5DB0613D510BD00F026
:1013000049FC23685907F5D404F1D00000F052FCE1
:1013100023681A07F0D404F5A87000F053FC236882
:10132000DB06EBD404F5E870BDE8104000F08EBC9D
:10133000092070470346006800B11844704700BF99
:10134000704700BF70B504460E46316C2046FFF76B
:1013500075FF054688B9326C6261236932462146C1
:10136000012098470828F0D0072806D12846316C7C
:10137000FFF7E6FF301D00F001FC0CF06BFF00BF33
:101380002DE9F0470D1DD0F80C80D0F818900746D5
:1013900014460FCDADF5727D0DF10C0CACE80F00CD
:1013A0000FCDACE80F000FCDACE80F0095E80F00B3
:1013B00002AE4FF0000E8CE80F00C6F800E020E00F
:1013C000336C7B614FF4F07231467AA800F056FE20
:1013D0003B697AAA394650469847889B73642146F0
:1013E000CDE9006905463B463A460120C047044620
:1013F000E0B94FF4F0727AA9304600F03FFE082DB4
:101400001AD1316C3846FFF719FF09345FFA84FAB4
:1014100005460028D4D0B36B73643A46CDE9006921
:101420003B464AF010010120C04700B1092528467B
:101430000DF5727DBDE8F087072DF7D12046316CA0
:10144000FFF77EFF03A800F099FB00BF406C7047D8
:10145000F0B5CB6B0B6401F1040C0E460546BCE8FD
:101460000F00F9B001AC0FC4BCE80F000FC4BCE81A
:101470000F000FC49CE80F004FF0FF3784E80F0007
:10148000009706E02B696A462946984708280446D3
:1014900008D110992846FFF7D1FE0028F2D0092084
:1014A00079B0F0BD6846FFF717FF062CF7D131463B
:1014B0002846FFF747FF00BFC160D96B82611964FE
:1014C000002219465CE700BF70B5C66843690B642B
:1014D000AEB903690A4604460D4601460220984704
:1014E000072805D008280FD129462046FFF72AFFF4
:1014F0003046296CFFF724FF281D00F03FFB012236
:10150000FFF73EFF0CF0A6FE0CF0A4FEC2681AB175
:10151000CA6B0A64002233E79AE700BF704700BF36
:10152000836801460BB1012018477047012912D08A
:1015300009D873B90F2A0CD800EB820218465368F9
:10154000009A136070470339012994BF01200220DB
:101550007047022070470846704700BF00B585B04D
:101560000A46002303A900911946FFF7DFFF0398FD
:1015700005B05DF804FB00BF012912D009D873B98A
:101580000F2A0CD800EB8200009A126842601846BD
:1015900070470339012994BF0120022070470220BF
:1015A00070470846704700BF10B584B0002303ACF5
:1015B000039200940A461946FFF7DEFF04B010BDFF
:1015C00070B5D36B136402F1040C05460C46BCE8FD
:1015D0000F00ADF50E7D0DF15C0EAEE80F00BCE81E
:1015E0000F00AEE80F00BCE80F00AEE80F009CE86B
:1015F0000F004FF0FF368EE80F00169610E0FFF751
:10160000D3FF214616A8A847034616AA6946082014
:1016100083B9049B9847052806460CD0092809D0B1
:1016200026996846FFF70AFE03466A460C2116A86B
:10163000002BE4D0092616A8FFF74EFE30460DF524
:101640000E7D70BD2DE9F04FCC6C89B01E4654F86C
:10165000043B06940D46174600F00308002E79D08F
:101660001A0C1B0405938DF81D200223D2B204EB43
:1016700082048DF81C302B6DB8F1020F08BFAC6BE3
:1016800013F001030CD005A9384600F079FB18B916
:10169000082009B0BDE8F08F092009B0BDE8F08F3F
:1016A000D4F800A0BAF1000FEDD0019300F00803C8
:1016B0000293022E4AD0B4F800A0B4F80290043489
:1016C000AB6C29F0010B0F2138469B44FFF746FF16
:1016D000834539D82AF001039B44834594BF0020F9
:1016E00001204FEA490303F002030AF0010A43EA2A
:1016F0000A03012B49D0022B32D0002BCCD1B8F1F8
:10170000000F02D0002840F0CD800434D4F800A0AF
:10171000BAF1000FCDD105A9384600F031FB002801
:10172000BAD1019B002BB3D00F213846FFF716FF2B
:101730000E2102463846FFF737FF38466A4A0F2126
:10174000FFF732FF0720A8E70020CAE7D4F804908B
:101750000834B5E71B0205930323ADF81C308AE774
:10176000236823F0004BB8F1000F45D128B1029A4D
:10177000002A5CD0BBF1000F74D0002B00DA0434D7
:101780000BF1010B04EB8B04C0E7B8F1000F19D18A
:10179000B0B163682268991C4FEAD2723FF47CAF03
:1017A00005F158010133049100F09080201DFFF7EE
:1017B000C1FD04AB01462846AFF3008000285BD191
:1017C0000834A3E70D213846D5F82090FFF7C6FE70
:1017D0008145F5D1AB6A9C42F2D12046FFF7E2FC8D
:1017E0000F2102463846FFF7DFFE38462A46002121
:1017F000FFF7DAFE072050E70D213846D5F8209094
:10180000FFF7ACFE814501D02368B6E7AB6A9C4286
:10181000FAD104230022C5E90B23E318C5F828B048
:101820006B632368002B59DB01230193A8E705F1C3
:101830005803CDF80C8004F1040AB04691461E46C8
:101840000EE050460496FFF775FD0022014604ABFA
:10185000284609F101090AF1040AAFF30080E0B952
:10186000D945EED10D213846FFF778FE049BAC62D6
:10187000C5E90803062010E781460D213846FFF729
:101880006DFEB9F1020F286225D12B46049A43F868
:101890002C2F6B62AC620620FFE646462368DDF81B
:1018A0000C806AE72046FFF77DFC04340246AC63F7
:1018B00028461446AFF3008000283FF4EDAE3846CA
:1018C00022460F21FFF770FE0720E6E60D2138467D
:1018D000FFF744FE2862049B6B62DBE70BF101001B
:1018E00004EB80007AE700BF000000000023A9E6B7
:1018F0000123A7E60223A5E62DE9F0430646C3B07F
:1019000015461C46042900F2BF80DFE801F09E570F
:10191000BD2D0300002C40F0B780102A00F2B480E7
:101920000368D80600F1F98020AF384600F098F936
:10193000B46B394600234FF0010C0CFA03F22A4233
:10194000204603F1010303D050F8042B0A6004463B
:10195000042B01F10401F0D13846B46300F076F9AC
:10196000002043B0BDE8F083032C40F08D8094B29A
:1019700004EB1243102B4FEA124500F285800368F6
:101980001F0700F1D28020AF384600F03DF9B26B5E
:1019900007EBC50154B10B46D01A01EBC401E400BA
:1019A0001D5843F8045B8B42FAD122443846B26397
:1019B00000F008F9002043B0BDE8F083012C4FEAA5
:1019C000124895B25CD0052C5ED108EB0509B9F13F
:1019D000200F59D8B8F10F0F79D9A946002D40F042
:1019E0008A80B36B6DB320AF4FF0000907EBC807D7
:1019F000043F03EBC50553F8041B47F8041FAB4233
:101A0000F9D1B9F1000F0FD06F464146102938BF08
:101A1000102107EBC101843903EBC90553F8040B0E
:101A200041F8040FAB42F9D1012C00F08680B8F1E7
:101A30000F0FB56347D9B9F1000F02D0684600F027
:101A4000B9F8002043B0BDE8F083ECB9806B2346C1
:101A50001FFA82FC0124371D04FA03F212EA0C0F6C
:101A6000014604D051F8042B47F8232008460133DF
:101A7000102BF1D115F40055E3D1B063284604E0F2
:101A800008EB0503102B03D9022043B0BDE8F08317
:101A9000B8F10F0FF8D83368DA0706D5304623F0CF
:101AA000030340F8483B00F079F820AF384600F0D7
:101AB00075F8B36B002D97D11D460435B5633846D4
:101AC00000F068F8BDE720A800F06CF8B3E7B9F1C2
:101AD000100F40D9A9F110093368D90708D523F0B0
:101AE0000103304643F0020340F8483B00F05EF843
:101AF000B9F1000F32D033685A0720D4B8F10F0F74
:101B000025D96F463846C8F1100500F057F8002D6A
:101B1000B36B7FF77AAF20AF68E723F01003336031
:101B200006F5E87000F09CF8FEE623F00803036079
:101B300000F5A87000F068F825E720AFBDE7304653
:101B400023F0040340F8D03B00F038F8D6E720A893
:101B500000F02CF8D5E74FF00009BDE7B8F10F0F02
:101B60003FF63FAF20AF384600F020F8B36B002DB2
:101B70007FF43AAF384600F015F862E700F134011F
:101B800091E838009C46A6464CF8045D90E8FF0FAB
:101B9000E54600BD90EC210B704700BF80EC210BA7
:101BA000704700BF90EC200B704700BF80EC200B0B
:101BB000704700BFD0EC200B704700BFC0EC200B7B
:101BC000704700BFF0EC0201F0EC0211F0EC0221D2
:101BD000F0EC0231F0EC0241F0EC0251F0EC026169
:101BE000F0EC0271F0EC0281F0EC0291F0EC02A159
:101BF000F0EC02B1F0EC02C1F0EC02D1F0EC02E149
:101C0000F0EC02F1704700BFE0EC0201E0EC0211E1
:101C1000E0EC0221E0EC0231E0EC0241E0EC0251A8
:101C2000E0EC0261E0EC0271E0EC0281E0EC029198
:101C3000E0EC02A1E0EC02B1E0EC02C1E0EC02D188
:101C4000E0EC02E1E0EC02F1704700BFB0FC018182
:101C5000B0FC0191B0FC01A1B0FC01B1704700BF24
:101C6000A0FC0181A0FC0191A0FC01A1A0FC01B19C
:101C7000704700BFEC4600B52DE900502DE9FF1F6D
:101C80004FF000032DE90C0001A9FFF7E1FBDDF89F
:101C900040E012B0704700BFEC4600B52DE900509F
:101CA0002DE9FF1F4FF000032DE90C0001A9FFF7FC
:101CB0000BFCDDF840E012B0704700BFEC4600B509
:101CC0002DE900502DE9FF1F4FF000032DE90C0016
:101CD00001A9FFF71BFCDDF840E012B0704700BF20
:101CE000EC4600B52DE900502DE9FF1F4FF0000331
:101CF0002DE90C0001ABFFF7DFFBDDF840E012B08F
:101D0000704700BFEC4600B52DE900502DE9FF1FDC
:101D10004FF000032DE90C0001AAFFF751FCDDF89C
:101D200040E012B0704700BF027A03467AB9427AA7
:101D3000A2B14168013A10B44272086803220C1D36
:101D40001A7202025C60000E10BC1A6070470068D4
:101D5000013A1A7202021A60000E7047B0207047F2
:101D600000B585B0002303AA009219460C22FFF7A4
:101D7000DDFB039805B05DF804FB00BFF0E700BF92
:101D80002DE9F043054685B00E464FF00008304679
:101D9000FFF7CAFFB028044600F0BA80070620D536
:101DA00000F0F003802B4DD0902B36D0A02B60D0CC
:101DB000B02B74D0C02B00F08B8000F0F803D02B38
:101DC0000BD100F007020132052342F40022012169
:101DD0002846FFF791FD0028D9D0092005B0BDE8BD
:101DE000F0838300DBB21F1D0DF10C09002319469F
:101DF000CDF800900D222846FFF798FB039BCDF805
:101E0000009060064CBFDF1BFF1800230D2219460F
:101E100028460397FFF7B0FBB9E700F00D030D2B41
:101E2000DBD003AF002300F00F02194600972846CD
:101E3000FFF77CFB002300970D2219462846FFF789
:101E40009BFBA4E73046FFF76FFF24022043B0F569
:101E5000004FC2D004010023A2B219462846FFF762
:101E60004BFD0028B9D114F4004F18BF4FF0010802
:101E70008DE7C24302F007034FF47F621A41010766
:101E800002F47F624FF0000348BF42F480421946DB
:101E90002846FFF731FD00283FF479AF9DE7B128D0
:101EA0003BD0B22800F09380B32841D000F0FC036F
:101EB000B42B92D000F007020132012342F4002239
:101EC00019462846FFF718FD00283FF460AF84E765
:101ED000C6284AD0C72854D000F0F803C02B63D0DE
:101EE000C82868D0C9287FF478AF3046FFF71CFFB8
:101EF000020300F00F0002F47022013002430121BE
:101F000005232846FFF7F8FC00283FF440AF64E7BC
:101F1000B8F1000F18D0002060E73046FFF704FF4B
:101F2000024600283FF459AF10F0F003C8D054E740
:101F30003046FFF7F9FE020300F00F03013302F40D
:101F400070221A430123BBE703AC43460E224146ED
:101F500000942846FFF7EAFA009443460F224146D0
:101F60002846FFF709FB404638E73046FFF7DCFE1E
:101F7000020300F00F03013302F470221A4303231B
:101F80009EE73046FFF7D0FE024600283FF425AF1B
:101F900010F0F0037FF421AF04212846FFF7ACFCDA
:101FA00000283FF4F4AE18E700F00F0201320323DB
:101FB00042F4202284E73046FFF7B6FE00F0F0023C
:101FC00000F00F031032013343EA023297E7002397
:101FD0000DF10C090D221946CDF800902846FFF7A7
:101FE000A5FA3046FFF7A0FE02064FF002040CD51A
:101FF000039B00F07F00A040184403903046FFF799
:1020000093FE030604F10704F2D4039BCDF800907D
:1020100000F07F02A24003F501731A4400230392EB
:1020200019460D222846FFF7A7FAB0E610B5C26C94
:10203000536884B04FF0030C08321C0208461B0E94
:1020400001A9019402928DF80CC08DF80D30FFF7B4
:1020500097FE04B010BD00BF08B5FFF78FFE806C7F
:1020600008BD00BF08B5FFF789FEC06CC379023315
:1020700000EB830008BD00BF704700BF844641EA03
:10208000000313F003036DD1403A41D351F8043BF0
:1020900040F8043B51F8043B40F8043B51F8043B42
:1020A00040F8043B51F8043B40F8043B51F8043B32
:1020B00040F8043B51F8043B40F8043B51F8043B22
:1020C00040F8043B51F8043B40F8043B51F8043B12
:1020D00040F8043B51F8043B40F8043B51F8043B02
:1020E00040F8043B51F8043B40F8043B51F8043BF2
:1020F00040F8043B51F8043B40F8043B51F8043BE2
:1021000040F8043B51F8043B40F8043B403ABDD250
:10211000303211D351F8043B40F8043B51F8043BF2
:1021200040F8043B51F8043B40F8043B51F8043BB1
:1021300040F8043B103AEDD20C3205D351F8043B81
:1021400040F8043B043AF9D2043208D0D2071CBF4D
:1021500011F8013B00F8013B01D30B880380604676
:10216000704700BF082A13D38B078DD010F00303EC
:102170008AD0C3F10403D21ADB071CBF11F8013B5C
:1021800000F8013B80D331F8023B20F8023B7BE7AB
:10219000043AD9D3013A11F8013B00F8013BF9D2D6
:1021A0000B7803704B7843708B7883706046704770
:1021B00008B5034801F0EEF801F0ACFB08BD00BF24
:1021C000AC09002410B582B0454A0DF1060145481E
:1021D00001F030FE002418E0434BD3ED0A7A9FED66
:1021E000437A77EEC77AC3ED0A7A3F4A4C2303FB62
:1021F0000422906A04EB440399003D4B0B4498621F
:10220000D16AD962126B1A630134032C66DCBDF803
:102210000630113BA342F7D14C2304FB03F31833E0
:102220002F493148184401F0F9F9BDF80630113B47
:10223000032BDAD801A252F823F000BFD9210008FD
:102240004D22000881220008C9220008264BD3ED48
:102250001D7AF1EE677AC3ED1D7A93ED1E7AB1EE29
:10226000477A83ED1E7A93ED1F7AB1EE477A83EDBC
:102270001F7A9FED207A77EE877AC3ED1D7AB4E757
:10228000194BD3ED307AFEEE006A67EEA67AC3ED05
:10229000307A93ED317A27EE267A83ED317AF1EEBA
:1022A000677AC3ED307AB1EE477A83ED317A93EDF8
:1022B000327AB1EE477A83ED327A9FED0F7A77EE7C
:1022C000C77AC3ED307A90E7074BD3ED437A9FEDA1
:1022D000077A77EE877AC3ED437A86E702B010BDBE
:1022E0007C080024281700242C0D0024F241EF3E26
:1022F000740A00240AA2923F832F304010B582B0A6
:102300004B4A0DF106014B4801F094FD042422E0F4
:10231000494BD3ED567A9FED497A77EE877AC3ED34
:10232000567A231F444A4C2101FB0422D2F828E0AC
:10233000434803EB430C4FEA8C010144C1F858E0D9
:10234000D2F82CC0C1F85CC0116B03EB43039A00B8
:10235000104401660134072C68DCBDF80630113BDF
:10236000A342F7D14C2304FB03F31833304932481E
:10237000184401F053F9BDF80630153B032BD0D8B3
:1023800001A252F823F000BF11230008992300088E
:10239000C5230008F9230008274BD3ED697AFEEE28
:1023A000006A67EEA67AC3ED697A93ED6A7A27EE42
:1023B000267A83ED6A7A9FED237A77EEC77AC3EDAA
:1023C000697AAEE71C4BD3ED7C7AF1EE677AC3ED08
:1023D0007C7A93ED7D7AB1EE477A83ED7D7A93ED49
:1023E0007E7AB1EE477A83ED7E7A9FED177A77EEAB
:1023F000C77AC3ED7C7A94E70F4BD3ED8F7AF1EE79
:10240000677AC3ED8F7A93ED907AB1EE477A83EDD8
:10241000907A93ED917AB1EE477A83ED917A9FEDC0
:10242000077A77EE877AC3ED8F7A7AE702B010BD2C
:1024300084080024C81700242C0D00240AA2923F0F
:10244000740A0024832F3040F241EF3E10B582B071
:10245000514A0DF10601514801F0ECFC08243EE020
:102460004F4BD3EDA27AFEEE006A67EEA67AC3ED7B
:10247000A27A93EDA37A27EE267A83EDA37AF1EE82
:10248000677AC3EDA27AB1EE477A83EDA37A93ED32
:10249000A47AB1EE477A83EDA47A9FED427A77EE83
:1024A000C77AC3EDA27AA4F108033D4A4C2101FB8F
:1024B0000422D2F828E03C4803EB430C4FEA8C019D
:1024C0000144C1F888E0D2F82CC0C1F88CC0116B6F
:1024D00003EB43039A001044C0F8901001340B2C16
:1024E00058DCBDF80630113BA342F7D14C2304FB66
:1024F00003F3183328492A48184401F08FF8BDF82F
:102500000630193B032BCED801A252F823F000BFAE
:1025100061240008212500085525000869250008C8
:102520001F4BD3EDB57AF1EE677AC3EDB57A93ED33
:10253000B67AB1EE477A83EDB67A93EDB77AB1EE1B
:10254000477A83EDB77A9FED197A77EE877AC3EDF4
:10255000B57AA8E7124BD3EDC87A9FED157A77EEDE
:10256000877AC3EDC87A9EE70D4BD3EDDB7AFEEE9A
:10257000006A67EEA67AC3EDDB7A93EDDC7A27EE8C
:10258000267A83EDDC7A9FED077A77EEC77AC3ED82
:10259000DB7A88E702B010BD8C080024681800249C
:1025A0002C0D0024832F3040740A0024F241EF3EAA
:1025B0000AA2923F0000000070B52DED028B1B04B3
:1025C0009DF8180043EA006343EA022241EA020050
:1025D000002A33DA9FED1E8AC0F3C7567F3EC0F350
:1025E00016000021FEF720FC06EE900A9FED197AF6
:1025F000C6EE877AB7EE007A77EE877AB8EEC88AA9
:1026000068EE277A17EE900AFDF7E6FF04460D46BE
:102610003046FDF7CFFF41EC110B9FED0B0B0AF09D
:102620003BFE53EC102B20462946FEF72DF8FEF713
:10263000DBFA00EE100ABDEC028B70BD9FED068A3E
:10264000CAE700BFAFF300800000000000000040B8
:10265000FFFFFFFFFEFFFF4A0100000030B583B01F
:1026600004460D4690F81131002B00F0B380002392
:10267000372B05DCE95CE21882F840100133F7E7FC
:1026800094F84A30009394F8493094F8482094F82C
:1026900047102046FFF790FF84ED2D0AB0EEC07A78
:1026A000F2EE047AB4EEE77AF1EE10FA40F1978098
:1026B000012384F8123184ED3A0A94F84E300093E5
:1026C00094F84D3094F84C2094F84B102046FFF7C6
:1026D00073FF84ED2E0A94F85230009394F8513031
:1026E00094F8502094F84F102046FFF765FF84EDD2
:1026F0002F0A94F85630009394F8553094F85420EB
:1027000094F853102046FFF757FF84ED300A94F8F1
:102710005A30009394F8593094F8582094F8571090
:102720002046FFF749FF84ED310A94F85E300093AC
:1027300094F85D3094F85C2094F85B102046FFF725
:102740003BFF84ED320A94F86230009394F86130D4
:1027500094F8602094F85F102046FFF72DFF84ED79
:10276000330A94F86630009394F8653094F8642046
:1027700094F863102046FFF71FFF84ED340A94F8A5
:102780006A30009394F8693094F8682094F86710E0
:102790002046FFF711FF84ED350A94F86E30009360
:1027A00094F86D3094F86C2094F86B102046FFF785
:1027B00003FF84ED360AD4F8C430C4F8F830D4F8F6
:1027C000C030C4F8F430D4F8C830C4F8FC3000236A
:1027D00084F8113194F810317BB300230AE0002310
:1027E00084F81231D4F8E830C4F8B43065E7EA5C14
:1027F000E25401333F2BFADDA37D0093637D227DFC
:10280000E17C2046FFF7D8FE84ED370AA37E0093D3
:10281000637E227EE17D2046FFF7CEFE84ED380AFE
:10282000A37F0093637F227FE17E2046FFF7C4FEF3
:1028300084ED390A002384F8103103B030BD7047AD
:10284000012800D0704708B54FF6FF73994200D0B9
:1028500008BD054A054906480AF018FD0323002B68
:10286000F6DB013BFBE700BF000000243F28000827
:10287000D0080024012309E0654AD2ED017A9FEDDA
:10288000657A77EE877AC2ED017A01330C2B00F37B
:10289000BD805A1E0B2AF8D801A151F822F000BFC2
:1028A00079280008D1280008ED280008152900081B
:1028B000292900083D2900085D2900087929000818
:1028C00095290008BD290008D9290008ED2900082C
:1028D0004F4AD2ED147A9FED507A77EEC77AC2ED67
:1028E000147AF1EE677AC2ED147ACEE7484AD2ED57
:1028F000277A9FED4A7A77EE877AC2ED277AF1EE52
:10290000677AC2ED277AB8EE007A67EE877AC2ED71
:10291000277ABAE73E4AD2ED3A7A9FED3E7A77EED1
:10292000C77AC2ED3A7AB0E7394AD2ED4D7A9FEDD7
:102930003A7A77EEC77AC2ED4D7AA6E7344AD2EDFD
:10294000607A9FED367A77EE877AC2ED607AB8EEDC
:10295000007A67EE877AC2ED607A96E72C4AD2ED6C
:10296000737A9FED2C7A77EE877AC2ED737AF1EE67
:10297000677AC2ED737A88E7254AD2ED867A9FEDB1
:10298000267A77EEC77AC2ED867AF1EE677AC2EDE3
:10299000867A7AE71E4AD2ED997A9FED207A77EE11
:1029A000877AC2ED997AF1EE677AC2ED997AB8EE3C
:1029B000007A67EE877AC2ED997A66E7144AD2ED1B
:1029C000AC7A9FED147A77EEC77AC2EDAC7AF1EE6D
:1029D000677AC2EDAC7A58E70D4AD2EDBF7A9FED27
:1029E0000E7A77EEC77AC2EDBF7A4EE7084AD2ED8B
:1029F000D27A9FED0A7A77EE877AC2EDD27AB8EE74
:102A0000007A67EE877AC2EDD27A3EE7704700BF60
:102A10002C0D0024F241EF3E0AA2923F832F30405A
:102A20000023036080F83830704700000E4B4FF0F1
:102A3000004159600022C3F8E820C3F8CC11C3F864
:102A4000B0220A4A1A65C3F83421C3F81822C3F821
:102A5000FC22074AC3F89C20C3F88021C3F86422F3
:102A6000C3F84823704700BF2C0D00243433F33FD4
:102A70009A9929C00E4B4FF0004159600022C3F8CB
:102A8000E820C3F8CC11C3F8B0220A4A1A65C3F88B
:102A90003421C3F81822C3F8FC22074AC3F89C204B
:102AA000C3F88021C3F86422C3F84823704700BFED
:102AB0002C0D0024CDCCCC3E333373BF0D4B0E49CF
:102AC00059600E4AC3F8E820C3F8CC11C3F8B0220D
:102AD0000B4A1A65C3F83421C3F81822C3F8FC2244
:102AE000084AC3F89C20C3F88021C3F86422C3F8C5
:102AF000482370472C0D0024CDCCCCBECDCCCC3E91
:102B0000CDCC8C3F000030C010B504460368002BCC
:102B100015DD40F2C31293423DD0B3F5E27F22DAD5
:102B2000322B2ED0B3F5AF7F3FD12046FFF7A2FF67
:102B30002046FFF79FFE23680133236003E090F8EF
:102B40003820002AE5D194F8383007EE903A184B37
:102B5000F8EE677AC3ED307AD4ED007AF8EEE77AD2
:102B6000C3ED317A10BDB3F57A7F1ED12046FFF751
:102B70005DFF2046FFF77EFE0023236084F8383097
:102B8000E1E72046FFF752FF2046FFF773FE236878
:102B900001332360D7E72046FFF790FF2046FFF779
:102BA00069FE236801332360CDE701332360CAE760
:102BB000F815002408B54FF6FF710120FFF740FE1D
:102BC00008BD000008B54FF40041034804F0ECFFD5
:102BD00000B9FEE708BD00BF0000025810B5194853
:102BE00006F05EFF64221849184800F0A1FF642235
:102BF0001749184800F09CFF64221749174800F055
:102C000097FF174C1749204600F0A2F8204600F025
:102C100043F91548FFF704FF0023144A82F8C63031
:102C2000134A82F81231FFF7CDFF01F0BBF800F034
:102C3000E9FD00F011FE08F08DFC01F0B1FC08F098
:102C40009BFCFEE7F8190024D01100248C1D002401
:102C5000CC120024481F002434120024201E00241B
:102C600028090024B41E002494080024AC09002480
:102C7000BC10002438B5002400E00134072C1ADC15
:102C80001E4B03EB840393ED007AF7EE007AB4EE6B
:102C9000677AF1EE10FAF0D1651CADB229461848FA
:102CA00000F095FD2946174800F091FD2946164889
:102CB00000F08DFDE1E7082400E001340B2C1BDC63
:102CC000A4F10803114A02EB830393ED007AF7EEB7
:102CD000007AB4EE677AF1EE10FAEED1A5B2294689
:102CE000074800F074FD2946064800F070FD2946AB
:102CF000054800F06CFDE0E738BD00BF3413002448
:102D000028170024C817002468180024B4130024CE
:102D100008B5FFF7AFFF012008F0A9FCF9E70000B4
:102D200010B5084C204600F07BFB0749204600F018
:102D30001DFC3321054801F0FBF8012008F097FC49
:102D4000EFE700BF740A0024481F00248C1D0024F4
:102D500008B5844608460B6810221A620A68136890
:102D600043F0100313601922614608F02FFB08BDE1
:102D7000CB7D002B40F08F804B788A7843EA02238A
:102D8000C3F30A0343868A78CB785B0143EAD20314
:102D9000C3F30A038386CA780B799B0043EA921334
:102DA0004A7943EA8223C3F30A03C3864A798B79BB
:102DB000DB0143EA5203C3F30A0303878A79CB7921
:102DC0001B0143EA1213C3F30A034387CA790B7A40
:102DD0005B0043EAD2134A7A43EA4223C3F30A036D
:102DE00083874A7A8B7A9B0143EA9203C3F30A03EF
:102DF000C3878A7ACB7ADB0043EA5213A0F84030CB
:102E00000B7B4A7B43EA0223C3F30A03A0F8423058
:102E10004A7B8B7B5B0143EAD203C3F30A03A0F82E
:102E200044308A7BCB7B9B0043EA92130A7C43EAC3
:102E30008223C3F30A03A0F846300A7C4B7CDB01F3
:102E400043EA5203C3F30A03A0F848304A7C8B7C60
:102E50001B0143EA1213C3F30A03A0F84A308A7C29
:102E6000CB7C5B0043EAD2130A7D43EA4223C3F3DF
:102E70000A03A0F84C300A7D4B7D9B0143EA920384
:102E8000C3F30A03A0F84E304A7D8B7DDB0043EA92
:102E90005213A0F8503070474FF07E528265054BB8
:102EA000C36542668366044B0367044B4367002394
:102EB00083677047000080BFC3F54840C3F548C032
:102EC00008B52DED048B07EE901AF0EE408AB0EEB7
:102ED000608A9FED0C9A9FED0C1AF0EE490AB8EE4D
:102EE000670A01F015F830EE490A9FED087AC0EE46
:102EF000077A38EE688A27EE888A38EE280ABDEC11
:102F0000048B08BD00002C430040E24400C0CC44C8
:102F1000DFED0B7AB4EEE70AF1EE10FA09D4DFED3B
:102F2000097AB4EEE70AF1EE10FA05D59FED060A2C
:102F300070479FED040A70479FED040A704700BF79
:102F40000000FA4300007A440000C842000000007C
:102F5000DFED067AB4EEE70AF1EE10FA02D59FED46
:102F6000040A70479FED030A704700BF00007A44CF
:102F70000000C84200000000DFED057AB4EEE70A69
:102F8000F1EE10FA01D4012070470020704700BF15
:102F900000007A44DFED057AB4EEE70AF1EE10FAAC
:102FA00001DC002070470120704700BF00007A4418
:102FB00010B50446D0ED160A90ED170A818EFFF782
:102FC0007FFF84ED150AD4ED190A94ED1A0A618E7B
:102FD0002046FFF775FF84ED180AD4ED1C0A94ED26
:102FE0001D0A218F2046FFF76BFF84ED1B0AA38F7C
:102FF00000EE103AB8EE400A2046FFF789FFBDEE1A
:10300000C00A84ED1E0A638F00EE103AB8EE400A43
:103010002046FFF79DFF84ED1F0AB4F8423000EE12
:10302000103AB8EE400A2046FFF7A6FF84F8800069
:1030300058B1B4F8443000EE103AB8EE400A2046D9
:10304000FFF7A8FF84F8810010BD002384F88130C9
:10305000FAE713780F2B00D0704710B50446137EA3
:1030600003B110BD1146FFF783FE2046FFF7A0FF16
:10307000F7E708B5FFF7EDFF08BD0000000000000E
:1030800070B52DED028B1B049DF8180043EA006318
:1030900043EA022241EA0200002A33DA9FED1E8A47
:1030A000C0F3C7567F3EC0F316000021FDF7BCFEFB
:1030B00006EE900A9FED197AC6EE877AB7EE007A8F
:1030C00077EE877AB8EEC88A68EE277A17EE900A0C
:1030D000FDF782FA04460D463046FDF76BFA41ECE7
:1030E000110B9FED0B0B0AF0D7F853EC102B204679
:1030F0002946FDF7C9FAFDF777FD00EE100ABDEC91
:10310000028B70BD9FED068ACAE700BFAFF3008057
:103110000000000000000040FFFFFFFFFEFFFF4A2D
:10312000010000002DE9F04383B006460D46174626
:10313000002432E04FF00008C146B9F10B0F28DC43
:1031400008F1010208F1020308F10301334432449B
:1031500006EB0800314491F89010009193F89030FC
:1031600092F8902090F890103046FFF789FF09F10F
:10317000180306EB830383ED000A09F13E02194BA5
:1031800003EB820383ED000A09F1010908F1040849
:10319000D3E7012386F8C6300134A7421FDD22465B
:1031A0002B1993F833307F2BF6D12B1993F832304B
:1031B000802BF1D12B1993F83130002BECD12A441C
:1031C00092F83030002BE7D186F8C630332BB1DCD3
:1031D000E218A95CF21882F890100133F6E703B008
:1031E000BDE8F083F8150024012309E0654AD2ED1B
:1031F000017A9FED657A77EE877AC2ED017A013325
:103200000C2B00F3BD805A1E0B2AF8D801A151F8EF
:1032100022F000BFED31000845320008613200089D
:10322000893200089D320008B1320008D13200080E
:10323000ED32000809330008313300084D3300082F
:10324000613300084F4AD2ED147A9FED507A77EE41
:10325000C77AC2ED147AF1EE677AC2ED147ACEE73E
:10326000484AD2ED277A9FED4A7A77EE877AC2ED07
:10327000277AF1EE677AC2ED277AB8EE007A67EE28
:10328000877AC2ED277ABAE73E4AD2ED3A7A9FEDC5
:103290003E7A77EEC77AC2ED3A7AB0E7394AD2ED94
:1032A0004D7A9FED3A7A77EEC77AC2ED4D7AA6E76E
:1032B000344AD2ED607A9FED367A77EE877AC2EDA6
:1032C000607AB8EE007A67EE877AC2ED607A96E7A8
:1032D0002C4AD2ED737A9FED2C7A77EE877AC2ED85
:1032E000737AF1EE677AC2ED737A88E7254AD2EDF8
:1032F000867A9FED267A77EEC77AC2ED867AF1EE6E
:10330000677AC2ED867A7AE71E4AD2ED997A9FED06
:10331000207A77EE877AC2ED997AF1EE677AC2ED7C
:10332000997AB8EE007A67EE877AC2ED997A66E705
:10333000144AD2EDAC7A9FED147A77EEC77AC2EDDB
:10334000AC7AF1EE677AC2EDAC7A58E70D4AD2ED6D
:10335000BF7A9FED0E7A77EEC77AC2EDBF7A4EE75D
:10336000084AD2EDD27A9FED0A7A77EE877AC2EDDB
:10337000D27AB8EE007A67EE877AC2EDD27A3EE76B
:10338000704700BF2C0D0024F241EF3E0AA2923F8D
:10339000832F304008B590F8C6305BB91D4B93F8C9
:1033A00081308BB31C4B012283F838201A48FFF779
:1033B000ABFB08BD026E194BC3F8E820426EC3F8A0
:1033C0003421826EC3F88021C26E5A60026F1A6582
:1033D000426FC3F89C20826FC3F8B022C26FC3F85B
:1033E000FC22D0F88020C3F84823D0F88420C3F80A
:1033F000CC21D0F88820C3F81822D0F88C20C3F84C
:103400006422FFF7F1FEC9E7034B002283F838205E
:10341000CCE700BF28090024940800242C0D0024C8
:103420004F4BD3F80C21C0F8C820D3F85821C0F86E
:10343000CC20D3F8A421C0F8D0209A6AC0F8D420B8
:103440005A6FC0F8D820D3F8C020C0F8DC20D3F8D9
:10345000D422C0F8E020D3F82023C0F8E420D3F829
:103460006C23C0F8E820D3F8F021C0F8EC20D3F8A2
:103470003C22C0F8F020D3F88822C0F8F420D3F81A
:103480001021C0F8F820D3F85C21C0F8FC20D3F854
:10349000A821C0F80021DA6AC0F804219A6FC0F8A8
:1034A0000821D3F8C420C0F80C21D3F8D822C0F8E2
:1034B0001021D3F82423C0F81421D3F87023C0F8C6
:1034C0001821D3F8F421C0F81C21D3F84022C0F809
:1034D0002021D3F88C32C0F824314368C0F8283159
:1034E0008368C0F82C31C368C0F830310368C0F875
:1034F00034310369C0F838314369C0F83C3183691D
:10350000C0F84031174B5A6DC0F844211A6EC0F80C
:103510004821DA6EC0F84C21DB6FC0F8503123230C
:103520002E2B0EDCA3F123010D4A4FF04C0C0CFBAB
:103530000122916B03F1320200EB82021160013330
:10354000EEE7002309E003F1320200EB820211688A
:10355000054A02EB8302116001332F2BF3DD704724
:103560002C0D002428090024F815002438B50D4638
:10357000144C902200F1C8012046FEF77FFD002385
:1035800084F88C3084F88D30802384F88E307F234B
:1035900084F88F30042307E01A1F0A4810F802C08D
:1035A000094A02F803C00133932BF5DD0649EF23E6
:1035B0000B70FF234B708B70CB709422284606F063
:1035C000A1FE38BD040C0024940C002431EE601AD6
:1035D00030EE600A01238340013B07EE903AF8EE9B
:1035E000E77A60EE277A87EE817AFDEEC77A17EEEA
:1035F000900A704707EE900A70EEC00AF8EEE77A7C
:1036000067EEA00A01238B40013B07EE903AF8EEEB
:10361000E77A80EEA77A37EE000A7047F8B50446DD
:103620000D460B7803F00F0303700B781B094370F2
:103630004B78887840EA03206060CB780F793F09A7
:1036400047EA0317A7600E79360206F470664B79D5
:103650001E43E6601021F2EE090ABAEE090AFFF7EE
:10366000C9FF84ED040A0C21DFED100A9FED100A5A
:103670003846FFF7BFFF84ED050A0C21F3EE040A7C
:10368000BBEE040A3046FFF7B5FF84ED060AAB79BE
:1036900007EE903AF8EE677AC4ED077AEB7907EE19
:1036A000903AF8EE677AC4ED087AF8BD000034422B
:1036B000000034C22DE9F04F2DED048B83B080461D
:1036C0008946F0EE609AB0EE419AF0EE618AB0EE73
:1036D000428A1020B2EE091AFAEE090AFFF776FFC5
:1036E00082461FFA80FB0C209FED271ADFED270A88
:1036F000B0EE690AFFF76AFF87B2DFED259A0C206A
:103700009FED241AF0EE690AB0EE490AFFF75EFF5A
:10371000064684B20C20B1EE041AF0EE690AB0EE4F
:10372000680AFFF753FF85B20C20B3EE041AFBEED4
:10373000040AB0EE480AFFF749FF4FEA1B2B8DF849
:1037400000B08DF801A03B098DF80230240A44EA4C
:1037500007148DF803408DF804602B098DF80530AF
:10376000C0F3072343EA05158DF806508DF80700CE
:1037700008236A464946404600F048FB03B0BDECCA
:10378000048BBDE8F08F00BF00003442000034C25B
:10379000000000000000FA4300B583B0FF238DF85D
:1037A00000308DF801308DF802308DF803308DF83F
:1037B00004308DF805308DF80630FC238DF8073085
:1037C00008236A4600F022FB03B05DF804FB00B555
:1037D00083B0FF238DF800308DF801308DF8023072
:1037E0008DF803308DF804308DF805308DF80630F3
:1037F000FE238DF8073008236A4600F007FB03B06C
:103800005DF804FB70B500261AE0ACB2611C89B209
:103810000E48FFF7C1FF611D89B20D48FFF7BCFFDD
:1038200004F1090189B20B48FFF7B6FF0A2001F045
:103830006FFE0135032DE8DD0A2001F069FE013637
:10384000312E01DC0025F5E770BD00BF28170024EC
:10385000C81700246818002400210AE0064B4C22F7
:1038600002FB013300225A601A60DA601A619A6022
:1038700001310B29F2DD70472C0D0024214B9A6F8A
:10388000642A11D0B2F57A7F1FD052B1002236E0FF
:103890001D4B4C2101FB02330021D9601961996055
:1038A00001320B2AF4DD704700220BE0164B4C214D
:1038B00001FB02331549D9604FF07E511961002197
:1038C000996001320B2AF1DDEDE700220BE00E4B8F
:1038D0004C2101FB02330E49D9604FF07E51196132
:1038E0000021996001320B2AF1DDDCE7064B4C2107
:1038F00001FB02330021D9601961996001320B2A62
:10390000F4DDD0E7280900242C0D00240000A0409D
:103910000000C84170B52DED028BFFF7AFFF254BBE
:103920001B68032B02DD234B00221A60214D2968FE
:103930009FED218A214C4C2606FB01430131B0EE5C
:10394000482AD3ED041A93ED031AF0EE480A93EDDA
:10395000010A89B21A48FFF7ADFE29680B1D06FB64
:1039600003430531B0EE482AD3ED041A93ED031A50
:10397000F0EE480A93ED010A89B21248FFF79AFE69
:10398000296801F1080306FB03440931B0EE482A17
:10399000D4ED041A94ED031AF0EE480A94ED010AEE
:1039A00089B20948FFF786FE2B6801332B60BDEC16
:1039B000028B70BD280D0024000000002C0D002497
:1039C00028170024C81700246818002408B500F040
:1039D0009BFB08BD08B5024602490348FFF749FBB7
:1039E00008BD00BFB41E00242809002408B50A46FB
:1039F00001460248FFF796FB08BD00BFAC09002452
:103A00002DE9F04105460E46002409E0234800F167
:103A10007801FEF723FE3B78FC2B1ED00134E4B284
:103A2000B44239D2A0462F192B5DFC2BF3D17B7801
:103A3000412BF0D197F83730FD2BECD1174B0122F9
:103A400083F811210023372BE0DCE218A95C134A2C
:103A50001A4482F878100133F5E705EB08035B7828
:103A6000402BDBD1A84498F83F30FD2BD6D10B4B2F
:103A7000012283F81021002306E0E218A95C074A1E
:103A80001A4482F8781001333F2BF6DD034800F129
:103A90007801FEF7E3FDC1E7BDE8F081BC1000242A
:103AA00038B5FFF7ADFF204DD5F8CC301F4C236063
:103AB000D5F8D0306360D5ED357AF1EE677AC4ED94
:103AC000027AD5ED367AF1EE677AC4ED037AD5F84D
:103AD000E8302361D5ED2E7AF1EE677AC4ED057AF0
:103AE000D5ED2F7AF1EE677AC4ED067AD5F8DC30A1
:103AF000E361D5F8E00080F00040FCF76DFD08A31D
:103B0000D3E90023FCF70AFCFDF76EF82062D5ED3F
:103B1000397AF1EE677AC4ED097A38BDAFF30080E7
:103B20009A9999999999B93FBC100024740A002474
:103B300010B50468236843F01003236007F046FCC7
:103B400010BD00002DE9F0410446884615461F4689
:103B5000C06E40B12368DA6912F0100F5AD01B68AA
:103B600013F0100F56D0236810221A62204606F078
:103B700017FCFEB2D8F80010314A324B994218BFF8
:103B800091422DD0183399422AD01833994227D028
:103B90001833994224D01833994221D018339942CE
:103BA0001ED0183399421BD003F55673994217D093
:103BB0001833994214D01833994211D018339942CE
:103BC0000ED0183399420BD01833994208D01833CD
:103BD000994205D01833994202D04B68DBB201E01C
:103BE0004B68DBB2F61AF6B2174B9C4214D0174B57
:103BF0009C4216D0164B9C4218D0164B9C421AD0B1
:103C00003246002128460AF05DFB3A462946204606
:103C100007F0DCFBBDE8F08131462846FFF7D6FE11
:103C2000EEE731462846FFF7D5FEE9E7314628465C
:103C3000FFF7DCFEE4E731462846FFF731FFDFE718
:103C400010000240280002408C1D0024B41E0024F5
:103C5000481F0024201E0024002380F884300368BD
:103C6000DA6912F0080F08D008221A620368DA69CC
:103C70005A6A1A6842F010021A607047F0B58BB0A9
:103C800000240294039402250495012605960694C7
:103C90000794414F02A9384603F0BEFA0094234628
:103CA0002A462946384603F0FBFA32463146384662
:103CB00003F011FB02940394049505950694079470
:103CC00002A9384603F0A8FA009423462A4629465A
:103CD000384603F0E5FA32462946384603F0FBFA47
:103CE0000294039404950596069407942B4F02A919
:103CF000384603F091FA009423462A46294638466E
:103D000003F0CEFA32463146384603F0E4FA029424
:103D10000394049505950694079402A9384603F088
:103D20007BFA009423462A462946384603F0B8FA1F
:103D300032462946384603F0CEFA0294039404959D
:103D4000059606940794164F02A9384603F064FAC4
:103D5000009423462A462946384603F0A1FA324603
:103D60003146384603F0B7FA02940394049505955A
:103D70000694079402A9384603F04EFA00942346AD
:103D80002A462946384603F08BFA324629463846F9
:103D900003F0A1FA0BB0F0BD28170024C8170024C7
:103DA0006818002470B5FFF769FF154E304603F020
:103DB000C1FA144D284603F0BDFA134C204603F017
:103DC000B9FA00220121304603F0FEFB0022012156
:103DD000284603F0F9FB00220121204603F0F4FB02
:103DE00000221021304603F0EFFB0022102128466C
:103DF00003F0EAFB00221021204603F0E5FB70BD32
:103E000028170024C81700246818002400B58BB0B8
:103E1000019100210291039104930591069107916C
:103E20000891099101A903F09FFA00B101200BB09C
:103E30005DF804FB10B58AB00C4613460E4AD2ED6D
:103E4000007AF5EE407AF1EE10FA0AD16A46402186
:103E500003F0C6FA68B9009B23809DF80E000AB0F3
:103E600010BD6A46412103F0BBFA0028F3D00020C0
:103E7000F5E70020F3E700BF3013002411F0010F35
:103E800017D010B504460B4B00221A600A4B98421B
:103E900006D00A4B9C4206D0094B9C4206D010BD6E
:103EA000FEF790F9F5E7FEF729FAF5E7FEF7CEFA07
:103EB000F5E770473013002428170024C8170024A2
:103EC0006818002411F0100F18D010B504460C4BE0
:103ED0004FF07E521A600B4B984206D00A4B9C4220
:103EE00006D00A4B9C4206D010BDFEF76BF9F5E7F1
:103EF000FEF704FAF5E7FEF7A9FAF5E7704700BF09
:103F00003013002428170024C81700246818002440
:103F1000B4EEE00AF1EE10FA07D4B4EEC10AF1EE05
:103F200010FA04DDB0EE410A7047B0EE600A704747
:103F300070B505460C4C4FF4967632460B49204638
:103F4000FEF79CF8002384F8283184F82931802377
:103F500084F82A317F2384F82B31324621462846C3
:103F600006F0D0F970BD00BFCC140024F815002471
:103F700082B000230AE0D91C184A0A44117903F1DF
:103F800008026A4402F8041C0133DBB2032BF2D9A5
:103F90000138062808D8DFE800F004090D111519CA
:103FA0001D00019A0E4B1A6002B07047019A0C4B2B
:103FB0005A60F9E7019A0A4B9A60F5E7019A084BB3
:103FC000DA60F1E7019A064B1A61EDE7019A044BBA
:103FD0005A61E9E7019A024B9A61E5E7B4140024BB
:103FE0003414002482B000230AE0D91C1A4A0A447F
:103FF000117903F108026A4402F8041C0133DBB2B0
:10400000032BF2D90138072808D8DFE800F00409AB
:104010000D1115191D21019A104B1A6002B070473D
:10402000019A0E4B5A60F9E7019A0C4B9A60F5E73A
:10403000019A0A4BDA60F1E7019A084B1A61EDE741
:10404000019A064B5A61E9E7019A044B9A61E5E748
:10405000019A024BDA61E1E7B4140024341300241E
:1040600082B000230AE0D91C114A0A44117903F1F5
:1040700008026A4402F8041C0133DBB2032BF2D9B4
:104080000138032806D8DFE800F002070B0F019A79
:10409000084B1A6002B07047019A064B5A60F9E764
:1040A000019A044B9A60F5E7019A024BDA60F1E756
:1040B000B4140024B413002484B008B50DF1080C26
:1040C0008CE80F000F4B1B79FE2B03D0BDE8084096
:1040D00004B070470B4B5B79EF2BF7D1094B987904
:1040E000030900F00F00012B06D0022B07D0002B94
:1040F000ECD1FFF73DFFE9E7FFF774FFE6E7FFF7D5
:10410000AFFFE3E7B4140024F0B583B006460D46D4
:10411000002407E01E4B1A785A709B78142B21D884
:104120000134E4B2AC4230D2315D194B19709A7847
:10413000501C98701A4411713222DA705B78ED2BA2
:10414000E8D1DE29E6D1124F07F1100393E803000E
:104150008DE8030097E80F00FFF7AEFF00237B70A8
:10416000BB70D7E70A4B00229A7005E0084AD118C5
:104170000020087101339370054B9B78132BF5D900
:10418000034B00225A709A70CAE703B0F0BD00BF1B
:10419000B414002400B583B0294BD3F8D82042F0E2
:1041A0000202C3F8D820D3F8D82002F0020200920D
:1041B000009AD3F8D82042F00102C3F8D820D3F8EF
:1041C000D83003F001030193019B002211460B201C
:1041D00001F0C4F90B2001F0F7F9002211460C2080
:1041E00001F0BCF90C2001F0EFF9002205210D20AF
:1041F00001F0B4F90D2001F0E7F9002211460E207C
:1042000001F0ACF90E2001F0DFF9002211463B204D
:1042100001F0A4F93B2001F0D7F9002211463C201F
:1042200001F09CF93C2001F0CFF900221146462014
:1042300001F094F9462001F0C7F903B05DF804FBE2
:104240000044025810B51648164B036000238360E3
:10425000C360037443748374032444610A2282613B
:104260001D21C161026244628262C16202634363D2
:1042700001228263C36320210164042242648164B9
:10428000C264036542658365C365016643668266F1
:1042900002F078FE00B910BD00F034FAFBE700BF71
:1042A0002817002400A0004010B51748174B0360E2
:1042B00000238360C36003744374837403244461E4
:1042C0000A2282611D21C161026244628262C1626E
:1042D000026340F65302426301228263C3632021DA
:1042E0000164042242648164C2640365426583659B
:1042F000C36501664366826602F044FE00B910BDE4
:1043000000F000FAFBE700BFC817002400A400403B
:1043100010B51748174B036000238360C360037414
:1043200043748374032444610A2282611D21C161A4
:10433000026244628262C162026340F2AA62426324
:1043400001228263C36320210164042242648164E8
:10435000C264036542658365C36501664366826620
:1043600002F010FE00B910BD00F0CCF9FBE700BF71
:104370006818002400D4004030B5BBB004460021CA
:1043800035913691379138913991B82206A809F0C4
:1043900099FF23687B4A934208D07B4A934253D0CB
:1043A0007A4A934200F09E803BB030BD4FF4004209
:1043B0000023CDE906234FF08053219306A804F093
:1043C000E1FA80BB724A136801331360012B2DD0D0
:1043D000704BD3F8E02042F00802C3F8E020D3F895
:1043E000E03003F008030193019B0323359302237C
:1043F00036930024379438940923399335A96648B5
:1044000003F0C8FA22460521132001F0A7F8132073
:1044100001F0DAF822460521152001F09FF8152059
:1044200001F0D2F8C0E700F06DF9CBE7594BD3F8B3
:10443000EC2042F48072C3F8EC20D3F8EC3003F4A3
:1044400080730093009BC3E74FF400420023CDE943
:1044500006234FF08053219306A804F093FA80BB03
:104460004B4A136801331360012B2DD0494BD3F80D
:10447000E02042F00202C3F8E020D3F8E03003F07D
:1044800002030393039B6023359302233693002496
:10449000379438940923399335A9404803F07AFAC0
:1044A00022460521142001F059F8142001F08CF85F
:1044B00022460521162001F051F8162001F084F85B
:1044C00072E700F01FF9CBE7324BD3F8EC2042F44F
:1044D0008072C3F8EC20D3F8EC3003F480730293BD
:1044E000029BC3E74FF400420023CDE906234FF0BF
:1044F0008053219306A804F045FA88BB244A136828
:1045000001331360012B2ED0224BD3F8E02042F070
:104510000802C3F8E020D3F8E03003F00803059365
:10452000059B4FF440533593022336930024379470
:1045300038940525399535A9174803F02BFA2246FA
:1045400029469F2001F00AF89F2001F03DF82246FD
:104550002946A02001F002F8A02001F035F823E759
:1045600000F0D0F8CAE70B4BD3F8EC2042F480728D
:10457000C3F8EC20D3F8EC3003F480730493049B6D
:10458000C2E700BF00A0004000A4004000D40040EB
:104590002417002400440258000C0258000402585A
:1045A00008B5074A0021074807F002F8064B1860D3
:1045B000064A0021064806F0FBFF064B186008BDBE
:1045C00034E90008112D00080C19002410E9000836
:1045D000212D00080819002430B58DB0002407945F
:1045E000089409940A940B94394BD3F8E02042F0D4
:1045F0001002C3F8E020D3F8E02002F0100201928C
:10460000019AD3F8E02042F00402C3F8E020D3F886
:10461000E02002F004020292029AD3F8E02042F075
:104620008002C3F8E020D3F8E02002F08002039279
:10463000039AD3F8E02042F00102C3F8E020D3F857
:10464000E02002F001020492049AD3F8E02042F044
:104650000202C3F8E020D3F8E02002F00202059243
:10466000059AD3F8E02042F00802C3F8E020D3F81E
:10467000E03003F008030693069B164D01224FF429
:104680006041284603F097FA4FF4604307930123F3
:10469000089309940A9407A9284603F07BF94FF47C
:1046A000C05307930223089309940A94A5F5006563
:1046B00007A9284603F06EF94FF4004307930894C6
:1046C000099407A9284603F065F90DB030BD00BF75
:1046D000004402580008025810B504460268074B0F
:1046E0009A4204D02268064B9A4203D010BDFDF7CF
:1046F0005FFDF7E700F0FAFEF8E700BF00100040AA
:104700000008004072B6FEE700B59DB04C220021C3
:1047100009A809F0D7FD2022002101A809F0D2FD47
:10472000022003F04FFA00230093204B9A6922F4F1
:1047300040429A619B6903F440430093009B1B4BEA
:104740009B6913F4005FFAD0012209924FF4803381
:104750000A9302231293139314932821159116920E
:104760000422179218930C23199300231A931B9376
:1047700009A803F051FAA8B93F230193032102913C
:1047800000230393082304934023059306934FF4D7
:1047900080620792089301A803F02EFE20B91DB095
:1047A0005DF804FBFFF7AEFFFFF7ACFF00480258CF
:1047B00008B500F06DFEFFF7A7FFFFF70DFFFFF74D
:1047C000E9FC00F0B3FB00F0E5FB00F07BFB00F040
:1047D000D5F900F0F9FAFFF735FDFFF765FDFFF7B2
:1047E00097FD00F095FA00F031FBFEF7F7F906F0BF
:1047F000B1FEFFF7D5FE06F0BFFEFEE700B583B0C1
:104800000A4BD3F8F42042F00202C3F8F420D3F8A4
:10481000F43003F002030193019B00220F216FF09B
:10482000010000F09BFE03B05DF804FB0044025859
:104830000F2801D90120704710B58AB00446002224
:1048400001461E2000F08AFE1E2000F0BDFE1A4B1D
:104850001C601A4BD3F8E82042F00402C3F8E820A9
:10486000D3F8E83003F004030093009B01A902A8E9
:1048700003F052FF079BBBB903F02AFF0346104821
:10488000A0FB03239B0C013B0E480F4A026040F241
:10489000E732C260436000230361836005F0A2FA3F
:1048A00030B101200AB010BD03F012FF4300E6E76B
:1048B000044805F0F5F8F5E710000024004402581C
:1048C00083DE1B431019002400080040FEE7FEE7CA
:1048D000FEE7FEE7FEE7704708B5024801F084FEF8
:1048E00008BD00BF9C1C002408B5024801F07CFEF6
:1048F00008BD00BF141D002408B5024801F074FE75
:1049000008BD00BF441A002408B5024801F06CFE3F
:1049100008BD00BF341B002408B5024802F0ACFEFD
:1049200008BD00BF2817002408B5024802F0A4FE05
:1049300008BD00BFC817002408B5024802F09CFE5D
:1049400008BD00BF2817002408B5024802F094FEF5
:1049500008BD00BFC817002408B5024805F0F4F8E8
:1049600008BD00BFAC19002408B5024805F0ECF8FA
:1049700008BD00BF1019002410B5054C204605F0F5
:10498000DBFD6423034A04492046FFF7DBF810BD32
:104990008C1D0024D01100249C1C002410B5054C53
:1049A000204605F0C9FD3223034A04492046FFF79B
:1049B000C9F810BDB41E002498120024441A002423
:1049C00008B5024805F0C0F808BD00BFF81900247A
:1049D00008B5024801F008FE08BD00BF241C0024F1
:1049E00008B5024801F000FE08BD00BFBC1A002453
:1049F00008B5024801F0F8FD08BD00BFAC1B00245B
:104A000010B5054C204605F097FD6423034A044980
:104A10002046FFF797F810BD481F0024CC12002451
:104A2000BC1A002410B5054C204605F085FD642312
:104A3000034A04492046FFF785F810BD201E0024D4
:104A400034120024AC1B002408B5024802F014FE06
:104A500008BD00BF6818002408B5024802F00CFE2B
:104A600008BD00BF681800240120704708B509F090
:104A7000FFFB162303604FF0FF3008BD08B54FF071
:104A8000FF31FFF7F3FFFEE710B503460C4A0D496F
:104A90000D48006840B10C4800680344521A934224
:104AA00006D8094A136010BD0748084C0460F2E7B5
:104AB00009F0DEFB0C2303604FF0FF30F3E700BF8B
:104AC00000000524000400005C190024C8710024C3
:104AD000224AD2F8883043F47003C2F88830204B61
:104AE0001B6803F00F03062B06D81D4A136823F03A
:104AF0000F0343F0070313601A4B1A6842F00102D8
:104B00001A6000221A611968174A0A401A60144B89
:104B10001B6813F0080F06D0114A136823F00F0327
:104B200043F0070313600F4B00229A61DA611A62A7
:104B30000E4999620E49D9620E4919635A63996305
:104B4000DA6319645A64196821F4802119601A66BD
:104B5000094B43F2D2021A60704700BF00ED00E03B
:104B600000200052004402587FEDF6EA00020202E3
:104B70000000FF01800201010040005200B585B035
:104B800000230193029303930F48104A026040F2FE
:104B9000DF124260836040F2E733C36080238361A9
:104BA00005F020F950B900230193039301A90648A9
:104BB00005F008FB28B905B05DF804FBFFF7A2FD7E
:104BC000F1E7FFF79FFDF6E7F81900240010004019
:104BD00000B583B00368B3F1804F05D0184A934203
:104BE00018D003B05DF804FB164BD3F8E82042F070
:104BF0000102C3F8E820D3F8E83003F00103009382
:104C0000009B002205211C2000F0A8FC1C2000F0C5
:104C1000DBFCE6E70B4BD3F8E82042F01002C3F8C8
:104C2000E820D3F8E83003F010030193019B002241
:104C30000521362000F092FC362000F0C5FCD0E7BC
:104C4000001000400044025802680A4B9A4200D00B
:104C5000704782B0084BD3F8E82042F04002C3F816
:104C6000E820D3F8E83003F040030193019B02B041
:104C7000704700BF001800400044025800B589B0DA
:104C80000023039304930593069307930368B3F1FA
:104C9000804F05D01A4A934219D009B05DF804FB41
:104CA000184BD3F8E02042F00102C3F8E020D3F81B
:104CB000E03003F001030193019B012303930222DF
:104CC0000492079303A9104802F064FEE5E70D4B38
:104CD000D3F8E02042F00202C3F8E020D3F8E0303D
:104CE00003F002030293029B4FF400430393022359
:104CF0000493079303A9054802F04CFECDE700BFDB
:104D000000180040004402580000025800040258F5
:104D100000B58FB000230A930B930C930D93079368
:104D200008930993009301930293039304930593CB
:104D3000069324484FF08042026040F65F124260C2
:104D400083604FF47A72C26003618023836105F04F
:104D500049F838BB4FF480530A930AA9194805F063
:104D600095F910BB174805F06DF808BB00230793B1
:104D7000099307A9134805F025FAE0B960230093C9
:104D800041F2883301930223029300220492694680
:104D90000C4805F0D1F888B90A48FFF76FFF0FB04B
:104DA0005DF804FBFFF7AEFCD4E7FFF7ABFCD9E7F7
:104DB000FFF7A8FCDAE7FFF7A5FCDFE7FFF7A2FCA7
:104DC000EAE700BFAC19002400B58BB000230793BD
:104DD000089309930093019302930393049305931B
:104DE00006931848184A0260EF2242608360F92255
:104DF000C26003618023836105F024F8C8B90023F1
:104E00000793099307A90F4805F0DCF9A0B96023BF
:104E100000930023019302930493042269460948F6
:104E200005F08AF858B90748FFF728FF0BB05DF87E
:104E300004FBFFF767FCE2E7FFF764FCE7E7FFF737
:104E400061FCF0E7601900240018004008B51A481A
:104E50001A4B03601A4B43604FF4805383604FF446
:104E60000053C3604FF4806303610C23436100234C
:104E70008361C36103624362836206F01CFA70B906
:104E800000210D4806F010FB60B900210A4806F029
:104E900030FB50B9084806F0E8FA48B908BDFFF7FA
:104EA00031FCEDE7FFF72EFCEFE7FFF72BFCF1E716
:104EB000FFF728FCF2E700BFB41E002400500040BA
:104EC000A086010008B51748174B03604FF4612313
:104ED000436000238360C36003610C2242618361ED
:104EE000C36103624362836206F0E5F970B9002191
:104EF0000C4806F0D9FA60B900210A4806F0F9FA20
:104F000050B9084806F0B1FA48B908BDFFF7FAFBF6
:104F1000EDE7FFF7F7FBEFE7FFF7F4FBF1E7FFF74C
:104F2000F1FBF2E7481F00240078004008B517485D
:104F3000174B03604FF4E133436000238360C36089
:104F400003610C2242618361C36103624362836235
:104F500006F0B1F970B900210C4806F0A5FA60B965
:104F600000210A4806F0C5FA50B9084806F07DFA53
:104F700048B908BDFFF7C6FBEDE7FFF7C3FBEFE756
:104F8000FFF7C0FBF1E7FFF7BDFBF2E78C1D002444
:104F90000010014008B51748174B03604FF4612318
:104FA000436000238360C36003610C22426183611C
:104FB000C36103624362836206F07DF970B9002128
:104FC0000C4806F071FA60B900210A4806F091FA1F
:104FD00050B9084806F049FA48B908BDFFF792FBF6
:104FE000EDE7FFF78FFBEFE7FFF78CFBF1E7FFF74C
:104FF00089FBF2E7201E0024001C0140F0B5BFB081
:105000000446002139913A913B913C913D91B8225F
:105010000AA809F057F92368AD4A93420CD0AD4A6B
:10502000934277D0AC4A934200F0E780AB4A934278
:1050300000F07D813FB0F0BD02220023CDE90A23BC
:105040000AA803F09FFC00285ED1A54BD3F8E82006
:1050500042F48012C3F8E820D3F8E82002F480126A
:105060000192019AD3F8E02042F00202C3F8E02056
:10507000D3F8E02002F002020292029AD3F8E02074
:1050800042F00802C3F8E020D3F8E03003F0080350
:105090000393039B4FF40053399302263A9600255D
:1050A0003B953C950E233D9339A98E4802F072FC46
:1050B000042339933A963B953C9508233D9339A9AF
:1050C000894802F067FC8948894B036041234360AB
:1050D0008560C5604FF48063036145618561C5618A
:1050E0004FF400330362456200F090FC78B97F4BC7
:1050F000C4F880309C6300220521352000F02EFA90
:10510000352000F061FA95E7FFF7FCFA9DE7FFF71D
:10511000F9FAECE702220023CDE90A230AA803F0FA
:1051200031FC002860D16E4BD3F8E82042F0804279
:10513000C3F8E820D3F8E82002F080420492049AF1
:10514000D3F8E02042F01002C3F8E020D3F8E030BA
:1051500003F010030593059B4FF4C07339930223AA
:105160003A9300253B953C9507233D9339A9614827
:1051700002F010FC6048614B03604F234360856080
:10518000C5604FF48063036145618561C5614FF47B
:1051900000330362456200F039FC40BB564BC4F853
:1051A00080309C635648574B036050234360402334
:1051B00083600023C3604FF48062026143618361B6
:1051C000C3614FF400320262436200F01FFC88B9F1
:1051D0004B4BE3679C6300220521522000F0BEF98F
:1051E000522000F0F1F925E7FFF78CFA9BE7FFF773
:1051F00089FAD3E7FFF786FAEAE701220023CDE92F
:105200000A230AA803F0BEFB002840F08780344B35
:10521000D3F8F02042F01002C3F8F020D3F8F020C9
:1052200002F010020692069AD3F8E02042F0010242
:10523000C3F8E020D3F8E03003F001030793079BA5
:105240004FF4C063399302233A9300253B953C9574
:1052500007233D9339A92C4802F09CFB2B482C4B8B
:105260000360292343608560C5604FF48063036158
:1052700045618561C5614FF400330362456200F00A
:10528000C5FB00284DD1214BC4F880309C632148D8
:10529000214B03602A234360402383600023C360C3
:1052A0004FF48062026143618361C36103624362C0
:1052B00000F0ACFBC0BB174BE3679C6300220521E9
:1052C000252000F04BF9252000F07EF9B2E600BF62
:1052D000005000400078004000100140001C0140D8
:1052E0000044025800040258000C0258441A0024DA
:1052F0004000024000100258BC1A00247004024012
:10530000341B002458000240000002589C1C00245A
:1053100010000240141D002428000240FFF7F2F99B
:1053200075E7FFF7EFF9AEE7FFF7ECF9C3E7012206
:105330000023CDE90A230AA803F024FB002868D142
:10534000384BD3F8F02042F08002C3F8F020D3F8B5
:10535000F02002F080020892089AD3F8E02042F090
:105360001002C3F8E020D3F8E03003F010030993F3
:10537000099B0423399302273A9700253B953C95D6
:105380003D93294E39A9304602F004FB0823399396
:105390003A973B953C950B233D9339A9304602F053
:1053A000F9FA2248224B0360762343608560C5608A
:1053B0004FF48063036145618561C5614FF44033FB
:1053C0000362456200F022FB30BB184BC4F880300A
:1053D0009C631848184B0360772343604023836025
:1053E0000023C3604FF48062026143618361C36143
:1053F0000362436200F00AFB88B90E4BE3679C63CB
:10540000002205219C2000F0A9F89C2000F0DCF887
:1054100010E6FFF777F993E7FFF774F9D5E7FFF7A1
:1054200071F9EAE70044025800100258AC1B00244E
:10543000B8040240241C002458040240DFF834D091
:10544000FFF746FB0C480D490D4A002302E0D458F3
:10545000C4500433C4188C42F9D30A4A0A4C0023BE
:1054600001E013600432A242FBD308F007FFFFF70C
:105470009FF9704700000524000000245C08002408
:1054800028EC000860080024C4710024FEE7000036
:1054900010B5032000F050F802F0B4FE0F498B69FC
:1054A000C3F303230E4AD35C03F01F03D8408B6978
:1054B00003F00F03D35C03F01F0320FA03F3094A40
:1054C0001360094B18600F20FFF7B2F910B10124E7
:1054D000204610BD0446FFF791F9F9E70044025851
:1054E00058E900080800002404000024034B1B783E
:1054F000034A11680B441360704700BF0C0000247E
:10550000DC1F0024014B1868704700BFDC1F00241B
:1055100038B50446FFF7F6FF0546B4F1FF3F02D069
:10552000044B1B781C44FFF7EDFF401BA042FAD34D
:1055300038BD00BF0C0000240649CB6823F4E063AB
:105540001B041B0C000200F4E0600343024A1A43F0
:10555000CA60704700ED00E00000FA0500B5174B87
:10556000DB68C3F30223C3F1070CBCF1040F28BFAF
:105570004FF0040C03F1040EBEF1060F14D9033BE7
:105580004FF0FF3E0EFA0CFC21EA0C0199400EFA96
:1055900003F322EA03031943002807DB0901C9B218
:1055A000074B19545DF804FB0023E9E700F00F00F6
:1055B0000901C9B2034B1954F4E700BF00ED00E044
:1055C00000E400E014ED00E0002807DB00F01F021B
:1055D000400901239340024A42F82030704700BF3F
:1055E00000E100E0F0B4876D0468664E664DAC42A1
:1055F00018BFB44242D01835AC423FD01835AC4247
:105600003CD01835AC4239D01835AC4236D01835BC
:10561000AC4233D01835AC4230D005F55675AC42AB
:105620002CD01835AC4229D01835AC4226D01835CC
:10563000AC4223D01835AC4220D01835AC421DD036
:105640001835AC421AD01835AC4217D04F4DAC4289
:1056500014D01435AC4211D01435AC420ED01435F0
:10566000AC420BD01435AC4208D01435AC4205D056
:105670001435AC4202D01435AC4207D1446E856E6D
:105680006560C46E14B1046F456F656004683D4E7B
:105690003D4DAC4218BFB44252D01835AC424FD049
:1056A0001835AC424CD01835AC4249D01835AC4214
:1056B00046D01835AC4243D01835AC4240D005F541
:1056C0005675AC423CD01835AC4239D01835AC4296
:1056D00036D01835AC4233D01835AC4230D01835FE
:1056E000AC422DD01835AC422AD01835AC4227D068
:1056F000264E274DAC4218BFB44211D0254DAC42C6
:105700000ED01435AC420BD01435AC4208D0143551
:10571000AC4205D01435AC4202D01435AC4224D191
:10572000C46D04F01F050124AC407C600468636014
:105730008368402B20D0036899600368DA6014E026
:10574000C46D04F01F0C3F2404FA0CF4BC6005681F
:105750002C6824F480242C60046863608368402BE8
:1057600005D0036899600368DA60F0BC704703688D
:105770009A600368D960F8E703689A600368D960A3
:10578000F3E700BF1000024028000240085402580E
:105790001C5402583054025803682749274A934240
:1057A00018BF8B422FD0183293422CD0183293421C
:1057B00029D01832934226D01832934223D018327F
:1057C000934220D0183293421DD002F55672934274
:1057D00019D01832934216D01832934213D018328F
:1057E000934210D0183293420DD0183293420AD00F
:1057F0001832934207D01832934204D023F0FF03AB
:105800008365806D704710B4D9B210390C4AA2FB81
:105810000142C2F302120B4CA25CC2655F2907D998
:10582000094A1A4004328265806D5DF8044B704766
:10583000054A1A408265F7E710000240280002403E
:10584000ABAAAAAA68E9000800FCFFFF83699BB91C
:10585000836A012B0AD0022B02D00BB100207047C3
:10586000C36A13F0807F2AD100207047C36AB3F166
:10587000C07F26D000207047B3F5005F0AD0836A4E
:10588000022B26D9032B26D1C36A13F0807F24D1A3
:1058900000207047836A032B03D8DFE803F0140469
:1058A000140A00207047C36A13F0807F0DD10020D6
:1058B0007047C36AB3F1C07F09D000207047012050
:1058C0007047012070470120704701207047012078
:1058D000704701207047002070470120704700008A
:1058E00003682249224A934218BF8B4228D01432BF
:1058F000934225D01432934222D0143293421FD0C7
:10590000143293421CD01432934219D01432934271
:1059100016D0DAB2103A1749A1FB02121209164941
:105920001944A8291FD9154B13449B000366144B37
:10593000436602F01F02012303FA02F282667047F7
:10594000DBB2083B0F4AA2FB03230F4A02EB131200
:10595000920002660D4A4266C3F30413012202FA62
:1059600003F3836670470832DDE700BF085402582E
:105970001C540258ABAAAAAAF0FBFDBF008200107B
:1059800080080240CDCCCCCC00960016805802583E
:1059900001794A1E072A2CD830B40368154D164CDD
:1059A000A34218BFAB4218D01434A34215D014340C
:1059B000A34212D01434A3420FD01434A3420CD00B
:1059C0001434A34209D01434A34206D00B4B0B4429
:1059D0009B00C3660A4B036705E00A4B0B449B0020
:1059E000C366094B0367012303FA02F2426730BC26
:1059F00070477047085402581C5402583F820010E8
:105A0000400902403F9600164059025870B50446BE
:105A1000FFF778FD002C00F0B38105462368534959
:105A2000534A934218BF8B420CBF0122002250D030
:105A300030318B424DD018318B424AD018318B42D5
:105A400047D018318B4244D018318B4241D01831A5
:105A50008B423ED001F556718B423AD018318B42C1
:105A600037D018318B4234D018318B4231D01831B5
:105A70008B422ED018318B422BD018318B4228D03C
:105A800018318B4225D03B493B4A934218BF8B4289
:105A900000F02E81394A934200F02A811432934259
:105AA00000F026811432934200F022811432934296
:105AB00000F01E811432934200F01A811432934296
:105AC00000F0168140236365032384F835300120FC
:105AD0004AE0022184F83510002184F834107ABBA2
